:100000000C9489060C94F3060C94F3060C94F306F6
:100010000C94F3060C94F3060C94F3060C94F3067C
:100020000C94F3060C94F3060C94174E0C94F30600
:100030000C94F3060C94F3060C940B740C949973C3
:100040000C94F3060C94F3060C94F3060C94F3064C
:100050000C94F3060C94F3060C94F3060C94F3063C
:100060000C94F3060C94F3060C94F3060C94F3062C
:100070000C94F3060C9456360C9485740C94F67418
:100080000C94F3060C94F3060C94F306080000009D
:10009000BE922449123EABAAAA2ABECDCCCC4C3E7D
:1000A00000000080BEABAAAAAA3E00000000BF006C
:1000B0000000803F0000000000084178D3BB438768
:1000C000D1133D190E3CC3BD4282AD2B3E68EC827C
:1000D00076BED98FE1A93E4C80EFFFBE01C4FF7F01
:1000E0003F000000000007634236B79BD8A71A39CB
:1000F000685618AEBAAB558C1D3CB7CC5763BD6D76
:10010000EDFD753EF6177231BF000000803F496E6D
:100110006974204E414E4420466C617368004E75F0
:10012000742F4F53202573200000000000000000B2
:1001300000000000000000202020202020002000DF
:1001400000002850500000000000000000000028BF
:1001500028FC2850FC50500000002078A8A06030F7
:1001600028A8F02000000048A8B0502834544800C7
:1001700000000020505078A8A8906C00000040407B
:1001800080000000000000000000040810101010A3
:100190001010080400004020101010101010204013
:1001A0000000000020A87070A820000000000020BF
:1001B0002020F820202000000000000000000000A7
:1001C00000004040800000000000F8000000000037
:1001D00000000000000000000000400000000810C7
:1001E00010102020404040800000007088888888DF
:1001F00088887000000000206020202020207000EF
:1002000000000070888810204080F8000000007016
:1002100088083008088870000000001030505090A6
:1002200078101800000000F88080F008088870003E
:10023000000000709080F08888887000000000F84E
:1002400090102020202020000000007088887088F6
:1002500088887000000000708888887808487000DE
:10026000000000000020000000002000000000004E
:100270000000200000002020000004081020402082
:10028000100804000000000000F80000F800000062
:1002900000004020100804081020400000000070FA
:1002A0008888102020002000000000708898A8A8EE
:1002B000B880780000000020203050507848CC00F2
:1002C000000000F0484870484848F00000000078FE
:1002D0008880808080887000000000F0484848488E
:1002E0004848F000000000F8485070504048F800BE
:1002F000000000F8485070504040E0000000003816
:100300004880809C88483000000000CC48487848ED
:100310004848CC00000000F8202020202020F800D1
:100320000000007C10101010101090E0000000EC95
:10033000485060505048EC00000000E04040404011
:100340004044FC00000000D8D8D8D8A8A8A8A8002D
:10035000000000DC486868585848E8000000007059
:100360008888888888887000000000F048487040BD
:100370004040E0000000007088888888E898701885
:10038000000000F0484870504848EC000000007839
:10039000888060100888F000000000F8A820202065
:1003A00020207000000000CC4848484848483000F1
:1003B000000000CC4848505030202000000000A829
:1003C000A8A8705050505000000000D85050202075
:1003D0005050D800000000D850502020202070003D
:1003E000000000F8901020204048F800000038205D
:1003F00020202020202020380000404040202010D5
:100400001010080000007010101010101010107064
:10041000000020500000000000000000000000006C
:100420000000000000000000FC00200000000000B0
:1004300000000000000000000000304838483C0088
:10044000000000C0404070484848700000000000B4
:1004500000003848404038000000001808083848BC
:1004600048483C0000000000000030487840380058
:100470000000001C202078202020780000000000D0
:1004800000003C4830407844380000C0404070488C
:100490004848EC0000000020000060202020700090
:1004A000000000100000301010101010E00000C01C
:1004B00040405C507048EC00000000E0202020200C
:1004C0002020F800000000000000F0A8A8A8A80064
:1004D000000000000000F0484848EC000000000068
:1004E0000000304848483000000000000000F0489C
:1004F00048487040E000000000003848484838088C
:100500001C0000000000D8604040E0000000000037
:1005100000007840300878000000000020207020A3
:1005200020201800000000000000D84848483C0087
:10053000000000000000EC485030200000000000E7
:100540000000A8A870505000000000000000D85023
:100550002050D800000000000000EC48503020205F
:10056000C000000000007810202078000000181063
:100570001010201010101018001010101010101073
:10058000101010101000602020201020202020606B
:100590000040A41800000000000000000042746E3B
:1005A0003A202564202D3E20256420202020202074
:1005B000202020202000444854257320282573291A
:1005C0003A20626164204352432025782020004471
:1005D0004854257320282573293A205425352E3177
:1005E000662825732531752E253175292048253536
:1005F0002E31662825732531752E25317529204425
:1006000025352E316600444854257320282573294A
:100610003A206E6F20736C617665202D20657272B2
:100620006F722025642020004448543F3F20282535
:1006300073293A20556E737570706F7274656420FB
:1006400053656E736F722073656C656374656421A6
:1006500020200044533138323020282573293A2095
:1006600062616420435243202020200044533138EB
:10067000323020282573293A2025362E326620284C
:1006800025732531752E25317529200044533138C5
:10069000323020282573293A206E6F20736C6176E2
:1006A00065202020005243353A20413D25322E322C
:1006B0006420433D25322E3264202020202020203B
:1006C0002020202000252E32582000514649204865
:1006D00045582044756D703A00466F756E64205021
:1006E0005249207461626C652056657273696F6E41
:1006F0002025632E256320617420307825780053EF
:100700006F6D657468696E672077656E74207772A7
:100710006F6E6721005375636365737366756C6CE8
:10072000792065726173656420466C61736821008D
:1007300045726173696E6720464C4153482E2E2ED8
:100740000041726520796F75207375726520746F32
:10075000207265626F6F742074686520737973749A
:10076000656D3F00416C6C206F626A656374207632
:10077000616C7565732077696C6C20626520636CB1
:1007800065617265642E005265626F6F74205379E3
:100790007374656D0053697A653A202575206B6224
:1007A0007974650044657669636520646F65736E6E
:1007B000B47420737570706F7274205146492100B3
:1007C000466F756E6420505249207461626C6520DA
:1007D00056657273696F6E2025632E2563206174E0
:1007E000203078257800426C6F636B20457261730E
:1007F000652054696D656F7574202575206D7300D3
:100800004275666665722057726974652054696D19
:10081000656F757420257520757300564343204D10
:1008200061782025782E25755600564343204D6962
:100830006E2025782E2575560053697A652025751A
:10084000206B6279746500466F756E64205146496D
:1008500020496E666F2C2072656164696E672E2E6A
:100860002E006166746572776172647320746F2004
:10087000726573746F726520612070726F6A656350
:10088000742E202020202020202020202020200026
:10089000596F75206E65656420746F2072656C6F8A
:1008A000616420612070726F6A6563742066726F84
:1008B0006D207468652053442D6361726400546830
:1008C00069732077696C6C207769706520796F7522
:1008D000722070726F6A65637420464C41534820E1
:1008E0006D656D6F7279212020202000202020204E
:1008F0002020232323232323232320205720412088
:1009000052204E2049204E204720202323232323FA
:10091000232323202020202020004F4F505321202C
:10092000466C61736820636F6E74656E74206E6FC1
:10093000742076616C6964203A2D2800466F756ECC
:10094000642025237820627574206578706563744F
:10095000656420252378004F4F5053212043757242
:1009600072656E742070726F6A656374207665724A
:1009700073696F6E206E6F7420737570706F727410
:1009800065642100466F756E64204D616769633A46
:1009900020252378202523782025237800466C61A4
:1009A000736820656D7074792C20706C6561736557
:1009B000206C6F616420612070726F6A65637421BE
:1009C00000522D436F64652025752C202020526530
:1009D000736F6C7574696F6E20257520782025758E
:1009E0000054465420436F6E74726F6C6C65723D98
:1009F0002025642C205230303D25342E347800459B
:100A00004942206F66666C696E6500454942206FF9
:100A10006E6C696E6500546F756368206D697272E3
:100A20006F722028782F79293A2025642F256400B9
:100A300031383000393020726967687400393020ED
:100A40006C65667400486F72697A6F6E74616C00D1
:100A5000506879732E20416464722025642E2564C9
:100A60002E25640052454C45415345206275696C02
:100A700064004275696C6420257320257300466903
:100A8000726D77617265205625642E2564004E755F
:100A9000742F4F5320257320004C6F6164696E677B
:100AA0002E2E2E202575206B6279746500536563A8
:100AB000746F7220257520657261736564002E6CF9
:100AC000636462002E6C636462006F6B0066616930
:100AD0006C6564004D6F756E74696E6720534420B9
:100AE0004361726400756E6B6E6F776E20747970FF
:100AF00065202564006D6F7665206379636C69639A
:100B000020656C656D656E742064657363726970D1
:100B100074696F6E2072657475726E65643A202513
:100B200064006D6F7665206C697374656E20656C0A
:100B3000656D656E74206465736372697074696F46
:100B40006E2072657475726E65643A202564006D5E
:100B50006F76652070616765206465736372697084
:100B600074696F6E2072657475726E65643A2025C3
:100B700064006D6F766520616464726573732074C0
:100B800061626C652072657475726E65643A2025C9
:100B90006400747970653A202564206174202825EA
:100BA000782920257800546F756368206D6972720A
:100BB0006F722028782F79293A2025642F25640028
:100BC000253032752E253032752E32302530327573
:100BD00000253032753A2530327500252A6C6400C4
:100BE000252A6C7500252A6400252A750025202AEF
:100BF0002E2A660025202A2E2A6600252A2E2A64FF
:100C000000252A2E2A6400696E6600494E46006E51
:100C1000616E004E414E0000407A10F35A00A072FF
:100C20004E18090010A5D4E80000E8764817000027
:100C3000E40B54020000CA9A3B000000E1F50500F5
:100C40000080969800000040420F000000A086013E
:100C5000000000102700000000E80300000000640E
:100C600000000000000A0000000000010000000079
:100C7000002C76D888DC674F0823DFC1DFAE59E14E
:100C8000B1B796E5E3E453C63AE651997696E8E6BD
:100C9000C28426EB898C9B62ED407C6FFCEFBC9C90
:100CA0009F40F2BAA56FA5F490055A2AF75C936BA2
:100CB0006CF9676DC11BFCE0E40D47FEF520E6B55D
:100CC00000D0ED902E0300943577050080841E0837
:100CD0000000204E0A000000C80C333333330F9855
:100CE0006E12831141EF8D2114893BE65516CFFE1C
:100CF000E6DB18D1844B381BF77C1D901DA4BBE4A8
:100D000024203284725E228100C9F124ECA1E53DE9
:100D1000270080EC85BF85E388BB8FE387BB88EE27
:100D200082BB80EB81BB8EE083B982E082B980EF29
:100D3000809362008FE0809361008FE18093650073
:100D400087E080936400479A1092710080E280935C
:100D50007000599AEBE9F0E080818260808387E639
:100D600089B98093990011241FBECFEFD0E1DEBF77
:100D7000CDBF13E0A0E0B1E0ECE6F5E001E00BBF91
:100D800002C007900D92A239B107D9F71DE0A2E980
:100D9000B3E001C01D92A938B107E1F78FEF9FE3DF
:100DA0009EBF8DBF8FEF9FE389589D408158914032
:100DB00050F04FEF5EE349585D4080E69DE069E802
:100DC0007DE00E94446A0E94E97189E093E067E552
:100DD00079E640E050E020E831E00E9459720E943C
:100DE00000000C94B4820C9400000F931F930E9497
:100DF000B9378091620088608093620080916100C1
:100E000088608093610080916C00806880936C00A2
:100E100080916D00817C80936D0080916D00806475
:100E200080936D0085B78F7B85BF0E94640E0E9402
:100E300013722DB73EB7285030400FB6F8943EBF1E
:100E40000FBE2DBFEDB7FEB73196ADB7BEB7129648
:100E50001C921E9211970FEF1FEF138302832EE156
:100E600031E035832483978386830E94F90B0F90AA
:100E70000F90EDB7FEB7319680EE97E0ADB7BEB7F5
:100E800012969C938E931197138302838EE091E0C8
:100E9000958384830E94F90B2DB73EB72A5F3F4F9D
:100EA0000FB6F8943EBF0FBE2DBF0E942A230E94AA
:100EB00066390E941A200E9450360E94383B0E94D8
:100EC0003C0C0E945E2480910504843019F40E9439
:100ED000B42F03C080E00E948A3E8AEF0E949B6C80
:100EE0006EE170E080E090E00E94136F0E94991C18
:100EF0000E94351D0E94212A0E944A4A0E94AA4B44
:100F00000E94583DEDCFE82FF0E0E051F04880819D
:100F10000895E62FF0E0E051F04880830895809333
:100F2000F07F08958093F17F08958091F17F089577
:100F30009093F97F8093F17F08952091F17F409104
:100F4000FA7F942F80E030E0282B392BC9010895D7
:100F5000E1E6F0E0808182608083E2E6F0E080817B
:100F60008D7F80830895E1E6F0E080818260808358
:100F7000E2E6F0E08081826080830895882321F09A
:100F80008091FF0383BD089513BC08958093F07F83
:100F90007093F97F6093F17F08958093F07F2091A3
:100FA000F17F4091FA7F942F80E030E0282B392B9D
:100FB000C90108958093F07F8091F17F0895FC012D
:100FC000A091FD03B091FE03109779F18091530435
:100FD000909154048E179F0720F4E0915304F091F0
:100FE000540480915304909154048417950720F47D
:100FF000409153045091540480914B0490914C04BF
:101000008617970720F460914B0470914C048091EF
:101010004B0490914C048217930720F420914B04C9
:1010200030914C04CF01FD010995089570E0382FEF
:1010300020E0622B732B7093F97F6093F17F08950A
:101040002091530430915404C901089520914B0418
:1010500030914C04C90108956F927F928F929F92B4
:10106000AF92BF92CF92DF92EF92FF920F931F93B6
:10107000682EA42E70E0882777FD8095982F0E9417
:10108000B57B20E030E04FE753E40E941A7B20E07C
:1010900030E04CE752E40E94EA7C0E94877B7B01AF
:1010A0008C01FF248FE3E822FF2485E0EE0CFF1C77
:1010B0008A95E1F7BB24CC24B7FCC094DC2CC60194
:1010C000B5010E94B57B20E030E04FE753E40E9479
:1010D0001A7B20E030E048EF51E40E94EA7C0E9455
:1010E000877B70E06F717070E62AF72A7724882476
:1010F00077FC8094982CC401B3010E94B57B20E05A
:1011000030E04FE753E40E941A7B20E030E048EFE4
:1011100051E40E94EA7C0E94877B362F330F330F05
:10112000330F20E0E22AF32AC7011F910F91FF90AD
:10113000EF90DF90CF90BF90AF909F908F907F9077
:101140006F900895CF92DF92EF92FF920F931F93CB
:101150006C0180910504882349F10091530410919A
:101160005404E0904B04F0904C0480E090E060E088
:1011700070E0A80197010E94DF07D092F97F20E07C
:1011800030E0B8016F5F7F4FA7014F5F5F4F08C02E
:10119000C092F17F019684179507D0F32F5F3F4FE0
:1011A0002617370718F480E090E0F5CF1F910F91D4
:1011B000FF90EF90DF90CF900895AF92BF92CF92C3
:1011C000DF92EF92FF920F931F93CF93DF93A82E9E
:1011D000D92EB62EC72EF42EE52EE90180910504F6
:1011E0008823F9F0862F972F642F752FA901980176
:1011F0000E94DF07D092F97F8F2D9E2D9C01A901BF
:101200000DC08B2D9C2D9C0104C0A092F17F2F5FFF
:101210003F4FC217D307C8F74F5F5F4F041715073B
:1012200080F7DF91CF911F910F91FF90EF90DF90AA
:10123000CF90BF90AF9008954F925F926F927F9240
:101240008F929F92AF92BF92CF92DF92EF92FF92D6
:101250000F931F93DF93CF930F92CDB7DEB72C017F
:101260004B013A01590180910504882309F489C092
:10127000C2010E94DF0781E08093F87FFFEFCF2E4D
:10128000FFE7DF2ECE20DF2080E090E8C80ED91ED9
:10129000EFE016950795F794E794EA95D1F71E2DA0
:1012A0001F771093FC7F21E030E0B90168197909BC
:1012B0006A0D7B1D80E090E024193509260D371D4D
:1012C00040E050E00E94727E9B01AC01C601822B7F
:1012D000932B80FD11C050C0D6018D916D01898383
:1012E000109731F41F5F1093FC7FC12C70E8D72E4C
:1012F00021503040404050402115310541055105F5
:1013000059F73FC0DA01C901B695A795979587951A
:101310008F3FEFEF9E07E0E0AE07E0E0BE0738F05A
:101320002E5F3F4F414050406FEF7FEF22C0BC0126
:10133000A0E0B0E0281B390B4A0B5B0B281B390BD4
:101340004A0B5B0B16C0F60181918983D601119679
:101350008C9189836F010894C11CD11CC114D104E4
:1013600031F41F5F1093FC7FC12C90E8D92E61509F
:1013700070406115710539F7211531054105510599
:1013800009F60F90CF91DF911F910F91FF90EF9091
:10139000DF90CF90BF90AF909F908F907F906F9095
:1013A0005F904F9008950F931F93FC018B0160E1B4
:1013B00077E20E94B27E605DD8016C93CF0168EE47
:1013C00073E00E94B27E462F405DCF0160EF78ED62
:1013D0000E94B27ECB019B01A3E0220F331FAA958E
:1013E000E1F7880F991F280F391F420FD801119676
:1013F0004C93CF0164E670E00E94B27E462F405DC0
:10140000CF0168E17CEF0E94B27ECB019B0163E0DB
:10141000220F331F6A95E1F7880F991F280F391F94
:10142000420FD80112964C93CF016AE070E00E94FF
:10143000B27E462F405DCF016CE97FEF0E94B27E05
:10144000CB019B01B3E0220F331FBA95E1F7880F60
:10145000991F280F391F420FD80113964C93CF01C3
:101460006AE070E00E94B27E805DF801848315829C
:101470001F910F9108953F924F925F926F927F92CA
:101480008F929F92AF92BF92CF92DF92EF92FF9294
:101490000F931F93CF93DF935B016A0129013801FA
:1014A000EC011BE0812E912C860E971EBCE03B2E9A
:1014B00051C080910504882309F448C0AE01495FFA
:1014C0005F4FCE01B50194010E94DF071052139DBA
:1014D000C00111247C010027F7FC0095102F20E0AB
:1014E00030E040E050E089E291E0A0E08E0D9F1DE9
:1014F000A01FB11F820F931FA41FB51FABBFFC011C
:10150000879167E070E0E82FF0E0CF01062E02C07F
:10151000959587950A94E2F780FF05C05092F97F70
:101520004092F17F04C07092F97F6092F17F615028
:1015300070408FEF6F3F780741F72F5F3F4F4F4F5E
:101540005F4F2C3031054105510569F62796089407
:10155000C11CD11CF6011081112309F0AACFCE01C4
:10156000DF91CF911F910F91FF90EF90DF90CF907F
:10157000BF90AF909F908F907F906F905F904F90B3
:101580003F900895919A909A1D9A089590E087FF50
:1015900002C01D9A01C01D98909800000000000034
:1015A000909A0000000000009F5F983011F0880FB3
:1015B000EECF089520E030E080E0220F331F909AB4
:1015C00000000000000090980000000000000C9B4C
:1015D00002C02F5F3F4F8F5F8C3079F7C9010895AC
:1015E000919880E90E94C60A909A90980E94DA0A1F
:1015F000909359048093580480ED0E94C60A909AF3
:1016000090980E94DA0A90930B0480930A04919AAE
:1016100008958091FF0383BD10924A0410924904FB
:1016200008958091490490914A0425E08C3D9207E9
:1016300041F48091DF07843071F08091000483BD14
:1016400008958C5D954038F48091DF07843019F05F
:101650008091FF0383BD089590930704809306044F
:1016600060935D0410925E04089521E030E03093B1
:1016700007042093060430935E0420935D040E94C7
:10168000A2080895EF92FF920F931F93DF93CF93D9
:10169000CDB7DEB79E01215F3F4F8DE094E06D85B1
:1016A0007E85A9010E940776F82EE92E60915D04DF
:1016B00070915E0480910604909107044DE054E01F
:1016C00029853A850B851C850E943B0A9093070467
:1016D000809306042091530430915404281739074D
:1016E00030F481E090E090930704809306048091A9
:1016F0005D0490915E04893C910530F081E090E0BA
:1017000090935E0480935D048F2D9E2DCF91DF9189
:101710001F910F91FF90EF900895EF92FF920F931A
:101720001F93DF93CF93CDB7DEB79E01215F3F4F6D
:101730008DE094E06D857E85A9010E940776F82EE4
:10174000E92E60915D0470915E0480910604909191
:1017500007044DE054E029853A850B851C850E94DD
:101760003B0A21E030E03093070420930604809187
:101770005D0490915E040C9690935E0480935D04EA
:10178000893C910520F030935E0420935D048F2DF9
:101790009E2DCF91DF911F910F91FF90EF900895B3
:1017A000EF92FF920F931F93DF93CF93CDB7DEB7E6
:1017B0009E012D5E3F4F0DE014E0C80169897A89D2
:1017C000A9010E944976F82EE92E89859A856B85B4
:1017D0007C85A8012D853E850F8518890E943B0ACE
:1017E0008F2D9E2DCF91DF911F910F91FF90EF9044
:1017F0000895EF92FF920F931F93DF93CF93CDB78E
:10180000DEB79E01215F3F4F8DE094E06D857E85C0
:10181000A9010E944976F82EE92E60915D0470912D
:101820005E0480910604909107044DE054E0298500
:101830003A850B851C850E943B0A21E030E03093FD
:1018400007042093060480915D0490915E040C9639
:1018500090935E0480935D04893C910520F0309361
:101860005E0420935D048F2D9E2DCF91DF911F91FB
:101870000F91FF90EF90089581E090E0909307041E
:101880008093060490935E0480935D0480E091E071
:1018900061E57CE040E050E020E032E00E945972D7
:1018A000089584E60E949B6C6CE271E080E090E019
:1018B0000E94136F02C00E94F00A0E9BFCCF109290
:1018C0005C0410924E0410924D0410924A0410923F
:1018D00049041092090410925B0410925A04E3E048
:1018E0002E2E71E0472E512C65E0662E712C54E0AF
:1018F000852E912C48E0A42EB12C3324339433E070
:10190000C32ED12C26E0E22EF12C02E010E0C7E03D
:10191000D0E064E170E080E090E00E94136F0E99E7
:10192000A4C00E94F00A8091FF0383BD10924A0474
:1019300010924904E0915F04F09160040995809150
:1019400001049091020497FF05C0109202041092C6
:10195000010413C0209101043091020480914B04D2
:1019600090914C048217930744F480914B0490911A
:101970004C04909302048093010480910C0488230A
:1019800071F080914B0490914C04209101043091AE
:101990000204821B930B9093020480930104209114
:1019A000620430916304809153049091540482172F
:1019B000930744F4809153049091540490936304EA
:1019C0008093620480916204909163049093500428
:1019D00080934F04809101049091020490935204EB
:1019E0008093510480915C048823A1F170924E048D
:1019F00060924D0420915A0430915B042F5F3F4F59
:101A000030935B0420935A0480910904882349F49D
:101A10002031310548F030920904D0924E04C09232
:101A20004D042132310531F02234310519F02336CD
:101A3000310521F4B0924E04A0924D0424363105B4
:101A400069F410925B0410925A0490924E048092B2
:101A50004D0404C050924E0440924D048DE494E035
:101A60000E94A33520925C0454CF80915C048823AB
:101A700021F1815080935C048823F9F4809109045A
:101A8000882329F0D0934E04C0934D0404C01093D2
:101A90004E0400934D048DE494E00E94A335F0922F
:101AA0004E04E0924D048DE494E00E94A335109220
:101AB000090410925B0410925A0480914904909199
:101AC0004A0425E08C3D920708F023CF2091DF07E0
:101AD000243009F41ECF273009F41BCF01969093D0
:101AE0004A04809349048C5D954009F012CF80919F
:101AF000000483BD0ECFBF92CF92DF92EF92FF9290
:101B00000F931F93DF93CF9300D000D00F92CDB7E8
:101B1000DEB70E94D937809355041092050412E075
:101B2000B12EB3E0CB2EA1EADA2EEE24E394F4E05A
:101B3000FF2E7CC080916100826080936100809163
:101B4000620082608093620086E00E94636D8091F3
:101B50006100826080936100809162008D7F80933C
:101B600062008AE00E94636D8091610082608093D0
:101B700061008091620082608093620084E10E9433
:101B8000636D1092F07F8091F17F2091FA7F122F88
:101B900000E090E0802B912B909304048093030449
:101BA0008091030490910404892B61F584E60E94DE
:101BB000636DD092F07F8AE00E94636D8091F17F27
:101BC00089838091F17F8A838091F17F8B838091DB
:101BD000F17F8C838091F17F8D838981813079F4CD
:101BE0008A81873561F48B81813649F48C8181301B
:101BF00031F48D818F3F19F4F092050417C0E09203
:101C0000050414C080910304909104048552934903
:101C100019F4C09205040AC0809103049091040451
:101C200080708050994811F4B092050480910504A9
:101C3000882309F47FCF80910504813019F40E9434
:101C4000A10E30C080910504833019F40E949710D2
:101C500029C0809105048430F9F4809155048230C4
:101C600091F0833028F4882341F08130D9F408C002
:101C7000833061F08430B1F40CC00E94201712C090
:101C80000E9497180FC00E9435140CC00E940B1AB6
:101C900009C00E94AC1506C080910504823011F481
:101CA0000E94601282E28093F07F0F900F900F905D
:101CB0000F900F90CF91DF911F910F91FF90EF90B8
:101CC000DF90CF90BF90089513BC80E887BB8CE66F
:101CD00085BD1092FE031092FD03109260041092D5
:101CE0005F041092570410925604889A899A159AA4
:101CF0000E94C20A0E947B0D8FEF9FEF0E94A208F4
:101D00008091FF0383BD089580910A0490910B0494
:101D1000885C90406FE070E00E94B27E7093020495
:101D20006093010480915804909159048E5591401C
:101D30006BE070E00E94B27E709363046093620473
:101D4000089584E89EE09093600480935F0481E0AE
:101D500090E19093FE038093FD038FE391E09093D5
:101D60005404809353048FEE90E090934C0480933E
:101D70004B0486E464EA70E00E94C60787E463E5EA
:101D800070E00E94C60788E460E070E00E94C60729
:101D900089E464E470E00E94C6078AE464E070E0CD
:101DA0000E94C6078BE467E670E00E94C6078CE4D9
:101DB00063E370E00E94C6078DE467E770E00E946D
:101DC000C6078EE462E170E00E94C6078FE46CE40F
:101DD00070E00E94C60780E566E470E00E94C607D6
:101DE00081E564E470E00E94C60782E060E070E094
:101DF0000E94C60783E060E070E00E94C60784E0AE
:101E000060E070E00E94C60785E06FEE70E00E941F
:101E1000C60786E060E070E00E94C60787E060E0E9
:101E200070E00E94C60788E061E070E00E94C6078B
:101E300089E06FE370E00E94C60781E066E070E031
:101E40000E94C60786E168E670E00E94C60783E24A
:101E500065E970E00E94C60784E265E970E00E94CF
:101E6000C60785E26FEF70E00E94C60787E262E076
:101E700070E00E94C60788E262E070E00E94C60738
:101E800089E262E070E00E94C6078AE262E070E0E8
:101E90000E94C6078CE262E070E00E94C6078DE2F5
:101EA00062E070E00E94C6078AE361E070E00E9491
:101EB000C6078BE360E070E00E94C6078CE360EF2A
:101EC00070E00E94C6078DE360E070E00E94C607E4
:101ED00082E00E94636D85E368E370E00E94C607BC
:101EE00086E368E770E00E94C6078EE368E370E06F
:101EF0000E94C60780E46FE070E00E94C60781E49C
:101F000060EF70E00E94C60789E169E470E00E941A
:101F1000C60783E96FE070E00E94C60782E00E9476
:101F2000636D80E260E470E00E94C6078DE167E0C7
:101F300070E00E94C6078EE160E070E00E94C60774
:101F40008FE164E070E00E94C60784E46DE470E015
:101F50000E94C60785E46EE070E00E94C60782E03A
:101F60000E94636D8CE164E070E00E94C60783E02C
:101F70000E94636D8BE168E170E00E94C60782E019
:101F80000E94636D8BE160E170E00E94C60782E011
:101F90000E94636D83E460E870E00E94C60783E0FE
:101FA0000E94636D80E96FE770E00E94C60786E2D9
:101FB00064E070E00E94C60782E00E94636D86E2E2
:101FC00064E270E00E94C60786E26CE270E00E9464
:101FD000C60782E00E94636D86E26CE370E00E94B7
:101FE000C60787E562E070E00E94C60785E961E008
:101FF00070E00E94C60787E560E070E00E94C607B7
:102000000895AF92BF92CF92DF92EF92FF920F931B
:102010001F93F82E192FB62ED72EE42E052FA22EA1
:10202000C32E82E0692F70E00E94C60783E06F2D07
:10203000712F0E94C60784E0602F70E00E94C607DF
:1020400085E06E2D702F0E94C60786E06D2D70E032
:102050000E94C60787E06B2D7D2D0E94C60788E091
:102060006C2D70E00E94C60789E06A2D7C2D0E94CD
:10207000C60782E20E948F071F910F91FF90EF9099
:10208000DF90CF90BF90AF90089580910A04909117
:102090000B04885C90406FE070E00E94B27E709309
:1020A00002046093010480910804882389F58091DB
:1020B0005804909159048C579140DCF020915804B9
:1020C0003091590486E49FE0821B930B6BE070E033
:1020D0000E94B27E709363046093620480916204F4
:1020E0009091630497FF22C01092630410926204DF
:1020F00008958091580490915904875891406BE05D
:1021000070E00E94B27E709363046093620408954D
:1021100080915804909159048E5591406BE070E085
:102120000E94B27E7093630460936204089585E414
:1021300090E19093600480935F0482ED91E190932D
:10214000FE038093FD038FE391E09093540480930A
:1021500053048FEE90E090934C0480934B0483EEF5
:1021600068E070E30E94C60787EE62E170E00E94BB
:10217000C6078FEE61E372E10E94C60780E061E06E
:1021800070E00E94C60782E30E94636D81E060E018
:1021900070E00E94C60782E060E077E00E94C60718
:1021A00083E068E370E10E94C60784E060E070E0CD
:1021B0000E94C60788E062E072E00E94C60789E0DC
:1021C00060E070E00E94C6078AE060E070E00E9474
:1021D000C6078CE060E070E00E94C6078DE060E01A
:1021E00070E00E94C6078FE060E070E00E94C607C2
:1021F00080E160E070E00E94C60781E167E070E086
:102200000E94C60782E160E070E00E94C60783E199
:1022100060E070E00E94C60788EC0E94636D80E178
:1022200060E976E10E94C60781E167E272E00E9400
:10223000C60782E30E94636D82E16AE170E00E945A
:10224000C60782E30E94636D83E160E078E10E944B
:10225000C60789E26AE270E00E94C60782E30E9434
:10226000636D80E260E070E00E94C60781E260E09A
:1022700070E00E94C60780E367E070E00E94C60736
:1022800081E365E076E00E94C60782E366E071E0E4
:102290000E94C60785E366E072E00E94C60786E3F7
:1022A00068E078E00E94C60787E367E070E00E947C
:1022B000C60788E361E072E00E94C60789E367E031
:1022C00070E00E94C6078CE362E076E00E94C607D9
:1022D0008DE368E078E00E94C60780E560E070E08A
:1022E0000E94C60781E56FEE70E00E94C60782E596
:1022F00060E070E00E94C60783E56FE371E00E9432
:10230000C60780E660E077EA0E94C60781E661E0E2
:1023100070E00E94C6078AE660E070E00E94C6078F
:1023200080E860E070E00E94C60781E860E070E04D
:102330000E94C60782E860E070E00E94C60783E85A
:1023400060E070E00E94C60784E860E070E00E94F0
:10235000C60785E860E070E00E94C60780E960E19A
:1023600070E00E94C60782E960E070E00E94C60744
:1023700083E963E070E00E94C60785E960E171E0EF
:102380000E94C60787E960E070E00E94C60788E9FE
:1023900060E070E00E94C60787E063E371E00E949E
:1023A000C6070895AF92BF92CF92DF92EF92FF924D
:1023B0000F931F937C016B018A01590182E5B701DC
:1023C0000E94C60783E5B8010E94C60781E2B701F3
:1023D0000E94C60780E5B6010E94C60781E5B501E7
:1023E0000E94C60780E2B6010E94C60782E20E94F0
:1023F0008F071F910F91FF90EF90DF90CF90BF90CC
:10240000AF90089580910A0490910B04885C9040ED
:102410006FE070E00E94B27E70930204609301044A
:1024200080910804882389F180915804909159047F
:102430008C579140DCF0209158043091590486E487
:102440009FE0821B930B6BE070E00E94B27E709362
:10245000630460936204809162049091630497FF27
:1024600022C010926304109262040895809158046F
:1024700090915904875891406BE070E00E94B27EC1
:10248000709363046093620408958091580490915E
:1024900059048E5591406BE070E00E94B27E7093BB
:1024A0006304609362040895882321F081E06FE360
:1024B00079E603C081E06FE379E20E94C6070895E0
:1024C00082E092E19093600480935F0481EC93E159
:1024D0009093FE038093FD0384E592E1909357046B
:1024E000809356048FE391E09093540480935304B7
:1024F0008FEE90E090934C0480934B0480E061E079
:1025000070E00E94C60782E00E94636D83E064EA87
:1025100078EA0E94C60782E00E94636D8CE060E06A
:1025200070E00E94C60782E00E94636D8DE06CE05F
:1025300078E00E94C60782E00E94636D8EE060E052
:102540007BE20E94C60782E00E94636D8EE160EB31
:1025500070E00E94C60782E00E94636D81E06FE335
:1025600079E20E94C60782E00E94636D82E060E02B
:1025700076E00E94C60782E00E94636D80E160E021
:1025800070E00E94C60782E00E94636D81E168E707
:1025900070E60E94C60782E00E94636D85E060E0FD
:1025A00070E00E94C60782E00E94636D86E060E0F2
:1025B00070E00E94C60782E00E94636D86E16CE1D4
:1025C0007FEE0E94C60782E00E94636D87E163E0B0
:1025D00070E00E94C60782E00E94636D87E063E3BB
:1025E00072E00E94C60782E00E94636D8BE060E0AB
:1025F00070E00E94C60782E00E94636D8FE060E099
:1026000070E00E94C60782E00E94636D81E460E092
:1026100070E00E94C60782E00E94636D82E460E081
:1026200070E00E94C60782E00E94636D88E460E06B
:1026300070E00E94C60782E00E94636D89E46FE348
:1026400071E00E94C60782E00E94636D8AE460E048
:1026500070E00E94C60782E00E94636D8BE460E038
:1026600070E00E94C60782E00E94636D84E460E02F
:102670007FEE0E94C60782E00E94636D85E460E001
:1026800070E00E94C60782E00E94636D86E46FE3FB
:1026900071E00E94C60782E00E94636D80E367E0FC
:1026A00077E00E94C60782E00E94636D81E364E0E8
:1026B00072E00E94C60782E00E94636D82E364E0DC
:1026C00072E00E94C60782E00E94636D83E362E0CD
:1026D00075E00E94C60782E00E94636D84E367E0B4
:1026E00075E00E94C60782E00E94636D85E364E0A6
:1026F00072E00E94C60782E00E94636D86E364E098
:1027000072E00E94C60782E00E94636D87E362E088
:1027100075E00E94C60782E00E94636D8AE362E072
:1027200073E00E94C60782E00E94636D8BE362E063
:1027300073E00E94C60782E00E94636D83E260E05E
:1027400070E00E94C60782E00E94636D84E260E050
:1027500070E00E94C60782E00E94636D85E260E03F
:1027600070E80E94C60782E00E94636D8FE460E01B
:1027700070E00E94C6078EE460E070E00E94C60729
:102780000895CF92DF92EF92FF920F931F936C0107
:102790008B017A01722F60E0600F711F84E40E9448
:1027A000C60785E4B6010E94C60786E4B7010E9409
:1027B000C6078EE4B8010E94C6078FE4B6010E94E6
:1027C000C60782E20E948F071F910F91FF90EF9042
:1027D000DF90CF9008951F93182F8093610486E3B4
:1027E0000E948F07112311F080E001C083E00E9456
:1027F00092071F910895AF92BF92CF92DF92EF920E
:10280000FF920F931F93F82E192FB62ED72EE42E7A
:10281000052FA22EC32E8AE20E948F07812F0E94CD
:1028200092078F2D0E949207802F0E9492078E2D73
:102830000E9492078BE20E948F078D2D0E949207C3
:102840008B2D0E9492078C2D0E9492078A2D0E9448
:1028500092078CE20E948F071F910F91FF90EF90DB
:10286000DF90CF90BF90AF9008950F931F9387E0B4
:1028700095E19093600480935F048BEF93E19093D4
:10288000FE038093FD038BEE93E1909357048093B6
:1028900056048FED91E090935404809353048FE09D
:1028A00091E090934C0480934B040DE610E0F80106
:1028B00080818C60808382EE0E948F0783E20E9479
:1028C000920782E00E94920784E00E94920780EEC5
:1028D0000E948F0781E00E94920781E00E94636D51
:1028E00080EE0E948F0783E00E94920785E00E949D
:1028F000636D81E00E948F0785E00E94636DF8019F
:102900008081837F808386EE0E948F0781E00E9412
:10291000920783E30E94920782E30E94920780EB72
:102920000E948F0780E20E94920780E00E94920737
:1029300081E00E9492078FED0E94920781E00E9441
:1029400092078FE00E94920780E00E94920785E044
:102950000E94636D84EB0E948F0782E00E949207C1
:1029600083E10E94920780E00E9492078BE20E941E
:1029700092078AE00E94920780E00E94920788E016
:102980000E94920780E00E94920786EB0E948F07C8
:1029900081E00E94920780E20E94920780E00E94FC
:1029A00092078CE00E9492078AE00E94920780E0E2
:1029B0000E94920784E00E9492078AEB0E948F0790
:1029C00080E00E94920788EB0E948F0780E00E94BF
:1029D000920781E00E94920786E30E948F0783E0BE
:1029E0000E94920780EF0E948F0783E00E94920767
:1029F00085E00E94636D89E20E948F0780ED0E944E
:102A00008F078DE00E9492071F910F9108956091AA
:102A10005804709159046E5A7140882777FD80954B
:102A2000982F0E94B57B26E636E646E351E40E94E5
:102A30001A7B0E94827B7093020460930104809150
:102A40006104882361F00E942608209101043091DE
:102A50000204821B930B9093020480930104609103
:102A60000A0470910B046A5F7040882777FD809597
:102A7000982F0E94B57B23E333E343EF50E40E9499
:102A80001A7B0E94827B709363046093620480913E
:102A90006104882361F00E94200820916204309133
:102AA0006304821B930B9093630480936204809170
:102AB00062049091630497FF04C010926304109223
:102AC000620408951F93182F8093610486E30E9487
:102AD0008F07112311F080E001C083E00E9492076C
:102AE0001F910895AF92BF92CF92DF92EF92FF9223
:102AF0000F931F93F82E192FB62ED72EE42E052FE5
:102B0000A22EC32E8AE20E948F07812F0E94920775
:102B10008F2D0E949207802F0E9492078E2D0E9477
:102B200092078BE20E948F078D2D0E9492078B2DBA
:102B30000E9492078C2D0E9492078A2D0E94920774
:102B40008CE20E948F071F910F91FF90EF90DF9012
:102B5000CF90BF90AF9008950F931F938BE796E1AE
:102B60009093600480935F0482E795E19093FE0365
:102B70008093FD0382E695E1909357048093560479
:102B80008FED91E090935404809353048FE091E093
:102B900090934C0480934B040DE610E0F801808183
:102BA0008C60808382EE0E948F0783E20E949207EE
:102BB00082E00E94920784E00E94920780EE0E94C9
:102BC0008F0781E00E94920781E00E94636D80EE92
:102BD0000E948F0783E00E94920785E00E94636D48
:102BE00081E00E948F0785E00E94636DF80180817B
:102BF000837F808386EE0E948F0783E00E94920786
:102C000083E30E94920782E30E94920780EB0E9476
:102C10008F0780E00E94920780E00E94920781E087
:102C20000E9492078FED0E94920781E00E94920716
:102C30008FE00E9492078DE20E94920784EB0E942F
:102C40008F0782E00E94920783E10E94920780E052
:102C50000E9492078BE20E94920781E00E949207F5
:102C600080E00E94920788E00E94920780E00E9424
:102C7000920786EB0E948F0781E00E94920780E214
:102C80000E94920780E00E9492078CE00E949207C7
:102C90008AE00E94920780E00E94920784E00E94EE
:102CA00092078AEB0E948F078FE00E94920788EBC1
:102CB0000E948F0787E00E94920781E00E9492079E
:102CC00086E30E948F0783E00E94920780EF0E94B4
:102CD0008F0783E00E94920785E00E94636D89E27E
:102CE0000E948F0780ED0E948F078DE00E9492075F
:102CF0001F910F91089560910A0470910B0464551F
:102D00007140882777FD8095982F0E94B57B2DEC28
:102D10003CEC44E451E40E941A7B0E94827B709355
:102D200002046093010480916104882361F00E9491
:102D300026082091010430910204821B930B90938A
:102D400002048093010460915804709159046A5AF6
:102D50007040882777FD8095982F0E94B57B26E6E6
:102D600036E646EF50E40E941A7B0E94827B709305
:102D700063046093620480916104882361F00E947F
:102D800020082091620430916304821B930B90937E
:102D9000630480936204809162049091630497FFBE
:102DA00004C0109263041092620408951F93182FB8
:102DB0008093610486E30E948F07112311F080E065
:102DC00001C083E00E9492071F910895AF92BF92C5
:102DD000CF92DF92EF92FF920F931F93F82E192F4D
:102DE000B62ED72EE42E052FA22EC32E8AE20E94E5
:102DF0008F07812F0E9492078F2D0E949207802FAC
:102E00000E9492078E2D0E9492078BE20E948F07EC
:102E10008D2D0E9492078B2D0E9492078C2D0E946F
:102E200092078A2D0E9492078CE20E948F071F91C1
:102E30000F91FF90EF90DF90CF90BF90AF900895EB
:102E40000F931F9382EF97E19093600480935F0448
:102E500086EE96E19093FE038093FD0386ED96E166
:102E600090935704809356048FE193E09093540419
:102E7000809353048FED91E090934C0480934B0426
:102E80000DE610E0F80180818C60808382EE0E9464
:102E90008F0783E20E94920782E00E94920784E0FB
:102EA0000E94920780EE0E948F0781E00E949207A5
:102EB00081E00E94636D80EE0E948F0783E00E9494
:102EC000920785E00E94636D81E00E948F0785E094
:102ED0000E94636DF8018081837F808386EE0E946B
:102EE0008F0784E00E94920786E60E94920785E69B
:102EF0000E94920780EB0E948F0787E20E94920750
:102F000080E00E94920783E00E9492078FE10E9476
:102F1000920781E00E9492078FED0E94920780E065
:102F20000E94920785E00E94636D84EB0E948F07E8
:102F300084E00E9492078AE10E94920780E00E944A
:102F400092078EE20E94920780E30E94920780E03F
:102F50000E9492078FE00E94920780E00E949207F1
:102F600086EB0E948F0782E00E9492078DE00E940C
:102F7000920780E00E94920780E10E94920780E120
:102F80000E94920780E00E94920788E00E949207C8
:102F90008AEB0E948F0780E00E94920788EB0E94D4
:102FA0008F0780E00E94920781E00E94920786E3EB
:102FB0000E948F0783E00E94920780EF0E948F0794
:102FC00083E00E9492078AE00E94636D89E20E947A
:102FD0008F0780ED0E948F078DE00E9492071F915E
:102FE0000F9108956091580470915904685C704085
:102FF000882777FD8095982F0E94B57B2AE939E9CB
:1030000049EE50E40E941A7B0E94827B7093020476
:103010006093010480916104882361F00E94260876
:103020002091010430910204821B930B90930204BF
:103030008093010460910A0470910B046C5D7040F0
:10304000882777FD8095982F0E94B57B23E333E393
:1030500043E950E40E941A7B0E94827B70936304D0
:103060006093620480916104882361F40E942008C7
:103070002091620430916304821B930B909363044C
:1030800080936204809162049091630497FF04C06E
:10309000109263041092620408951F93182F809376
:1030A000610486E30E948F07112311F080E001C0C4
:1030B00083E00E9492071F910895AF92BF92CF9232
:1030C000DF92EF92FF920F931F93F82E192FB62ED7
:1030D000D72EE42E052FA22EC32E8AE20E948F0740
:1030E000812F0E9492078F2D0E949207802F0E94AD
:1030F00092078E2D0E9492078BE20E948F078D2DE2
:103100000E9492078B2D0E9492078C2D0E9492079D
:103110008A2D0E9492078CE20E948F071F910F91C7
:10312000FF90EF90DF90CF90BF90AF9008950F93F6
:103130001F9386E699E19093600480935F048DE588
:1031400098E19093FE038093FD038DE498E19093C2
:103150005704809356048FE193E090935404809336
:1031600053048FED91E090934C0480934B040DE653
:1031700010E0F80180818C60808382EE0E948F07CE
:1031800083E20E94920782E00E94920784E00E94FC
:10319000920780EE0E948F0781E00E94920781E0F3
:1031A0000E94636D80EE0E948F0783E00E94920769
:1031B00085E00E94636D81E00E948F0785E00E9498
:1031C000636DF8018081837F808386EE0E948F0784
:1031D00083E00E9492078FEF0E9492078FEF0E9478
:1031E000920780EB0E948F0787E20E94920780E09F
:1031F0000E94920783E00E9492078FE10E9492074B
:1032000081E00E9492078FED0E94920780E00E9469
:10321000920784EB0E948F0783E00E94920780EA66
:103220000E94920780E00E9492078EE20E9492071D
:1032300080E30E94920780E00E9492078FE00E9444
:10324000920780E00E94920786EB0E948F0782E03F
:103250000E9492078DE00E94920780E00E949207F0
:1032600080E10E94920780E10E94920780E00E9424
:10327000920788E00E9492078AEB0E948F078FE0F6
:103280000E94920788EB0E948F0787E00E949207B6
:1032900081E00E94920786E30E948F0783E00E94EC
:1032A000920780EF0E948F0783E00E94920785E0DB
:1032B0000E94636D89E20E948F0780ED0E948F0754
:1032C0008DE00E9492071F910F910895609158041C
:1032D000709159046E5B7040882777FD8095982F18
:1032E0000E94B57B20E030E040EF50E40E941A7B62
:1032F0000E94827B709302046093010480916104B8
:10330000882361F40E942608209101043091020470
:10331000821B930B909302048093010460910A0432
:1033200070910B046C5D7040882777FD8095982F15
:103330000E94B57B23E333E343E950E40E941A7B08
:103340000E94827B709363046093620480916104A5
:10335000882361F40E942008209162043091630464
:10336000821B930B909363048093620480916204A8
:103370009091630497FF04C010926304109262045A
:1033800008951F93182F8093610486E30E948F078E
:10339000112311F080E001C083E00E9492071F9189
:1033A0000895AF92BF92CF92DF92EF92FF920F9368
:1033B0001F93F82E192FB62ED72EE42E052FA22EEE
:1033C000C32E8AE20E948F07812F0E9492078F2DC1
:1033D0000E949207802F0E9492078E2D0E949207D2
:1033E0008BE20E948F078D2D0E9492078B2D0E94E9
:1033F00092078C2D0E9492078A2D0E9492078CE2E0
:103400000E948F071F910F91FF90EF90DF90CF9058
:10341000BF90AF9008950F931F938DED9AE1909315
:10342000600480935F0481ED99E19093FE038093A3
:10343000FD0381EC99E190935704809356048FE14A
:1034400093E090935404809353048FED91E0909314
:103450004C0480934B040DE610E0F80180818C60F1
:10346000808382EE0E948F0783E20E94920782E0AF
:103470000E94920784E00E94920780EE0E948F07CC
:1034800081E00E94920781E00E94636D80EE0E94BD
:103490008F0783E00E94920785E00E94636D81E0C0
:1034A0000E948F0785E00E94636DF8018081837F11
:1034B000808386EE0E948F0784E00E94920786E652
:1034C0000E94920785E60E94920780EB0E948F0778
:1034D00080E00E94920780E00E94920783E00E94B1
:1034E00092078FE10E94920781E00E9492078FED80
:1034F0000E94920780E00E94920785E00E94636D1F
:1035000084EB0E948F0784E00E9492078AE10E9468
:10351000920780E00E9492078EE20E94920784E167
:103520000E94920780E00E94920782ED0E9492071B
:1035300080E00E94920786EB0E948F0782E00E9443
:1035400092078DE00E94920780E00E94920787E137
:103550000E9492078AE00E94920780E00E949207F0
:1035600086E10E9492078AEB0E948F0785E00E9405
:10357000920788EB0E948F0787E00E94920781E004
:103580000E94920786E30E948F0783E00E949207C1
:1035900080EF0E948F0783E00E94920785E00E94DF
:1035A000636D89E20E948F0780ED0E948F078DE096
:1035B0000E9492071F910F91089560915804709195
:1035C000590468567140882777FD8095982F0E948E
:1035D000B57B26E636E646EE50E40E941A7B0E9452
:1035E000827B7093020460930104809161048823BC
:1035F00061F40E9426082091010430910204821B8C
:10360000930B909302048093010460910A047091DB
:103610000B0462587040882777FD8095982F0E9490
:10362000B57B26E636E646E950E40E941A7B0E9406
:10363000827B7093630460936204809161048823A9
:1036400061F40E9420082091620430916304821B7F
:10365000930B909363048093620480916204909131
:10366000630497FF04C010926304109262040895EB
:10367000482F2091A4073091A50789E190E0289F69
:10368000D001299FB00D389FB00D1124A959BB4F0F
:103690008C91873114F080E00895E82FFF27E7FD33
:1036A000F095EA0FFB1F42838F5F8C938091F905A1
:1036B00084278093F90581E0089580910606882388
:1036C00039F080919B0780939C0010920606089524
:1036D00080919D07882329F080939C0010929D077C
:1036E000089580919C07882329F080939C00109274
:1036F0009C0708958091F7059091F8058130910518
:1037000021F0029709F05FC039C040910206509144
:1037100003062091FA053091FB0589E190E0489F6E
:10372000D001499FB00D589FB00D1124A55FB94F2E
:10373000FD01E20FF31F928190939B0781E080933C
:10374000060680916604892780936604822F80682C
:1037500080939C002F5F3F4F3093FB052093FA0529
:103760008C91992787FD90958217930789F582E0C0
:1037700090E09093F8058093F70508958091660492
:10378000809580939B0781E0809306068091FA05DF
:10379000806480939C0083E090E09093F805809390
:1037A000F7051092A00780910206909103060196FA
:1037B0009093030680930206409754F010920306FC
:1037C00010920206089580919A008F7D80939A004E
:1037D0000895823010F080E00895E82FF0E0EE0FB9
:1037E000FF1FE450FA4F7183608381E008958230B7
:1037F00018F0E0E0F0E009C0E82FF0E0EE0FFF1F66
:10380000E450FA4F0190F081E02DCF0108950FB6FA
:10381000F8940F92209104063091050680910206DB
:1038200090910306281739070CF4205F281B0F908E
:103830000FBE80E0283008F481E00895EF92FF92F7
:103840000F931F93849B25C01092080610920706C1
:1038500080919A008F7D80939A0080919A008F7753
:1038600080939A0010929A0087B78B7F87BF1EBC07
:1038700010929F0710929E0783E090E09093F805C6
:103880008093F7051092A3071092A00710920606E6
:103890004BC08091070690910806892B09F044C01F
:1038A00010929C0710929B0088E180939A0086E218
:1038B00080939D0080919D0086FF06C0E12CFBE473
:1038C000FF2E012D112D11C080919B0081FD07C09D
:1038D000E12CE8E5FE2EE2E00E2F112D06C0E12CD2
:1038E0007CE2F72E71E0072F112D0E94046EA801D3
:1038F00097010E94C57E2F5F3F4F4F4F5F4F5695F8
:103900004795379527952150304020939900309363
:10391000980081E090E090930806809307068091DC
:103920009A00806880939A001F910F91FF90EF900A
:1039300008950E941E1C8091070690910806089524
:103940009C018130910509F477C08130910548F0E0
:103950008230910509F472C08330910509F083C06B
:103960007AC095988D9A1092090610920A061092C4
:10397000A3071092060610920806109207060E94EE
:10398000046E0E94B37B20E030E040E150E40E94EE
:10399000EA7C20E030E04AE754EC0E941A7B20E009
:1039A0003FEF4FE757E40E94B27A0E94877B709303
:1039B000A2076093A1070E94046E0E94B37B20E0DF
:1039C00030E04AE754EC0E941A7B20E03FEF4FE7DB
:1039D00057E40E94B27A0E94877B7093010660933D
:1039E00000068DE393E061E87EE141E050E00E9453
:1039F0002B7587E393E061E87EE142E050E00E94AE
:103A00002B7583E493E06DE57BE140E050E00E949C
:103A10002B7586E091E069E07EE140E050E020E037
:103A200032E00E94597210929D0710929F071092E7
:103A30009E078D9A959A17C081E00EC085E080930D
:103A40009D0780919A00806280939A0030930806C7
:103A50002093070608C082E080939D0780919A001A
:103A6000806280939A0080E008958091F70590919C
:103A7000F805039779F48091A0078F5F8093A007E2
:103A8000853040F01092F8051092F70582E993E036
:103A90000E940D710895AC01209164043091650479
:103AA0008091A4079091A5078217930711F480E0F5
:103AB000089589E190E0289FF001299FF00D389F3B
:103AC000F00D1124E959FB4F2081332727FD309554
:103AD0002E5F3F4FCA01BF01A9010E94CB800FB6E4
:103AE000F8940F92809164049091650401969093EC
:103AF000650480936404409724F01092650410924A
:103B000064040F900FBE81E00895CF93DF93EC0122
:103B100008C084E993E040E050E060E070E00E947B
:103B20006271CE010E944B1D882399F3DF91CF91E2
:103B30000895EF92FF920F93CF93DF937C01062FAE
:103B40006230B8F44091040650910506EA012196CE
:103B5000C031D10514F0C0E0D0E00FB6F8940F9258
:103B60008091020690910306C817D90721F40F909F
:103B70000FBE80E048C00F900FBED701EC91E83136
:103B800014F08FEF40C089E190E0489F9001499F79
:103B9000300D589F300D1124235F394FFF27E7FD6B
:103BA000F095A7014E5F5F4FC901BA01AF010E94B6
:103BB000CB808091040690910506E02FF0E0EE0F97
:103BC000FF1FE450FA4F20813181A9E1B0E08A9FC4
:103BD000F0018B9FF00D9A9FF00D1124E55FF94FD6
:103BE00023833483D7018C9180830FB6F8940F928E
:103BF000D0930506C09304060F900FBE82E993E0B0
:103C00000E940D7181E0DF91CF910F91FF90EF90B5
:103C100008958CE30E949B6C82E993E040E050E0C1
:103C200060E070E00E9462714091070650910806C2
:103C30004130510589F78091F7059091F805892B5E
:103C400059F7209102063091030680910406909165
:103C500005062817390701F31092FB051092FA05A3
:103C600010926604109206065093F8054093F705EB
:103C700080919A00806280939A00CECF809107064F
:103C8000909108060197D9F52091A4073091A507D6
:103C900089E190E0289FF001299FF00D389FF00DF9
:103CA0001124E959FB4F948180E0238130E0282BD7
:103CB000392B558146816091FC057091FD052617D1
:103CC0003707E9F0A091FE05B091FF052A173B07E1
:103CD000B1F0942F80E0452F50E0482B592B87817D
:103CE00087FF04C0CA010E94122008954617570793
:103CF00021F080E04A175B0719F481E0089580E025
:103D000008959C018130910531F460919B006C71A4
:103D100070919C0006C087B78B7F87BF1EBC70E088
:103D200060E01092A00740919E0750919F07443099
:103D3000510568F44230510508F061C04115510544
:103D400009F4C1C04130510509F04BC105C04430F0
:103D5000510509F046C134C02130310571F580911B
:103D6000A1079091A2079DBD8CBD662329F4872FE2
:103D70000E94381B882339F484E090E090939F07D9
:103D800080939E0708952091A4073091A50789E1AB
:103D900090E0289FF001299FF00D389FF00D11242D
:103DA000E959FB4F8081863009F023C10E943E1EF5
:103DB000882309F41EC181E1F1C082E090E00CC0CB
:103DC0002130310539F48091A1079091A2079DBD62
:103DD0008CBD089583E090E090939F0780939E07A9
:103DE00080910006909101069DBD8CBD81E08EBD45
:103DF00086B7846086BF87B7846087BF0895213007
:103E0000310561F5662381F42091A4073091A5075F
:103E100089E190E0289FF001299FF00D389FF00D77
:103E20001124E959FB4F71831092F8051092F705A0
:103E3000E0919203F0919303309739F48FEF9FEF65
:103E4000909393038093920309C08FEFEF3FF8079D
:103E500029F0848195810196958384838091F90569
:103E60008F3F41F54230510529F58091A40790918B
:103E7000A50701969093A5078093A407409724F087
:103E80001092A5071092A407E0919403F091950376
:103E9000309739F48FEF9FEF9093950380939403BD
:103EA00009C08FEFEF3FF80729F0848195810196D3
:103EB0009583848387B78B7F87BF1EBC10929F0733
:103EC00010929E0708952230310509F492C06623AE
:103ED00009F08FC0733039F581E08093090681E0E5
:103EE00090E09093080680930706109206061092C1
:103EF000F8051092F705E0919203F0919303309743
:103F000039F48FEF9FEF909393038093920308957A
:103F10008FEFEF3FF80709F46CC08481958101961B
:103F2000958384830895272F30E0C90187709070AE
:103F3000079731F470930A0681E08093A3070895F0
:103F4000237130702031310509F053C08091A107F1
:103F50009091A2079DBD8CBD81E08EBD86B7846027
:103F600086BF87B7846087BF4091A4075091A5079B
:103F70009A012F5F3F4F2031310514F020E030E0EF
:103F800080916404909165042817390779F484E0DE
:103F900090E090939F0780939E0783E180939C0716
:103FA00080919A00806280939A00089581E090E069
:103FB00090939F0780939E0789E190E0489FF001CE
:103FC000499FF00D589FF00D1124E959FB4F1182C4
:103FD000108210929C071092F905872F0E94381BBF
:103FE000089510929F0710929E0787B78B7F87BF17
:103FF0001EBC08958036910511F08FEF089580E082
:1040000008951092D7071092D607089508958091C9
:10401000D00782958F70089587708295807F8093F6
:10402000D00708950E94D842892F8095881F88273D
:10403000881F08951092D7071092D6078DE091E05F
:104040006FE370E240E050E020E032E00E945972FD
:1040500086E191E068E072E240E050E020E032E08A
:104060000E94597280E090E00E94A01C0E944E398C
:1040700080E68093D00708950E94851D0895DF9300
:10408000CF93CDB7DEB769970FB6F894DEBF0FBEFA
:10409000CDBF82E30E949B6C43E0E42EF12CEC0E3A
:1040A000FD1ECE010A969E01255F3F4F6E010894CA
:1040B000C11CD11C4C015901C6010E94851DC601BD
:1040C0000E944C28888587FF2DC0F7010381148149
:1040D00045814F70415096812781442311F0B501ED
:1040E00005C0822F8F73F7018783B401892F90E079
:1040F00083709070880F991F880F991F22952695BD
:1041000026952370282BC8010E94EB5E8823A1F21C
:10411000C8010E94CD4AC8010E946C3DC8010E949E
:10412000CD4ACACF80E00E94F71BC6CF0E944B1D2C
:104130000895FC01329625813091D007232B2583E9
:1041400060E00E94991D08951F93DF93CF93CDB730
:10415000DEB769970FB6F894DEBF0FBECDBFFB0187
:10416000142FDE0113962CEB2B8314969C938E93C5
:104170001397842F8F5F8F70806815968C93159797
:1041800016961C92169780E817968C9317974423DF
:1041900041F09E01255F3F4FC90150E00E94CB8056
:1041A00005C080818F73806817968C93185F198380
:1041B000CE0101960E94992069960FB6F894DEBF51
:1041C0000FBECDBFCF91DF911F910895DF93CF93A5
:1041D000CDB7DEB769970FB6F894DEBF0FBECDBF7F
:1041E000682F80EB8B838091D1078E838091D407D9
:1041F0008F8318862091D907621751F0462F50E01F
:10420000CA0101978F70907030E08217930751F4C4
:10421000862F90E08F709070880F991F880F991FDC
:10422000826C08C04F705070440F551F440F551FCB
:10423000842F836C898787E08983CE0101960E9451
:10424000992069960FB6F894DEBF0FBECDBFCF910F
:10425000DF910895DF93CF93CDB7DEB769970FB69F
:10426000F894DEBF0FBECDBF90EB9B838E836F8330
:10427000188681E8898787E08983CE0101960E94AC
:10428000992069960FB6F894DEBF0FBECDBFCF91CF
:10429000DF9108950F93CF93DF93982FFA01022FA8
:1042A000222311F480E029C0C8EAD7E080EB809394
:1042B000A8079093AB076093AC07822F81508F7053
:1042C0008093AD079091D307990F990F90648081E7
:1042D000892B80839E012A5F3F4FC901BA01402F7D
:1042E00050E00E94CB800A5F0093A6078CE3809386
:1042F000D207CE0102970E949920DF91CF910F91B2
:104300000895AC01262F1092D5078EE18093CF0738
:104310008CE38093D20782E090E09093D70780935C
:10432000D6078091D1076091D4070E944A21089551
:10433000FC01808590E083709070782F66278185DE
:1043400090E0682B792B23E06030720779F483E0EA
:104350008093BF0780E48093C0071092C10782E179
:104360008093C2078FEB97E064E02FC0CB01807F82
:104370008050924069F56F70928580E0238530E02F
:10438000282B392B82E08093BF07862F806480938F
:10439000C00782858093C10783858093C207E3ECC1
:1043A000F7E0862F90E08E0F9F1F09C02036310561
:1043B00011F440E001C04FEF41932F5F3F4FE817EA
:1043C000F907A1F76C5F8FEB97E00E9481210895B8
:1043D000CB01807C80589140D1F43285832F90E0CE
:1043E0009695982F88279795879521E02093BF076A
:1043F000262F206C2093C0073093C1079093C207EB
:104400008093C3078FEB97E065E00E9481210895B8
:1044100087E30E949B6C0EE11CE364E670E080E0A1
:1044200090E00E94136F8091D6079091D707892B57
:10443000A1F38091CF078823F9F081508093CF07B3
:104440008823D1F48091D507853060F48F5F809305
:10445000D5070093CF071093D20786EA97E00E9412
:1044600099200AC08091D1076091D4070E942A2127
:104470001092D7071092D6078091D207882369F24D
:1044800081508093D207882341F68091D1076091B3
:10449000D4070E942A211092D7071092D607BDCFC9
:1044A0001F93182FD901CA01860F971F815090487A
:1044B00020F040E050E8461B570BFB01E050F0486D
:1044C0009A017AEA65E590EA19C01092FC7F109291
:1044D000F97F709355856093AA82909355851093C8
:1044E000FC7F8C918093F97F11968C91119780833A
:1044F000869BFECF12962150304031962115310512
:1045000021F7CA011F9108951092FC7F1092F97F44
:104510003AEA3093558525E52093AA8290E8909356
:104520005585309355852093AA828093FC7F80E344
:1045300080930080869BFECF08951092FC7F10929E
:10454000F97F2AEA2093558595E59093AA8280E821
:1045500080935585209355859093AA8280E180931E
:104560005585869BFECF0895109296031092FC7F8E
:104570001092F97F80EF80935585869BFECF08953A
:10458000E82F80919603882361F481E0809396035D
:104590001092FC7F1092F97F88E980935580869B6A
:1045A000FECF0FB6F8940F92F0E0E050F048808113
:1045B0000F900FBE0895FB018093FC7F1092F87F4F
:1045C0000FB6F8940F92E050F04840812091FA7FA6
:1045D0000F900FBE942F80E030E0282B392BC901BB
:1045E00008951F934CEF5FE7FA011081A8EFBFE732
:1045F0009C9180831C92FB0160812091FA7F9C93A7
:10460000FA011083962F80E030E0282B392BC90166
:104610001F910895DC01CB019D014427552720936C
:10462000FC7F1092F87F0FB6F8940F92B695A7957D
:10463000979587959F7780509048FC014081209105
:10464000FA7F0F900FBE942F80E030E0282B392B9B
:10465000C9010895109296038F9A8E9880E482BBC8
:1046600097980000000000000000979A869BFECFFC
:104670001092FC7F08952F923F924F925F926F921B
:104680007F928F929F92AF92BF92CF92DF92EF92E2
:10469000FF920F931F93DF93CF930F92CDB7DEB7A7
:1046A0004A015B0162E70E944F61813011F081E0B5
:1046B00087C080E092E00E94AF768C01009721F4E1
:1046C0000E94335F82E07CC00E94B53780916D000C
:1046D000826080936D0085B7806485BF44244A94CE
:1046E000CC24DD247601C80160E072E00E944A60BB
:1046F0001C01C101AA2797FDA095BA2FC80ED91E8B
:10470000EA1EFB1EC701B6010E94A82980E02816F8
:1047100082E038061CF0E1E0E98305C012141304BE
:104720000CF040C019823801D501C4012FE0B695C4
:10473000A795979587952A95D1F7FFE75F2E582281
:10474000541419F0852D0E948422B4017F77A101B1
:104750004F5F5F4F55954795852D93010E945022DD
:10476000AC019C01220F331F2216330624F42224AD
:104770003324198202C0221A330ACA01AA2797FDDC
:10478000A095BA2F880E991EAA1EBB1E21143104B3
:1047900021F0620E731E452CC7CF452CF981F130F4
:1047A00009F4A1CF0E94335FC8010E94A9768091CD
:1047B0006D008D7F80936D0085B78F7B85BF80E016
:1047C0000F90CF91DF911F910F91FF90EF90DF90AD
:1047D000CF90BF90AF909F908F907F906F905F90A1
:1047E0004F903F902F900895FF920F931F93082FA3
:1047F000F62E90E0860F911D8138910514F081E02E
:1048000024C00E94B53780916D00826080936D0056
:1048100085B7806485BF602F70E080E090E00E94E3
:10482000A62410E0812F0E944B2A812F8F0D0E9419
:1048300084221F5F0117B0F780916D008D7F8093F8
:104840006D0085B78F7B85BF80E01F910F91FF9032
:104850000895F901A281B3818A179B07A8F42481E6
:1048600035816217730780F4840F911DA817B9076B
:1048700058F490E0625E7F4F2617370708F091E00A
:1048800081E09827892F089580E090E00895809135
:10489000F5070895982F8091E707981718F02FE1F2
:1048A00031E00AC02091ED073091EE0781E3989F37
:1048B000C0011124280F391FC90108951092E9077A
:1048C0001092E8071092DF0708958091F307909106
:1048D000F4070A969093F4078093F3078F3B9105B2
:1048E000D0F08FE090E09093F4078093F3078091ED
:1048F000DD079091DE078F5F9F4F39F487EF9DEBC7
:104900009093DE078093DD0708958FEF9FEF9093DC
:10491000DE078093DD0708958091DF07882319F073
:1049200081E090E008958091E8079091E907009771
:1049300011F081E090E008958091E8079091E907F7
:1049400020E0892B09F021E0822F08950F931F9317
:104950006093E0077093E1078093E2079093E30789
:104960008CE293E66AE070E048E750E026E331E04D
:104970000CE810E00E94DD081F910F9108950F933D
:104980001F938FEF9FEF6AE070E048E750E026E367
:1049900031E00CE810E00E94DD081F910F910895AE
:1049A000EF92FF920F931F937C014091EB07509180
:1049B000EC074F5F5F4F8091F5072DE0829FC001AC
:1049C0001124480F591F6091F1077091F2079B0164
:1049D0002B5F3F4F8A01085F1F4F82EB94E96F5FA7
:1049E0007F4F4C5F5F4F0E94DD088091F507970174
:1049F000280F311D8091DC0790E0281739071CF043
:104A000020E030E005C037FF03C09C01215030405A
:104A10002093F5074091EB075091EC074F5F5F4FF4
:104A20008DE0289FC0011124480F591F6091F107A4
:104A30007091F2079B012C5F3F4F8A01095F1F4F66
:104A400080E098EF6E5F7F4F4B5F5F4F0E94DD0805
:104A50001F910F91FF90EF900895CF92DF92EF9208
:104A6000FF920F931F93D82EC62E8091DF078730B9
:104A700009F044C0E090DD07F090DE070E942008B6
:104A80009C010091F3071091F407C70160E070E00A
:104A9000A801065F1F4F0E94DD0881E090E0609151
:104AA000F3070E942C0B8DB79EB70A970FB6F894A8
:104AB0009EBF0FBE8DBFEDB7FEB73196ADB7BEB787
:104AC00012961C921E9211978091DD079091DE073D
:104AD000938382838DE995E095838483D6821782C0
:104AE000C08611860E94F90B8DB79EB70A960FB645
:104AF000F8949EBF0FBE8DBF0E9465241F910F9139
:104B0000FF90EF90DF90CF9008954F925F926F9259
:104B10007F928F929F92AF92BF92CF92DF92EF924D
:104B2000FF920F931F93DF93CF93CDB7DEB72C97F0
:104B30000FB6F894DEBF0FBECDBF2B013C012D8315
:104B40003E834F835887E986FA860B871C879F8CA4
:104B5000D8A0B9A08091DF07873009F048C1E09064
:104B6000DD07F090DE0780912501909126019C835E
:104B70008B839A8389830E9420089C010091F3070C
:104B80001091F407C70160E070E0A801065F1F4FB5
:104B90000E94DD0881E090E06091F3070E942C0BF9
:104BA0008FEFD81639F5ADB7BEB718970FB6F89492
:104BB000BEBF0FBEADBFEDB7FEB7319612961C92C9
:104BC0001E9211978FE190E09383828388E296E0B2
:104BD00095838483882D90E0880F991F880F991FF3
:104BE00087539D4F978386830E94F90B8DB79EB79D
:104BF0000896F6C0DD2059F1ADB7BEB71C970FB6C9
:104C0000F894BEBF0FBEADBFEDB7FEB7319612969A
:104C10001C921E92119780E29DEF9383828386E01F
:104C200096E09583848383E0B89EC001112483506D
:104C30009D4F97838683882D90E0880F991F880F5A
:104C4000991F87539D4F91878087D286C3C0992033
:104C500009F094C0C7FE02C08DE28983A7FE02C09E
:104C60008DE28B83ADB7BEB792970FB6F894BEBFF7
:104C70000FBEADBFEDB7FEB7319612961C921E92D5
:104C800011978091DD079091DE07938382838FECEB
:104C900095E09583848383E0B89EC00111248350FE
:104CA0009D4F97838683882D90E0880F991F880FEA
:104CB000991F87539D4F91878087428653866486CC
:104CC0007586CE010196978786878C2D6AE00E94B3
:104CD000917E992787FD909597FF03C090958195C8
:104CE0009F4F918B808B8C2D6AE00E94917E892F43
:104CF000992787FD909597FF03C0909581959F4FC9
:104D0000938B828B8D819E81AF81B885848B958BAF
:104D1000A68BB78BCE010396918F808F8A2D6AE088
:104D20000E94917E992787FD909597FF03C09095EB
:104D300081959F4F938F828F8A2D6AE00E94917E8A
:104D4000892F992787FD909597FF03C090958195AE
:104D50009F4F958F848F89859A85AB85BC85868F7B
:104D6000978FA0A3B1A30E94F90BADB7BEB79296DF
:104D70000FB6F894BEBF0FBEADBF37C08DB79EB79C
:104D80000C970FB6F8949EBF0FBE8DBFEDB7FEB760
:104D90003196ADB7BEB712961C921E92119780E065
:104DA00098EF9383828386EB95E09583848383E0F9
:104DB000B89EC001112483509D4F97838683882D10
:104DC00090E0880F991F880F991F87539D4F9187F7
:104DD0008087928613860E94F90B8DB79EB70C963A
:104DE0000FB6F8949EBF0FBE8DBF0E9465242C960F
:104DF0000FB6F894DEBF0FBECDBFCF91DF911F91EC
:104E00000F91FF90EF90DF90CF90BF90AF909F9069
:104E10008F907F906F905F904F9008956F927F92E8
:104E20008F929F92AF92BF92CF92DF92EF92FF92BA
:104E30000F931F93DF93CF9300D0CDB7DEB75B0105
:104E40006C01942E822E602E7E2C8091DF0787309D
:104E500009F0BBC0E090DD07F090DE0780912501EE
:104E6000909126019A8389830E9420089C010091D9
:104E7000F3071091F407C70160E070E0A801065F36
:104E80001F4F0E94DD0881E090E06091F3070E94CF
:104E90002C0B7720C1F48DB79EB708970FB6F89406
:104EA0009EBF0FBE8DBFEDB7FEB73196ADB7BEB793
:104EB00012961C921E92119780E29DEF938382833B
:104EC0008CE896E06AC0662009F052C097FE02C0E6
:104ED0008DE28983ADB7BEB752970FB6F894BEBFC7
:104EE0000FBEADBFEDB7FEB7319612961C921E9263
:104EF00011978091DD079091DE07938382838CE682
:104F000096E095838483882D90E0880F991F880F01
:104F1000991F87539D4F97838683A086B186C2864B
:104F2000D386CE01019695878487892D6AE00E94F9
:104F3000917E992787FD909597FF03C09095819565
:104F40009F4F97878687892D6AE00E94917E892FDF
:104F5000992787FD909597FF03C0909581959F4F66
:104F6000918B808B0E94F90B8DB79EB7429626C01D
:104F7000ADB7BEB718970FB6F894BEBF0FBEADBFA2
:104F8000EDB7FEB7319612961C921E92119780E0F3
:104F900098EF9383828383E596E095838483882DBD
:104FA00090E0880F991F880F991F87539D4F978313
:104FB00086830E94F90B8DB79EB708960FB6F894BA
:104FC0009EBF0FBE8DBF0E9465240F900F90CF91A2
:104FD000DF911F910F91FF90EF90DF90CF90BF90E6
:104FE000AF909F908F907F906F900895EF92FF9277
:104FF0000F931F938091DF07873009F048C0E0903E
:10500000DD07F090DE070E9420089C010091F30765
:105010001091F407C70160E070E0A801065F1F4F20
:105020000E94DD0881E090E06091F3070E942C0B64
:105030008DB79EB70A970FB6F8949EBF0FBE8DBF6F
:10504000EDB7FEB73196ADB7BEB712961C921E9261
:1050500011978091DD079091DE079383828385EA23
:1050600096E09583848380911708868317828091C8
:105070001308808711860E94F90B8DB79EB70A9698
:105080000FB6F8949EBF0FBE8DBF0E9465241F917E
:105090000F91FF90EF9008954F925F926F927F92E1
:1050A0008F929F92AF92BF92CF92DF92EF92FF9238
:1050B0000F931F93DF93CF93CDB7DEB727970FB62C
:1050C000F894DEBF0FBECDBF4C018091DF07843066
:1050D00009F057C05401EE24FF24F1E0CF2ED12C6B
:1050E000E3E06E2E712C6C0E7D1E2E010894411C87
:1050F000511C2BC0F501828189831A82C30165ECA2
:1051000076E0A2010E9449766091F3077091F4075E
:105110000091DD071091DE07C601A30120E030E019
:105120000E943B0A6C01F1E0EF16F10421F083E0EC
:10513000E816F10421F4ECEFFFEFCE0EDF1E089429
:10514000E11CF11C0894A11CB11CF4018081992779
:1051500087FD9095E816F9066CF2E090DD07F09077
:10516000DE070E9420089C010091F3071091F407CC
:10517000C701B601A801065F1F4F0E94DD080E940B
:10518000652427960FB6F894DEBF0FBECDBFCF9132
:10519000DF911F910F91FF90EF90DF90CF90BF9024
:1051A000AF909F908F907F906F905F904F900895F9
:1051B000CF92DF92EF92FF920F931F93CF93DF93E3
:1051C000F901D8019093DB078093DA076093DC073D
:1051D0004093F5073093F2072093F1071093EC0703
:1051E0000093EB07F092F007E092EF07D092E6070A
:1051F000C092E507215030402E0D3F1D0150104058
:105200000C0D1D1D82EA90E1BF01AD010E94DD0879
:10521000C091EB07D091EC072196EE24FF2445C006
:105220006091F1077091F207AE014C5F5F4F9B01F7
:105230002B5F3F4F8E01085F1F4F82EB94E96F5F3A
:105240007F4F0E94DD088091F50790E0E816F9068F
:1052500099F46091F1077091F207AE014B5F5F4FD7
:105260009B012C5F3F4F8E01095F1F4F80E098EF3D
:105270006E5F7F4F0E94DD080091F1071091F207E9
:10528000085F1F4FE091DA07F091DB078E2D09953B
:10529000AC01C801BE012FEF3FEF02EB14E90E9401
:1052A0003B0A2D960894E11CF11C8091DC0790E0EC
:1052B000E816F9068CF48091E5079091E6072091B5
:1052C000EB073091EC07820F931F9E01225F3F4F47
:1052D0002817390708F4A4CFDF91CF911F910F91C0
:1052E000FF90EF90DF90CF9008950F931F938AE483
:1052F00091E09093E9078093E8078FEF95E00E9493
:10530000350B80E590E061E070E047E251E020E09D
:1053100038EF0FEF15E00E943B0A8AE491E0A0E02D
:10532000B0E08093E0079093E107A093E207B09389
:10533000E3078CE293E66AE070E048E750E026E39A
:1053400031E00CE810E00E94DD081F910F910895F4
:10535000AF92BF92CF92DF92EF92FF920F931F9383
:105360005B016C01E090E007F090E1070091E2073B
:105370001091E30722E231E040E050E00E94727EAB
:10538000A80197010E94C57E89019A01015F1F4F04
:1053900080EE9FEF6FE070E041E850E0980103E895
:1053A00010E00E94DD08C601B50120E038E240E0CF
:1053B00050E00E94C57E6115710581059105C1F51A
:1053C0008DB79EB70E970FB6F8949EBF0FBE8DBFD8
:1053D000EDB7FEB731968FE090E0ADB7BEB712964D
:1053E0009C938E93119783E690E09383828380E071
:1053F00098EF958384838FEF9FEF9783868389E966
:105400009AE091878087AAE0D694C794B794A7942E
:10541000AA95D1F7A286B386C486D5860E94D00B02
:105420008DB79EB70E960FB6F8949EBF0FBE8DBF78
:105430001F910F91FF90EF90DF90CF90BF90AF90B2
:1054400008958091E8079091E907892B19F18091DF
:10545000E8079091E90701979093E9078093E8079F
:105460008091E8079091E907892B69F02091E8077E
:105470003091E9076AE471E0621B730B80E090E011
:105480000E94A829089580E00E94E5351092DF0768
:105490000E94F63E0895FF920F931F93F82E2091DD
:1054A000E0073091E1074091E2075091E307682F50
:1054B00070E082E291E0DB01A89FB001A99F700D2E
:1054C000B89F700D112480E090E00E94C57E890194
:1054D0009A01015F1F4F80E098EF6FE070E041E8B4
:1054E00050E0980103E810E00E94DD08EDB7FEB738
:1054F0003C970FB6F894FEBF0FBEEDBF31968FE01C
:1055000090E0ADB7BEB712969C938E93119783E649
:1055100090E09383828380E098EF958384838FE18A
:1055200090E0978386838DEA9AE091878087F28660
:1055300013860E94D00BEDB7FEB73C960FB6F894D9
:10554000FEBF0FBEEDBF1F910F91FF9008952F92E8
:105550003F924F925F926F927F928F929F92AF9203
:10556000BF92CF92DF92EF92FF920F931F93DF9340
:10557000CF9300D000D0CDB7DEB73C017B01C42E65
:1055800029833A832C010894411C511C5B01089427
:10559000A11CB11CDD244601880E991E140108943B
:1055A00021083108CB014D969C838B8380E194E8E0
:1055B000B201A50191010B811C810E94DD0880E0F0
:1055C00090E0B301A701940185010E94DD088EE1FE
:1055D000A82EB12CAE0CBF1C80E090E0B301A70157
:1055E000920185010E94DD0880E090E0B101A701F1
:1055F00094010E94DD0880E090E0B3014B815C8162
:1056000094010E94DD08A981BA81FD01019000206A
:10561000E9F73197EA1BFB0B03E0EE0FFF1F0A953A
:10562000E1F7CE1ADF0AD694C794E8E0F0E0EE0E78
:10563000FF1EC601860D971DB701AD012FE130E0B9
:1056400000E114E80E943B0A0F900F900F900F901A
:10565000CF91DF911F910F91FF90EF90DF90CF904E
:10566000BF90AF909F908F907F906F905F904F9082
:105670003F902F9008950F931F9380EE9FEF0E940D
:10568000350B00D000D000D0EDB7FEB73196ADB7E6
:10569000BEB712961C921E92119700EE1FEF138355
:1056A000028387E897E0958384830E94F90BEDB726
:1056B000FEB73196ADB7BEB712961C921E921197E7
:1056C0001383028384E697E0958384830E94F90B19
:1056D000EDB7FEB73196ADB7BEB712961C921E92CB
:1056E00011971383028381E497E0958384830E945A
:1056F000F90B8DB79EB706960FB6F8949EBF0FBEF6
:105700008DBF84E090E060EA70E044E628E331E099
:105710000E94A72A86E390E06CEC70E044E62FE359
:1057200031E00E94A72A86ED90E06CEC70E044E640
:105730002AE431E00E94A72A89E08093DF071F91C5
:105740000F910895EF92FF920F931F93CF93DF93E2
:105750008091F50721E3829FC0011124E090ED07BD
:10576000F090EE07E80EF91E8FEF9FEF0E94350BC9
:1057700080E590E061E070E041E551E020E030E05C
:105780000FEF1FEF0E943B0A8AE090E06EE170E0AD
:105790004AE551E020E030E00E943B0A8AE090E0D8
:1057A0006DE270E0A70120E030E00E943B0A8DB777
:1057B0009EB70E970FB6F8949EBF0FBE8DBFEDB784
:1057C000FEB731968AE090E0ADB7BEB712969C93D3
:1057D0008E9311978CE390E09383828315821482D9
:1057E0008FEF9FEF9783868385E997E09187808786
:1057F000E7018DA59EA5AFA5B8A92AE0B695A79506
:10580000979587952A95D1F782879387A487B5873F
:105810000E94D00B8DB79EB70E960FB6F8949EBF20
:105820000FBE8DBFC7010E94F7388823B1F482E80C
:1058300090E06CE370E045E651E020E030E000EEFF
:1058400017E00E943B0A81E090E060E50E942C0B8B
:105850000E9466390E944E390CC082E890E06CE3E9
:1058600070E04EE651E020E030E000E018EF0E94EA
:105870003B0A8091ED079091EE070E94A9760E9465
:105880001C3886ED90E06CEC70E044E624E731E0F3
:105890000E94A72A83E08093DF07DF91CF911F91B9
:1058A0000F91FF90EF900895CF92DF92EF92FF92C9
:1058B0000F931F9382E08093DF078FEF9FEF0E948B
:1058C000350B8BE490E061E070E049E751E020E0C7
:1058D00030E00FEF1FEF0E943B0A1092E7078EE1C6
:1058E00090E060E570E042E951E020E030E00E94A5
:1058F0003B0A8EE190E06EE570E04EE951E020E079
:1059000030E00E943B0A0E949638892B49F48EE1D0
:1059100090E06CE670E042EB51E020E038EF13C01D
:105920008DEE97E00E942A38682F8093E70788233E
:1059300069F48EE190E06CE670E042ED51E020E029
:1059400038EF0FEF1FEF0E943B0A2BC08AE494E26E
:1059500040E02AE030E004E110E07CE2E72E71E074
:10596000F72E50EAC52ED12C0E94D82884E090E072
:105970006CEC70E04DE227EE31E00E94A72A8CE249
:1059800090E06CEC70E04DE22AEE31E00E94A72A34
:105990008DE690E06CEC70E044E621E531E00E9499
:1059A000A72A86ED90E06CEC70E044E624E731E055
:1059B0000E94A72A1F910F91FF90EF90DF90CF9048
:1059C00008950F931F938BE490E061E070E04FEE39
:1059D00051E02FEF3FEF00E018EF0E943B0A88E212
:1059E00090E06CEC70E044E62DEF31E00E94A72AD5
:1059F00085E08093DF071F910F9108950F931F9308
:105A00008FEF9FEF0E94350B8BE490E061E070E038
:105A100044E052E020E030E00FEF1FEF0E943B0A2D
:105A200088E290E06CEC70E044E625E132E00E9410
:105A3000A72A86ED90E06CEC70E044E624E731E0C4
:105A40000E94A72A8FE090E09093F4078093F307D9
:105A50008FEF9FEF9093DE078093DD0787E08093C1
:105A6000DF071F910F9108950F931F938FEF9FEF03
:105A70000E94350B8BE490E064E670E042E252E075
:105A800020E030E00FEF1FEF0E943B0A84E090E03F
:105A90006CEC70E044E624E332E00E94A72A8DE635
:105AA00090E06CEC70E044E62BE332E00E94A72A21
:105AB00086ED90E06CEC70E044E624E731E00E9473
:105AC000A72A86E08093DF071F910F9108950F9317
:105AD0001F938BE490E061E070E044E452E020E04A
