:100000000C9489060C94F3060C94F3060C94F306F6
:100010000C94F3060C94F3060C94F3060C94F3067C
:100020000C94F3060C94F3060C94FE4D0C94F3061A
:100030000C94F3060C94F3060C94F2730C948073F6
:100040000C94F3060C94F3060C94F3060C94F3064C
:100050000C94F3060C94F3060C94F3060C94F3063C
:100060000C94F3060C94F3060C94F3060C94F3062C
:100070000C94F3060C9418360C946C740C94DD7488
:100080000C94F3060C94F3060C94F306080000009D
:10009000BE922449123EABAAAA2ABECDCCCC4C3E7D
:1000A00000000080BEABAAAAAA3E00000000BF006C
:1000B0000000803F0000000000084178D3BB438768
:1000C000D1133D190E3CC3BD4282AD2B3E68EC827C
:1000D00076BED98FE1A93E4C80EFFFBE01C4FF7F01
:1000E0003F000000000007634236B79BD8A71A39CB
:1000F000685618AEBAAB558C1D3CB7CC5763BD6D76
:10010000EDFD753EF6177231BF000000803F496E6D
:100110006974204E414E4420466C617368004E75F0
:10012000742F4F53202573200000000000000000B2
:1001300000000000000000202020202020002000DF
:1001400000002850500000000000000000000028BF
:1001500028FC2850FC50500000002078A8A06030F7
:1001600028A8F02000000048A8B0502834544800C7
:1001700000000020505078A8A8906C00000040407B
:1001800080000000000000000000040810101010A3
:100190001010080400004020101010101010204013
:1001A0000000000020A87070A820000000000020BF
:1001B0002020F820202000000000000000000000A7
:1001C00000004040800000000000F8000000000037
:1001D00000000000000000000000400000000810C7
:1001E00010102020404040800000007088888888DF
:1001F00088887000000000206020202020207000EF
:1002000000000070888810204080F8000000007016
:1002100088083008088870000000001030505090A6
:1002200078101800000000F88080F008088870003E
:10023000000000709080F08888887000000000F84E
:1002400090102020202020000000007088887088F6
:1002500088887000000000708888887808487000DE
:10026000000000000020000000002000000000004E
:100270000000200000002020000004081020402082
:10028000100804000000000000F80000F800000062
:1002900000004020100804081020400000000070FA
:1002A0008888102020002000000000708898A8A8EE
:1002B000B880780000000020203050507848CC00F2
:1002C000000000F0484870484848F00000000078FE
:1002D0008880808080887000000000F0484848488E
:1002E0004848F000000000F8485070504048F800BE
:1002F000000000F8485070504040E0000000003816
:100300004880809C88483000000000CC48487848ED
:100310004848CC00000000F8202020202020F800D1
:100320000000007C10101010101090E0000000EC95
:10033000485060505048EC00000000E04040404011
:100340004044FC00000000D8D8D8D8A8A8A8A8002D
:10035000000000DC486868585848E8000000007059
:100360008888888888887000000000F048487040BD
:100370004040E0000000007088888888E898701885
:10038000000000F0484870504848EC000000007839
:10039000888060100888F000000000F8A820202065
:1003A00020207000000000CC4848484848483000F1
:1003B000000000CC4848505030202000000000A829
:1003C000A8A8705050505000000000D85050202075
:1003D0005050D800000000D850502020202070003D
:1003E000000000F8901020204048F800000038205D
:1003F00020202020202020380000404040202010D5
:100400001010080000007010101010101010107064
:10041000000020500000000000000000000000006C
:100420000000000000000000FC00200000000000B0
:1004300000000000000000000000304838483C0088
:10044000000000C0404070484848700000000000B4
:1004500000003848404038000000001808083848BC
:1004600048483C0000000000000030487840380058
:100470000000001C202078202020780000000000D0
:1004800000003C4830407844380000C0404070488C
:100490004848EC0000000020000060202020700090
:1004A000000000100000301010101010E00000C01C
:1004B00040405C507048EC00000000E0202020200C
:1004C0002020F800000000000000F0A8A8A8A80064
:1004D000000000000000F0484848EC000000000068
:1004E0000000304848483000000000000000F0489C
:1004F00048487040E000000000003848484838088C
:100500001C0000000000D8604040E0000000000037
:1005100000007840300878000000000020207020A3
:1005200020201800000000000000D84848483C0087
:10053000000000000000EC485030200000000000E7
:100540000000A8A870505000000000000000D85023
:100550002050D800000000000000EC48503020205F
:10056000C000000000007810202078000000181063
:100570001010201010101018001010101010101073
:10058000101010101000602020201020202020606B
:100590000040A41800000000000000000042746E3B
:1005A0003A202564202D3E20256420202020202074
:1005B000202020202000444854257320282573291A
:1005C0003A20626164204352432025782020004471
:1005D0004854257320282573293A205425352E3177
:1005E000662825732531752E253175292048253536
:1005F0002E31662825732531752E25317529204425
:1006000025352E316600444854257320282573294A
:100610003A206E6F20736C617665202D20657272B2
:100620006F722025642020004448543F3F20282535
:1006300073293A20556E737570706F7274656420FB
:1006400053656E736F722073656C656374656421A6
:1006500020200044533138323020282573293A2095
:1006600062616420435243202020200044533138EB
:10067000323020282573293A2025362E326620284C
:1006800025732531752E25317529200044533138C5
:10069000323020282573293A206E6F20736C6176E2
:1006A00065202020005243353A20413D25322E322C
:1006B0006420433D25322E3264202020202020203B
:1006C0002020202000252E325820004465766963C2
:1006D0006520646F65736EC2B47420737570706F3B
:1006E0007274205146492100466F756E6420505245
:1006F00049207461626C652056657273696F6E2063
:1007000025632E2563206174203078257800426CA3
:100710006F636B2045726173652054696D656F75F9
:1007200074202575206D73004275666665722057CA
:10073000726974652054696D656F75742025752024
:10074000757300564343204D61782025782E25751A
:100750005600564343204D696E2025782E25755648
:100760000053697A65202575206B627974650046AF
:100770006F756E642051464920496E666F2C207259
:10078000656164696E672E2E2E00616674657277EE
:100790006172647320746F20726573746F72652068
:1007A000612070726F6A6563742E202020202020E3
:1007B0002020202020202000596F75206E65656460
:1007C00020746F2072656C6F616420612070726F9D
:1007D0006A6563742066726F6D2074686520534487
:1007E0002D6361726400546869732077696C6C20B2
:1007F0007769706520796F75722070726F6A6563B2
:100800007420464C415348206D656D6F72792120EC
:1008100020202000202020202020232323232323E6
:10082000232320205720412052204E2049204E20B3
:100830004720202323232323232323202020202079
:10084000200053697A653A202575206B62797465BA
:1008500000536F6D657468696E672077656E7420EC
:1008600077726F6E67210053756363657373667586
:100870006C6C792065726173656420466C61736885
:10088000210045726173696E6720464C4153482EC2
:100890002E2E00514649204845582044756D703A27
:1008A00000466F756E6420505249207461626C6519
:1008B0002056657273696F6E2025632E2563206153
:1008C0007420307825780041726520796F75207327
:1008D00075726520746F207265626F6F7420746822
:1008E000652073797374656D3F00416C6C206F6295
:1008F0006A6563742076616C7565732077696C6CCA
:1009000020626520636C65617265642E00526562C9
:100910006F6F742053797374656D004F4F5053217E
:1009200020466C61736820636F6E74656E74206E10
:100930006F742076616C6964203A2D2800466F75CB
:100940006E64202523782062757420657870656355
:1009500074656420252378004F4F50532120437540
:100960007272656E742070726F6A6563742076654A
:100970007273696F6E206E6F7420737570706F7212
:100980007465642100466F756E64204D616769630C
:100990003A20252378202523782025237800466CCB
:1009A00061736820656D7074792C20706C6561735B
:1009B00065206C6F616420612070726F6A6563747A
:1009C0002100522D436F64652025752C2020205274
:1009D00065736F6C7574696F6E202575207820259E
:1009E000750054465420436F6E74726F6C6C657260
:1009F0003D2025642C205230303D25342E347800A3
:100A0000454942206F66666C696E65004549422023
:100A10006F6E6C696E6500546F756368206D6972E6
:100A2000726F722028782F79293A2025642F256447
:100A3000003138300039302072696768740039300D
:100A4000206C65667400486F72697A6F6E74616CB1
:100A500000506879732E20416464722025642E252D
:100A6000642E25640052454C45415345206275690A
:100A70006C64004275696C64202573202573004600
:100A800069726D77617265205625642E2564004E6B
:100A900075742F4F5320257320004C6F6164696E6D
:100AA000672E2E2E202575206B62797465005365A4
:100AB00063746F7220257520657261736564002E02
:100AC0006C636462002E6C636462006F6B0066612D
:100AD000696C6564004D6F756E74696E6720534470
:100AE000204361726400756E6B6E6F776E2074794F
:100AF0007065202564006D6F7665206379636C698D
:100B00006320656C656D656E7420646573637269DE
:100B10007074696F6E2072657475726E65643A20C8
:100B20002564006D6F7665206C697374656E206551
:100B30006C656D656E742064657363726970746949
:100B40006F6E2072657475726E65643A202564005C
:100B50006D6F766520706167652064657363726987
:100B60007074696F6E2072657475726E65643A2078
:100B70002564006D6F76652061646472657373200F
:100B80007461626C652072657475726E65643A207A
:100B9000256400747970653A2025642061742028EA
:100BA00025782920257800546F756368206D697257
:100BB000726F722028782F79293A2025642F2564B6
:100BC00000253032752E253032752E3230253032E8
:100BD0007500253032753A2530327500252A6C644F
:100BE00000252A6C7500252A6400252A7500252019
:100BF0002A2E2A660025202A2E2A6600252A2E2A39
:100C00006400252A2E2A6400696E6600494E46005B
:100C10006E616E004E414E0000407A10F35A00A003
:100C2000724E18090010A5D4E80000E876481700B5
:100C300000E40B54020000CA9A3B000000E1F505F5
:100C4000000080969800000040420F000000A0863F
:100C500001000000102700000000E8030000000071
:100C60006400000000000A00000000000100000015
:100C700000002C76D888DC674F0823DFC1DFAE592F
:100C8000E1B1B796E5E3E453C63AE651997696E8C2
:100C9000E6C28426EB898C9B62ED407C6FFCEFBC46
:100CA0009C9F40F2BAA56FA5F490055A2AF75C9371
:100CB0006B6CF9676DC11BFCE0E40D47FEF520E6A7
:100CC000B500D0ED902E0300943577050080841E8A
:100CD000080000204E0A000000C80C333333330FE5
:100CE000986E12831141EF8D2114893BE65516CF82
:100CF000FEE6DB18D1844B381BF77C1D901DA4BB8E
:100D0000E424203284725E228100C9F124ECA1E542
:100D10003D2780EC85BF85E388BB8FE387BB88EEEA
:100D200082BB80EB81BB8EE083B982E082B980EF29
:100D3000809362008FE0809361008FE18093650073
:100D400087E080936400479A1092710080E280935C
:100D50007000599AEBE9F0E080818260808387E639
:100D600089B98093990011241FBECFEFD0E1DEBF77
:100D7000CDBF13E0A0E0B1E0EAE3F5E001E00BBF96
:100D800002C007900D92A239B107D9F71DE0A2E980
:100D9000B3E001C01D92A938B107E1F78FEF9FE3DF
:100DA0009EBF8DBF8FEF9FE389589D408158914032
:100DB00050F04FEF5EE349585D4080E69DE069E802
:100DC0007DE00E942B6A0E94D07189E093E06EE37F
:100DD00079E640E050E020E831E00E9440720E9455
:100DE00000000C949B820C9400000F931F930E94B0
:100DF0007B378091620088608093620080916100FF
:100E000088608093610080916C00806880936C00A2
:100E100080916D00817C80936D0080916D00806475
:100E200080936D0085B78F7B85BF0E94640E0E9402
:100E3000FA712DB73EB7285030400FB6F8943EBF38
:100E40000FBE2DBFEDB7FEB73196ADB7BEB7129648
:100E50001C921E9211970FEF1FEF138302832EE156
:100E600031E035832483978386830E94F90B0F90AA
:100E70000F90EDB7FEB7319680EE97E0ADB7BEB7F5
:100E800012969C938E931197138302838EE091E0C8
:100E9000958384830E94F90B2DB73EB72A5F3F4F9D
:100EA0000FB6F8943EBF0FBE2DBF0E943C230E9498
:100EB00028390E942C200E9412360E94FA3A0E9481
:100EC0003C0C0E946D2480910504843019F40E942A
:100ED000672B03C080E00E944C3E8AEF0E94826C28
:100EE0006EE170E080E090E00E94FA6E0E94AB1C20
:100EF0000E94471D0E943D2B0E94314A0E94914B47
:100F00000E941A3DEDCFE82FF0E0E051F0488081DB
:100F10000895E62FF0E0E051F04880830895809333
:100F2000F07F08958093F17F08958091F17F089577
:100F30009093F97F8093F17F08952091F17F409104
:100F4000FA7F942F80E030E0282B392BC9010895D7
:100F5000E1E6F0E0808182608083E2E6F0E080817B
:100F60008D7F80830895E1E6F0E080818260808358
:100F7000E2E6F0E08081826080830895882321F09A
:100F80008091FF0383BD089513BC08958093F07F83
:100F90007093F97F6093F17F08958093F07F2091A3
:100FA000F17F4091FA7F942F80E030E0282B392B9D
:100FB000C90108958093F07F8091F17F0895FC012D
:100FC000A091FD03B091FE03109779F18091530435
:100FD000909154048E179F0720F4E0915304F091F0
:100FE000540480915304909154048417950720F47D
:100FF000409153045091540480914B0490914C04BF
:101000008617970720F460914B0470914C048091EF
:101010004B0490914C048217930720F420914B04C9
:1010200030914C04CF01FD010995089570E0382FEF
:1010300020E0622B732B7093F97F6093F17F08950A
:101040002091530430915404C901089520914B0418
:1010500030914C04C90108956F927F928F929F92B4
:10106000AF92BF92CF92DF92EF92FF920F931F93B6
:10107000682EA42E70E0882777FD8095982F0E9417
:101080009C7B20E030E04FE753E40E94017B20E0AE
:1010900030E04CE752E40E94D17C0E946E7B7B01E1
:1010A0008C01FF248FE3E822FF2485E0EE0CFF1C77
:1010B0008A95E1F7BB24CC24B7FCC094DC2CC60194
:1010C000B5010E949C7B20E030E04FE753E40E9492
:1010D000017B20E030E048EF51E40E94D17C0E9487
:1010E0006E7B70E06F717070E62AF72A772488248F
:1010F00077FC8094982CC401B3010E949C7B20E073
:1011000030E04FE753E40E94017B20E030E048EFFD
:1011100051E40E94D17C0E946E7B362F330F330F37
:10112000330F20E0E22AF32AC7011F910F91FF90AD
:10113000EF90DF90CF90BF90AF909F908F907F9077
:101140006F900895CF92DF92EF92FF920F931F93CB
:101150006C0180910504882349F10091530410919A
:101160005404E0904B04F0904C0480E090E060E088
:1011700070E0A80197010E94DF07D092F97F20E07C
:1011800030E0B8016F5F7F4FA7014F5F5F4F08C02E
:10119000C092F17F019684179507D0F32F5F3F4FE0
:1011A0002617370718F480E090E0F5CF1F910F91D4
:1011B000FF90EF90DF90CF900895AF92BF92CF92C3
:1011C000DF92EF92FF920F931F93CF93DF93A82E9E
:1011D000D92EB62EC72EF42EE52EE90180910504F6
:1011E0008823F9F0862F972F642F752FA901980176
:1011F0000E94DF07D092F97F8F2D9E2D9C01A901BF
:101200000DC08B2D9C2D9C0104C0A092F17F2F5FFF
:101210003F4FC217D307C8F74F5F5F4F041715073B
:1012200080F7DF91CF911F910F91FF90EF90DF90AA
:10123000CF90BF90AF9008954F925F926F927F9240
:101240008F929F92AF92BF92CF92DF92EF92FF92D6
:101250000F931F93DF93CF930F92CDB7DEB72C017F
:101260004B013A01590180910504882309F489C092
:10127000C2010E94DF0781E08093F87FFFEFCF2E4D
:10128000FFE7DF2ECE20DF2080E090E8C80ED91ED9
:10129000EFE016950795F794E794EA95D1F71E2DA0
:1012A0001F771093FC7F21E030E0B90168197909BC
:1012B0006A0D7B1D80E090E024193509260D371D4D
:1012C00040E050E00E94597E9B01AC01C601822B98
:1012D000932B80FD11C050C0D6018D916D01898383
:1012E000109731F41F5F1093FC7FC12C70E8D72E4C
:1012F00021503040404050402115310541055105F5
:1013000059F73FC0DA01C901B695A795979587951A
:101310008F3FEFEF9E07E0E0AE07E0E0BE0738F05A
:101320002E5F3F4F414050406FEF7FEF22C0BC0126
:10133000A0E0B0E0281B390B4A0B5B0B281B390BD4
:101340004A0B5B0B16C0F60181918983D601119679
:101350008C9189836F010894C11CD11CC114D104E4
:1013600031F41F5F1093FC7FC12C90E8D92E61509F
:1013700070406115710539F7211531054105510599
:1013800009F60F90CF91DF911F910F91FF90EF9091
:10139000DF90CF90BF90AF909F908F907F906F9095
:1013A0005F904F9008950F931F93FC018B0160E1B4
:1013B00077E20E94997E605DD8016C93CF0168EE60
:1013C00073E00E94997E462F405DCF0160EF78ED7B
:1013D0000E94997ECB019B01A3E0220F331FAA95A7
:1013E000E1F7880F991F280F391F420FD801119676
:1013F0004C93CF0164E670E00E94997E462F405DD9
:10140000CF0168E17CEF0E94997ECB019B0163E0F4
:10141000220F331F6A95E1F7880F991F280F391F94
:10142000420FD80112964C93CF016AE070E00E94FF
:10143000997E462F405DCF016CE97FEF0E94997E37
:10144000CB019B01B3E0220F331FBA95E1F7880F60
:10145000991F280F391F420FD80113964C93CF01C3
:101460006AE070E00E94997E805DF80184831582B5
:101470001F910F9108953F924F925F926F927F92CA
:101480008F929F92AF92BF92CF92DF92EF92FF9294
:101490000F931F93CF93DF935B016A0129013801FA
:1014A000EC011BE0812E912C860E971EBCE03B2E9A
:1014B00051C080910504882309F448C0AE01495FFA
:1014C0005F4FCE01B50194010E94DF071052139DBA
:1014D000C00111247C010027F7FC0095102F20E0AB
:1014E00030E040E050E089E291E0A0E08E0D9F1DE9
:1014F000A01FB11F820F931FA41FB51FABBFFC011C
:10150000879167E070E0E82FF0E0CF01062E02C07F
:10151000959587950A94E2F780FF05C05092F97F70
:101520004092F17F04C07092F97F6092F17F615028
:1015300070408FEF6F3F780741F72F5F3F4F4F4F5E
:101540005F4F2C3031054105510569F62796089407
:10155000C11CD11CF6011081112309F0AACFCE01C4
:10156000DF91CF911F910F91FF90EF90DF90CF907F
:10157000BF90AF909F908F907F906F905F904F90B3
:101580003F900895919A909A1D9A089590E087FF50
:1015900002C01D9A01C01D98909800000000000034
:1015A000909A0000000000009F5F983011F0880FB3
:1015B000EECF089520E030E080E0220F331F909AB4
:1015C00000000000000090980000000000000C9B4C
:1015D00002C02F5F3F4F8F5F8C3079F7C9010895AC
:1015E000919880E90E94C60A909A90980E94DA0A1F
:1015F000909359048093580480ED0E94C60A909AF3
:1016000090980E94DA0A90930B0480930A04919AAE
:1016100008958091FF0383BD10924A0410924904FB
:1016200008958091490490914A0425E08C3D9207E9
:1016300041F48091DF07843071F08091000483BD14
:1016400008958C5D954038F48091DF07843019F05F
:101650008091FF0383BD089590930704809306044F
:1016600060935D0410925E04089521E030E03093B1
:1016700007042093060430935E0420935D040E94C7
:10168000A2080895EF92FF920F931F93DF93CF93D9
:10169000CDB7DEB79E01215F3F4F8DE094E06D85B1
:1016A0007E85A9010E94EE75F82EE92E60915D04F9
:1016B00070915E0480910604909107044DE054E01F
:1016C00029853A850B851C850E943B0A9093070467
:1016D000809306042091530430915404281739074D
:1016E00030F481E090E090930704809306048091A9
:1016F0005D0490915E04893C910530F081E090E0BA
:1017000090935E0480935D048F2D9E2DCF91DF9189
:101710001F910F91FF90EF900895EF92FF920F931A
:101720001F93DF93CF93CDB7DEB79E01215F3F4F6D
:101730008DE094E06D857E85A9010E94EE75F82EFE
:10174000E92E60915D0470915E0480910604909191
:1017500007044DE054E029853A850B851C850E94DD
:101760003B0A21E030E03093070420930604809187
:101770005D0490915E040C9690935E0480935D04EA
:10178000893C910520F030935E0420935D048F2DF9
:101790009E2DCF91DF911F910F91FF90EF900895B3
:1017A000EF92FF920F931F93DF93CF93CDB7DEB7E6
:1017B0009E012D5E3F4F0DE014E0C80169897A89D2
:1017C000A9010E943076F82EE92E89859A856B85CD
:1017D0007C85A8012D853E850F8518890E943B0ACE
:1017E0008F2D9E2DCF91DF911F910F91FF90EF9044
:1017F0000895EF92FF920F931F93DF93CF93CDB78E
:10180000DEB79E01215F3F4F8DE094E06D857E85C0
:10181000A9010E943076F82EE92E60915D04709146
:101820005E0480910604909107044DE054E0298500
:101830003A850B851C850E943B0A21E030E03093FD
:1018400007042093060480915D0490915E040C9639
:1018500090935E0480935D04893C910520F0309361
:101860005E0420935D048F2D9E2DCF91DF911F91FB
:101870000F91FF90EF90089581E090E0909307041E
:101880008093060490935E0480935D0480E091E071
:1018900061E57CE040E050E020E032E00E944072F0
:1018A000089584E60E94826C6CE271E080E090E032
:1018B0000E94FA6E02C00E94F00A0E9BFCCF1092AA
:1018C0005C0410924E0410924D0410924A0410923F
:1018D00049041092090410925B0410925A04E3E048
:1018E0002E2E71E0472E512C65E0662E712C54E0AF
:1018F000852E912C48E0A42EB12C3324339433E070
:10190000C32ED12C26E0E22EF12C02E010E0C7E03D
:10191000D0E064E170E080E090E00E94FA6E0E9901
:10192000A4C00E94F00A8091FF0383BD10924A0474
:1019300010924904E0915F04F09160040995809150
:1019400001049091020497FF05C0109202041092C6
:10195000010413C0209101043091020480914B04D2
:1019600090914C048217930744F480914B0490911A
:101970004C04909302048093010480910C0488230A
:1019800071F080914B0490914C04209101043091AE
:101990000204821B930B9093020480930104209114
:1019A000620430916304809153049091540482172F
:1019B000930744F4809153049091540490936304EA
:1019C0008093620480916204909163049093500428
:1019D00080934F04809101049091020490935204EB
:1019E0008093510480915C048823A1F170924E048D
:1019F00060924D0420915A0430915B042F5F3F4F59
:101A000030935B0420935A0480910904882349F49D
:101A10002031310548F030920904D0924E04C09232
:101A20004D042132310531F02234310519F02336CD
:101A3000310521F4B0924E04A0924D0424363105B4
:101A400069F410925B0410925A0490924E048092B2
:101A50004D0404C050924E0440924D048DE494E035
:101A60000E944C2E20925C0454CF80915C04882309
:101A700021F1815080935C048823F9F4809109045A
:101A8000882329F0D0934E04C0934D0404C01093D2
:101A90004E0400934D048DE494E00E944C2EF0928D
:101AA0004E04E0924D048DE494E00E944C2E10927E
:101AB000090410925B0410925A0480914904909199
:101AC0004A0425E08C3D920708F023CF2091DF07E0
:101AD000243009F41ECF273009F41BCF01969093D0
:101AE0004A04809349048C5D954009F012CF80919F
:101AF000000483BD0ECFBF92CF92DF92EF92FF9290
:101B00000F931F93DF93CF9300D000D00F92CDB7E8
:101B1000DEB70E949B37809355041092050412E0B3
:101B2000B12EB3E0CB2EA1EADA2EEE24E394F4E05A
:101B3000FF2E7CC080916100826080936100809163
:101B4000620082608093620086E00E944A6D80910C
:101B50006100826080936100809162008D7F80933C
:101B600062008AE00E944A6D8091610082608093E9
:101B700061008091620082608093620084E10E9433
:101B80004A6D1092F07F8091F17F2091FA7F122FA1
:101B900000E090E0802B912B909304048093030449
:101BA0008091030490910404892B61F584E60E94DE
:101BB0004A6DD092F07F8AE00E944A6D8091F17F59
:101BC00089838091F17F8A838091F17F8B838091DB
:101BD000F17F8C838091F17F8D838981813079F4CD
:101BE0008A81873561F48B81813649F48C8181301B
:101BF00031F48D818F3F19F4F092050417C0E09203
:101C0000050414C080910304909104048552934903
:101C100019F4C09205040AC0809103049091040451
:101C200080708050994811F4B092050480910504A9
:101C3000882309F47FCF80910504813019F40E9434
:101C4000A10E30C080910504833019F40E949710D2
:101C500029C0809105048430F9F4809155048230C4
:101C600091F0833028F4882341F08130D9F408C002
:101C7000833061F08430B1F40CC00E94321712C07E
:101C80000E94A9180FC00E9447140CC00E941D1A80
:101C900009C00E94BE1506C080910504823011F46F
:101CA0000E94101282E28093F07F0F900F900F90AD
:101CB0000F900F90CF91DF911F910F91FF90EF90B8
:101CC000DF90CF90BF90089513BC80E887BB8CE66F
:101CD00085BD1092FE031092FD03109260041092D5
:101CE0005F041092570410925604889A899A159AA4
:101CF0000E94C20A0E947B0D8FEF9FEF0E94A208F4
:101D00008091FF0383BD089580910A0490910B0494
:101D1000885C90406FE070E00E94997E70930204AE
:101D20006093010480915804909159048E5591401C
:101D30006BE070E00E94997E70936304609362048C
:101D4000089584E89EE09093600480935F0481E0AE
:101D500090E19093FE038093FD038FE391E09093D5
:101D60005404809353048FEE90E090934C0480933E
:101D70004B0486E464EA70E00E94C60787E463E5EA
:101D800070E00E94C60788E460E070E00E94C60729
:101D900089E464E470E00E94C6078AE464E070E0CD
:101DA0000E94C6078BE467E670E00E94C6078CE4D9
:101DB00063E370E00E94C6078DE467E770E00E946D
:101DC000C6078EE462E170E00E94C6078FE46CE40F
:101DD00070E00E94C60780E566E470E00E94C607D6
:101DE00081E564E470E00E94C60782E060E070E094
:101DF0000E94C60783E060E070E00E94C60784E0AE
:101E000060E070E00E94C60785E06FEE70E00E941F
:101E1000C60786E060E070E00E94C60787E060E0E9
:101E200070E00E94C60788E061E070E00E94C6078B
:101E300089E06FE370E00E94C60781E066E070E031
:101E40000E94C60786E168E670E00E94C60783E24A
:101E500065E970E00E94C60784E265E970E00E94CF
:101E6000C60785E26FEF70E00E94C60787E262E076
:101E700070E00E94C60788E262E070E00E94C60738
:101E800089E262E070E00E94C6078AE262E070E0E8
:101E90000E94C6078CE262E070E00E94C6078DE2F5
:101EA00062E070E00E94C6078AE361E070E00E9491
:101EB000C6078BE360E070E00E94C6078CE360EF2A
:101EC00070E00E94C6078DE360E070E00E94C607E4
:101ED00082E00E944A6D85E368E370E00E94C607D5
:101EE00086E368E770E00E94C6078EE368E370E06F
:101EF0000E94C60780E46FE070E00E94C60781E49C
:101F000060EF70E00E94C60789E169E470E00E941A
:101F1000C60783E96FE070E00E94C60782E00E9476
:101F20004A6D80E260E470E00E94C6078DE167E0E0
:101F300070E00E94C6078EE160E070E00E94C60774
:101F40008FE164E070E00E94C60784E46DE470E015
:101F50000E94C60785E46EE070E00E94C60782E03A
:101F60000E944A6D8CE164E070E00E94C60783E045
:101F70000E944A6D8BE168E170E00E94C60782E032
:101F80000E944A6D8BE160E170E00E94C60782E02A
:101F90000E944A6D83E460E870E00E94C60783E017
:101FA0000E944A6D80E96FE770E00E94C60786E2F2
:101FB00064E070E00E94C60782E00E944A6D86E2FB
:101FC00064E270E00E94C60786E26CE270E00E9464
:101FD000C60782E00E944A6D86E26CE370E00E94D0
:101FE000C60787E562E070E00E94C60785E961E008
:101FF00070E00E94C60787E560E070E00E94C607B7
:102000000895AF92BF92CF92DF92EF92FF920F931B
:102010001F93F82E192FB62ED72EE42E052FA22EA1
:10202000C32E82E0692F70E00E94C60783E06F2D07
:10203000712F0E94C60784E0602F70E00E94C607DF
:1020400085E06E2D702F0E94C60786E06D2D70E032
:102050000E94C60787E06B2D7D2D0E94C60788E091
:102060006C2D70E00E94C60789E06A2D7C2D0E94CD
:10207000C60782E20E948F071F910F91FF90EF9099
:10208000DF90CF90BF90AF90089580910A04909117
:102090000B04885C90406FE070E00E94997E709322
:1020A00002046093010480910804882389F58091DB
:1020B0005804909159048C579140DCF020915804B9
:1020C0003091590486E49FE0821B930B6BE070E033
:1020D0000E94997E7093630460936204809162040D
:1020E0009091630497FF22C01092630410926204DF
:1020F00008958091580490915904875891406BE05D
:1021000070E00E94997E7093630460936204089566
:1021100080915804909159048E5591406BE070E085
:102120000E94997E7093630460936204089585E42D
:1021300090E19093600480935F0482ED91E190932D
:10214000FE038093FD038FE391E09093540480930A
:1021500053048FEE90E090934C0480934B0483EEF5
:1021600068E070E30E94C60787EE62E170E00E94BB
:10217000C6078FEE61E372E10E94C60780E061E06E
:1021800070E00E94C60782E30E944A6D81E060E031
:1021900070E00E94C60782E060E077E00E94C60718
:1021A00083E068E370E10E94C60784E060E070E0CD
:1021B0000E94C60788E062E072E00E94C60789E0DC
:1021C00060E070E00E94C6078AE060E070E00E9474
:1021D000C6078CE060E070E00E94C6078DE060E01A
:1021E00070E00E94C6078FE060E070E00E94C607C2
:1021F00080E160E070E00E94C60781E167E070E086
:102200000E94C60782E160E070E00E94C60783E199
:1022100060E070E00E94C60788EC0E944A6D80E191
:1022200060E976E10E94C60781E167E272E00E9400
:10223000C60782E30E944A6D82E16AE170E00E9473
:10224000C60782E30E944A6D83E160E078E10E9464
:10225000C60789E26AE270E00E94C60782E30E9434
:102260004A6D80E260E070E00E94C60781E260E0B3
:1022700070E00E94C60780E367E070E00E94C60736
:1022800081E365E076E00E94C60782E366E071E0E4
:102290000E94C60785E366E072E00E94C60786E3F7
:1022A00068E078E00E94C60787E367E070E00E947C
:1022B000C60788E361E072E00E94C60789E367E031
:1022C00070E00E94C6078CE362E076E00E94C607D9
:1022D0008DE368E078E00E94C60780E560E070E08A
:1022E0000E94C60781E56FEE70E00E94C60782E596
:1022F00060E070E00E94C60783E56FE371E00E9432
:10230000C60780E660E077EA0E94C60781E661E0E2
:1023100070E00E94C6078AE660E070E00E94C6078F
:1023200080E860E070E00E94C60781E860E070E04D
:102330000E94C60782E860E070E00E94C60783E85A
:1023400060E070E00E94C60784E860E070E00E94F0
:10235000C60785E860E070E00E94C60780E960E19A
:1023600070E00E94C60782E960E070E00E94C60744
:1023700083E963E070E00E94C60785E960E171E0EF
:102380000E94C60787E960E070E00E94C60788E9FE
:1023900060E070E00E94C60787E063E371E00E949E
:1023A000C6070895AF92BF92CF92DF92EF92FF924D
:1023B0000F931F937C016B018A01590182E5B701DC
:1023C0000E94C60783E5B8010E94C60781E2B701F3
:1023D0000E94C60780E5B6010E94C60781E5B501E7
:1023E0000E94C60780E2B6010E94C60782E20E94F0
:1023F0008F071F910F91FF90EF90DF90CF90BF90CC
:10240000AF90089580936104882321F081E06FE309
:102410007BE603C081E06FE379E20E94C60708957E
:1024200081E793E19093600480935F0483ED93E1EF
:102430009093FE038093FD0382E092E19093570412
:10244000809356048FE391E0909354048093530457
:102450008FEE90E090934C0480934B0480E061E019
:1024600070E00E94C60782E00E944A6D83E064EA41
:1024700078EA0E94C60782E00E944A6D8CE060E024
:1024800070E00E94C60782E00E944A6D8DE06CE019
:1024900078E00E94C60782E00E944A6D8EE060E00C
:1024A0007BE20E94C60782E00E944A6D8EE160EBEB
:1024B00070E00E94C60782E00E944A6D81E06FE3EF
:1024C00079E20E94C60782E00E944A6D82E060E0E5
:1024D00076E00E94C60782E00E944A6D80E160E0DB
:1024E00070E00E94C60782E00E944A6D81E168E7C1
:1024F00070E60E94C60782E00E944A6D85E060E0B7
:1025000070E00E94C60782E00E944A6D86E060E0AB
:1025100070E00E94C60782E00E944A6D86E16CE18D
:102520007FEE0E94C60782E00E944A6D87E163E069
:1025300070E00E94C60782E00E944A6D87E063E374
:1025400072E00E94C60782E00E944A6D8BE060E064
:1025500070E00E94C60782E00E944A6D8FE060E052
:1025600070E00E94C60782E00E944A6D81E460E04C
:1025700070E00E94C60782E00E944A6D82E460E03B
:1025800070E00E94C60782E00E944A6D88E460E025
:1025900070E00E94C60782E00E944A6D89E46FE302
:1025A00071E00E94C60782E00E944A6D8AE460E002
:1025B00070E00E94C60782E00E944A6D8BE460E0F2
:1025C00070E00E94C60782E00E944A6D84E460E0E9
:1025D0007FEE0E94C60782E00E944A6D85E460E0BB
:1025E00070E00E94C60782E00E944A6D86E46FE3B5
:1025F00071E00E94C60782E00E944A6D80E367E0B6
:1026000077E00E94C60782E00E944A6D81E364E0A1
:1026100072E00E94C60782E00E944A6D82E364E095
:1026200072E00E94C60782E00E944A6D83E362E086
:1026300075E00E94C60782E00E944A6D84E367E06D
:1026400075E00E94C60782E00E944A6D85E364E05F
:1026500072E00E94C60782E00E944A6D86E364E051
:1026600072E00E94C60782E00E944A6D87E362E042
:1026700075E00E94C60782E00E944A6D8AE362E02C
:1026800073E00E94C60782E00E944A6D8BE362E01D
:1026900073E00E94C60782E00E944A6D83E260E018
:1026A00070E00E94C60782E00E944A6D84E260E00A
:1026B00070E00E94C60782E00E944A6D85E260E0F9
:1026C00070E80E94C60782E00E944A6D8FE460E0D5
:1026D00070E00E94C6078EE460E070E00E94C607CA
:1026E000089580910A0490910B04885C90406FE0FB
:1026F00070E00E94997E70930204609301048091BF
:102700006104882361F00E94260820910104309121
:102710000204821B930B9093020480930104809126
:102720006104882389F180915804909159048C5751
:102730009140DCF0209158043091590486E49FE0E8
:10274000821B930B6BE070E00E94997E7093630490
:1027500060936204809162049091630497FF22C0A9
:10276000109263041092620408958091580490912D
:102770005904875891406BE070E00E94997E7093F5
:102780006304609362040895809158049091590401
:102790008E5591406BE070E00E94997E70936304C7
:1027A000609362040895CF92DF92EF92FF920F93AD
:1027B0001F936C018B017A01722F60E0600F711F13
:1027C00084E40E94C60785E4B6010E94C60786E439
:1027D000B7010E94C6078EE4B8010E94C6078FE4C5
:1027E000B6010E94C60782E20E948F071F910F91D7
:1027F000FF90EF90DF90CF9008951F93182F809354
:10280000610486E30E948F07112311F080E001C06C
:1028100083E00E9492071F910895AF92BF92CF92DA
:10282000DF92EF92FF920F931F93F82E192FB62E7F
:10283000D72EE42E052FA22EC32E8AE20E948F07E8
:10284000812F0E9492078F2D0E949207802F0E9455
:1028500092078E2D0E9492078BE20E948F078D2D8A
:102860000E9492078B2D0E9492078C2D0E94920746
:102870008A2D0E9492078CE20E948F071F910F9170
:10288000FF90EF90DF90CF90BF90AF9008950F939F
:102890001F9389E195E19093600480935F048DE03C
:1028A00094E19093FE038093FD038DEF93E1909369
:1028B0005704809356048FED91E0909354048093D5
:1028C00053048FE091E090934C0480934B040DE609
:1028D00010E0F80180818C60808382EE0E948F0777
:1028E00083E20E94920782E00E94920784E00E94A5
:1028F000920780EE0E948F0781E00E94920781E09C
:102900000E944A6D80EE0E948F0783E00E9492072A
:1029100085E00E944A6D81E00E948F0785E00E9459
:102920004A6DF8018081837F808386EE0E948F0745
:1029300081E00E94920783E30E94920782E30E9453
:10294000920780EB0E948F0780E20E94920780E04E
:102950000E94920781E00E9492078FED0E949207E9
:1029600081E00E9492078FE00E94920780E00E941F
:10297000920785E00E944A6D84EB0E948F0782E0F7
:102980000E94920783E10E94920780E00E949207D2
:102990008BE20E9492078AE00E94920780E00E94E8
:1029A000920788E00E94920780E00E94920786EBDF
:1029B0000E948F0781E00E94920780E20E949207A6
:1029C00080E00E9492078CE00E9492078AE00E94B9
:1029D000920780E00E94920784E00E9492078AEBAF
:1029E0000E948F0780E00E94920788EB0E948F0769
:1029F00080E00E94920781E00E94920786E30E9495
:102A00008F0783E00E94920780EF0E948F0783E088
:102A10000E94920785E00E944A6D89E20E948F071A
:102A200080ED0E948F078DE00E9492071F910F9109
:102A3000089560915804709159046E5A7140882726
:102A400077FD8095982F0E949C7B26E636E646E32C
:102A500051E40E94017B0E94697B709302046093A1
:102A6000010480916104882361F00E94260820916E
:102A7000010430910204821B930B90930204809313
:102A8000010460910A0470910B046A5F704088270A
:102A900077FD8095982F0E949C7B23E333E343EFDF
:102AA00050E40E94017B0E94697B709363046093F1
:102AB000620480916104882361F00E9420082091C3
:102AC000620430916304821B930B909363048093A0
:102AD0006204809162049091630497FF04C0109295
:102AE00063041092620408951F93182F8093610469
:102AF00086E30E948F07112311F080E001C083E07C
:102B00000E9492071F910895AF92BF92CF92DF92D9
:102B1000EF92FF920F931F93F82E192FB62ED72EF8
:102B2000E42E052FA22EC32E8AE20E948F07812F4A
:102B30000E9492078F2D0E949207802F0E94920779
:102B40008E2D0E9492078BE20E948F078D2D0E948E
:102B500092078B2D0E9492078C2D0E9492078A2D3E
:102B60000E9492078CE20E948F071F910F91FF90A5
:102B7000EF90DF90CF90BF90AF9008950F931F9389
:102B80008DE896E19093600480935F0484E895E17A
:102B90009093FE038093FD0384E795E1909357049F
:102BA000809356048FED91E09093540480935304E6
:102BB0008FE091E090934C0480934B040DE610E07D
:102BC000F80180818C60808382EE0E948F0783E20F
:102BD0000E94920782E00E94920784E00E9492077E
:102BE00080EE0E948F0781E00E94920781E00E94A0
:102BF0004A6D80EE0E948F0783E00E94920785E075
:102C00000E944A6D81E00E948F0785E00E944A6D14
:102C1000F8018081837F808386EE0E948F0783E0A6
:102C20000E94920783E30E94920782E30E94920728
:102C300080EB0E948F0780E00E94920780E00E9454
:102C4000920781E00E9492078FED0E94920781E037
:102C50000E9492078FE00E9492078DE20E949207E5
:102C600084EB0E948F0782E00E94920783E10E941A
:102C7000920780E00E9492078BE20E94920781E017
:102C80000E94920780E00E94920788E00E949207CB
:102C900080E00E94920786EB0E948F0781E00E94ED
:102CA000920780E20E94920780E00E9492078CE0E7
:102CB0000E9492078AE00E94920780E00E94920799
:102CC00084E00E9492078AEB0E948F078FE00E94A7
:102CD000920788EB0E948F0787E00E94920781E0AD
:102CE0000E94920786E30E948F0783E00E9492076A
:102CF00080EF0E948F0783E00E94920785E00E9488
:102D00004A6D89E20E948F0780ED0E948F078DE057
:102D10000E9492071F910F91089560910A0470918B
:102D20000B0464557140882777FD8095982F0E9489
:102D30009C7B2DEC3CEC44E451E40E94017B0E941E
:102D4000697B70930204609301048091610488237D
:102D500061F00E9426082091010430910204821B38
:102D6000930B909302048093010460915804709136
:102D700059046A5A7040882777FD8095982F0E94E1
:102D80009C7B26E636E646EF50E40E94017B0E94DB
:102D9000697B70936304609362048091610488236B
:102DA00061F00E9420082091620430916304821B2C
:102DB000930B9093630480936204809162049091DA
:102DC000630497FF04C01092630410926204089594
:102DD0001F93182F8093610486E30E948F071123AD
:102DE00011F080E001C083E00E9492071F910895D6
:102DF000AF92BF92CF92DF92EF92FF920F931F9309
:102E0000F82E192FB62ED72EE42E052FA22EC32E64
:102E10008AE20E948F07812F0E9492078F2D0E94C5
:102E20009207802F0E9492078E2D0E9492078BE2BC
:102E30000E948F078D2D0E9492078B2D0E94920772
:102E40008C2D0E9492078A2D0E9492078CE20E948C
:102E50008F071F910F91FF90EF90DF90CF90BF9061
:102E6000AF9008950F931F9384E098E190936004CE
:102E700080935F0488EF96E19093FE038093FD03B7
:102E800088EE96E190935704809356048FE193E087
:102E900090935404809353048FED91E090934C04ED
:102EA00080934B040DE610E0F80180818C608083F4
:102EB00082EE0E948F0783E20E94920782E00E94C6
:102EC000920784E00E94920780EE0E948F0781E0C3
:102ED0000E94920781E00E944A6D80EE0E948F0757
:102EE00083E00E94920785E00E944A6D81E00E9483
:102EF0008F0785E00E944A6DF8018081837F80837F
:102F000086EE0E948F0784E00E94920786E60E9468
:102F1000920785E60E94920780EB0E948F0787E266
:102F20000E94920780E00E94920783E00E9492072D
:102F30008FE10E94920781E00E9492078FED0E942C
:102F4000920780E00E94920785E00E944A6D84EB20
:102F50000E948F0784E00E9492078AE10E949207F4
:102F600080E00E9492078EE20E94920780E30E9416
:102F7000920780E00E9492078FE00E94920780E013
:102F80000E94920786EB0E948F0782E00E949207C0
:102F90008DE00E94920780E00E94920780E10E94EB
:102FA000920780E10E94920780E00E94920788E0E9
:102FB0000E9492078AEB0E948F0780E00E9492078E
:102FC00088EB0E948F0780E00E94920781E00E94B8
:102FD000920786E30E948F0783E00E94920780EFAA
:102FE0000E948F0783E00E9492078AE00E944A6D48
:102FF00089E20E948F0780ED0E948F078DE00E947A
:1030000092071F910F91089560915804709159048F
:10301000685C7040882777FD8095982F0E949C7B84
:103020002AE939E949EE50E40E94017B0E94697B5C
:10303000709302046093010480916104882361F01D
:103040000E9426082091010430910204821B930BF8
:10305000909302048093010460910A0470910B0420
:103060006C5D7040882777FD8095982F0E949C7B2F
:1030700023E333E343E950E40E94017B0E94697B30
:10308000709363046093620480916104882361F407
:103090000E9420082091620430916304821B930BEC
:1030A000909363048093620480916204909163041E
:1030B00097FF04C0109263041092620408951F9356
:1030C000182F8093610486E30E948F07112311F06B
:1030D00080E001C083E00E9492071F910895AF92A3
:1030E000BF92CF92DF92EF92FF920F931F93F82E31
:1030F000192FB62ED72EE42E052FA22EC32E8AE22C
:103100000E948F07812F0E9492078F2D0E949207A5
:10311000802F0E9492078E2D0E9492078BE20E94C0
:103120008F078D2D0E9492078B2D0E9492078C2D68
:103130000E9492078A2D0E9492078CE20E948F07BC
:103140001F910F91FF90EF90DF90CF90BF90AF90C5
:1031500008950F931F9388E799E1909360048093FB
:103160005F048FE698E19093FE038093FD038FE563
:1031700098E190935704809356048FE193E09093E5
:103180005404809353048FED91E090934C0480930A
:103190004B040DE610E0F80180818C60808382EEA4
:1031A0000E948F0783E20E94920782E00E949207AA
:1031B00084E00E94920780EE0E948F0781E00E94C7
:1031C000920781E00E944A6D80EE0E948F0783E0A3
:1031D0000E94920785E00E944A6D81E00E948F075D
:1031E00085E00E944A6DF8018081837F808386EEAE
:1031F0000E948F0783E00E9492078FEF0E94920740
:103200008FEF0E94920780EB0E948F0787E20E9457
:10321000920780E00E94920783E00E9492078FE16C
:103220000E94920781E00E9492078FED0E94920710
:1032300080E00E94920784EB0E948F0783E00E9447
:10324000920780EA0E94920780E00E9492078EE235
:103250000E94920780E30E94920780E00E949207FA
:103260008FE00E94920780E00E94920786EB0E9406
:103270008F0782E00E9492078DE00E94920780E013
:103280000E94920780E10E94920780E10E949207CB
:1032900080E00E94920788E00E9492078AEB0E94D9
:1032A0008F078FE00E94920788EB0E948F0787E0CC
:1032B0000E94920781E00E94920786E30E948F0796
:1032C00083E00E94920780EF0E948F0783E00E94B4
:1032D000920785E00E944A6D89E20E948F0780ED87
:1032E0000E948F078DE00E9492071F910F91089511
:1032F00060915804709159046E5B7040882777FD87
:103300008095982F0E949C7B20E030E040EF50E4B5
:103310000E94017B0E94697B709302046093010408
:1033200080916104882361F40E94260820910104A1
:1033300030910204821B930B90930204809301044A
:1033400060910A0470910B046C5D7040882777FDD2
:103350008095982F0E949C7B23E333E343E950E45C
:103360000E94017B0E94697B7093630460936204F6
:1033700080916104882361F40E94200820916204F6
:1033800030916304821B930B9093630480936204D7
:10339000809162049091630497FF04C010926304CB
:1033A0001092620408951F93182F8093610486E39E
:1033B0000E948F07112311F080E001C083E00E947A
:1033C00092071F910895AF92BF92CF92DF92EF9232
:1033D000FF920F931F93F82E192FB62ED72EE42E9F
:1033E000052FA22EC32E8AE20E948F07812F0E94F2
:1033F00092078F2D0E949207802F0E9492078E2D98
:103400000E9492078BE20E948F078D2D0E949207E7
:103410008B2D0E9492078C2D0E9492078A2D0E946C
:1034200092078CE20E948F071F910F91FF90EF90FF
:10343000DF90CF90BF90AF9008950F931F938FEEC2
:103440009AE19093600480935F0483EE99E19093F6
:10345000FE038093FD0383ED99E1909357048093DD
:1034600056048FE193E090935404809353048FEDBE
:1034700091E090934C0480934B040DE610E0F8012A
:1034800080818C60808382EE0E948F0783E20E949D
:10349000920782E00E94920784E00E94920780EEE9
:1034A0000E948F0781E00E94920781E00E944A6D8E
:1034B00080EE0E948F0783E00E94920785E00E94C1
:1034C0004A6D81E00E948F0785E00E944A6DF801F5
:1034D0008081837F808386EE0E948F0784E00E9434
:1034E000920786E60E94920785E60E94920780EB8B
:1034F0000E948F0780E00E94920780E00E9492075E
:1035000083E00E9492078FE10E94920781E00E946F
:1035100092078FED0E94920780E00E94920785E05B
:103520000E944A6D84EB0E948F0784E00E949207FC
:103530008AE10E94920780E00E9492078EE20E9438
:10354000920784E10E94920780E00E94920782ED38
:103550000E94920780E00E94920786EB0E948F07EC
:1035600082E00E9492078DE00E94920780E00E9414
:10357000920787E10E9492078AE00E94920780E00A
:103580000E94920786E10E9492078AEB0E948F07B1
:1035900085E00E94920788EB0E948F0787E00E94D7
:1035A000920781E00E94920786E30E948F0783E0E2
:1035B0000E94920780EF0E948F0783E00E9492078B
:1035C00085E00E944A6D89E20E948F0780ED0E948B
:1035D0008F078DE00E9492071F910F9108956091CF
:1035E00058047091590468567140882777FD80957A
:1035F000982F0E949C7B26E636E646EE50E40E9419
:10360000017B0E94697B70930204609301048091A6
:103610006104882361F40E942608209101043091FE
:103620000204821B930B9093020480930104609127
:103630000A0470910B0462587040882777FD8095CA
:10364000982F0E949C7B26E636E646E950E40E94CD
:10365000017B0E94697B7093630460936204809194
:103660006104882361F40E94200820916204309153
:103670006304821B930B9093630480936204809194
:1036800062049091630497FF04C010926304109247
:1036900062040895482F2091A4073091A50789E17D
:1036A00090E0289FD001299FB00D389FB00D1124C4
:1036B000A959BB4F8C91873114F080E00895E82F11
:1036C000FF27E7FDF095EA0FFB1F42838F5F8C9386
:1036D0008091F90584278093F90581E00895809110
:1036E0000606882339F080919B0780939C001092F6
:1036F0000606089580919D07882329F080939C00F9
:1037000010929D07089580919C07882329F080934B
:103710009C0010929C0708958091F7059091F80500
:103720008130910521F0029709F05FC039C04091C6
:103730000206509103062091FA053091FB0589E1BC
:1037400090E0489FD001499FB00D589FB00D1124C3
:10375000A55FB94FFD01E20FF31F928190939B0784
:1037600081E0809306068091660489278093660431
:10377000822F806880939C002F5F3F4F3093FB0522
:103780002093FA058C91992787FD909582179307CE
:1037900089F582E090E09093F8058093F70508950D
:1037A00080916604809580939B0781E08093060654
:1037B0008091FA05806480939C0083E090E0909370
:1037C000F8058093F7051092A0078091020690916A
:1037D000030601969093030680930206409754F0E7
:1037E0001092030610920206089580919A008F7D30
:1037F00080939A000895823010F080E00895E82FB9
:10380000F0E0EE0FFF1FE450FA4F7183608381E018
:103810000895823018F0E0E0F0E009C0E82FF0E011
:10382000EE0FFF1FE450FA4F0190F081E02DCF0121
:1038300008950FB6F8940F92209104063091050672
:103840008091020690910306281739070CF4205F37
:10385000281B0F900FBE80E0283008F481E0089507
:10386000EF92FF920F931F93849B25C0109208063E
:103870001092070680919A008F7D80939A00809124
:103880009A008F7780939A0010929A0087B78B7F67
:1038900087BF1EBC10929F0710929E0783E090E0A6
:1038A0009093F8058093F7051092A3071092A00754
:1038B000109206064BC08091070690910806892B4E
:1038C00009F044C010929C0710929B0088E18093FD
:1038D0009A0086E280939D0080919D0086FF06C03D
:1038E000E12CFBE4FF2E012D112D11C080919B00D6
:1038F00081FD07C0E12CE8E5FE2EE2E00E2F112D40
:1039000006C0E12C7CE2F72E71E0072F112D0E94FA
:10391000EB6DA80197010E94AC7E2F5F3F4F4F4F88
:103920005F4F569547953795279521503040209306
:1039300099003093980081E090E09093080680937E
:10394000070680919A00806880939A001F910F91DA
:10395000FF90EF9008950E94301C8091070690918F
:10396000080608959C018130910509F477C08130E3
:10397000910548F08230910509F472C083309105B9
:1039800009F083C07AC095988D9A1092090610921A
:103990000A061092A30710920606109208061092CB
:1039A00007060E94EB6D0E949A7B20E030E040E128
:1039B00050E40E94D17C20E030E04AE754EC0E94C1
:1039C000017B20E03FEF4FE757E40E94997A0E9485
:1039D0006E7B7093A2076093A1070E94EB6D0E941B
:1039E0009A7B20E030E04AE754EC0E94017B20E023
:1039F0003FEF4FE757E40E94997A0E946E7B7093E5
:103A00000106609300068DE393E063E97EE141E007
:103A100050E00E94127587E393E063E97EE142E0A3
:103A200050E00E94127583E493E06FE67BE140E092
:103A300050E00E94127586E091E06BE17EE140E08B
:103A400050E020E032E00E94407210929D071092F8
:103A50009F0710929E078D9A959A17C081E00EC01D
:103A600085E080939D0780919A00806280939A0000
:103A7000309308062093070608C082E080939D07D4
:103A800080919A00806280939A0080E008958091EE
:103A9000F7059091F805039779F48091A0078F5F5F
:103AA0008093A007853040F01092F8051092F7053A
:103AB00082E993E00E94F4700895AC0120916404BF
:103AC000309165048091A4079091A5078217930710
:103AD00011F480E0089589E190E0289FF001299F8A
:103AE000F00D389FF00D1124E959FB4F2081332749
:103AF00027FD30952E5F3F4FCA01BF01A9010E94EB
:103B0000B2800FB6F8940F9280916404909165048E
:103B100001969093650480936404409724F010927A
:103B20006504109264040F900FBE81E00895CF9356
:103B3000DF93EC0108C084E993E040E050E060E0EE
:103B400070E00E944971CE010E945D1D882399F3A7
:103B5000DF91CF910895EF92FF920F93CF93DF9370
:103B60007C01062F6230B8F440910406509105069E
:103B7000EA012196C031D10514F0C0E0D0E00FB6C3
:103B8000F8940F928091020690910306C817D90706
:103B900021F40F900FBE80E048C00F900FBED701F8
:103BA000EC91E83114F08FEF40C089E190E0489F3C
:103BB0009001499F300D589F300D1124235F394FDC
:103BC000FF27E7FDF095A7014E5F5F4FC901BA01DE
:103BD000AF010E94B2808091040690910506E02F0B
:103BE000F0E0EE0FFF1FE450FA4F20813181A9E190
:103BF000B0E08A9FF0018B9FF00D9A9FF00D112489
:103C0000E55FF94F23833483D7018C9180830FB60E
:103C1000F8940F92D0930506C09304060F900FBE40
:103C200082E993E00E94F47081E0DF91CF910F91DF
:103C3000FF90EF9008958CE30E94826C82E993E0FC
:103C400040E050E060E070E00E944971409107065A
:103C5000509108064130510589F78091F705909100
:103C6000F805892B59F720910206309103068091BF
:103C70000406909105062817390701F31092FB05F9
:103C80001092FA0510926604109206065093F805F9
:103C90004093F70580919A00806280939A00CECF7E
:103CA00080910706909108060197D9F52091A40705
:103CB0003091A50789E190E0289FF001299FF00D40
:103CC000389FF00D1124E959FB4F948180E0238146
:103CD00030E0282B392B558146816091FC0570918D
:103CE000FD0526173707E9F0A091FE05B091FF0505
:103CF0002A173B07B1F0942F80E0452F50E0482B66
:103D0000592B878187FF04C0CA010E94242008958F
:103D10004617570721F080E04A175B0719F481E046
:103D2000089580E008959C018130910531F46091FF
:103D30009B006C7170919C0006C087B78B7F87BF1A
:103D40001EBC70E060E01092A00740919E07509169
:103D50009F074430510568F44230510508F061C0B6
:103D60004115510509F4C1C04130510509F04BC15D
:103D700005C04430510509F046C134C02130310539
:103D800071F58091A1079091A2079DBD8CBD66231E
:103D900029F4872F0E944A1B882339F484E090E09D
:103DA00090939F0780939E0708952091A4073091D8
:103DB000A50789E190E0289FF001299FF00D389F29
:103DC000F00D1124E959FB4F8081863009F023C1A1
:103DD0000E94501E882309F41EC181E1F1C082E0D7
:103DE00090E00CC02130310539F48091A107909109
:103DF000A2079DBD8CBD089583E090E090939F073E
:103E000080939E0780910006909101069DBD8CBD18
:103E100081E08EBD86B7846086BF87B7846087BF28
:103E200008952130310561F5662381F42091A407BE
:103E30003091A50789E190E0289FF001299FF00DBE
:103E4000389FF00D1124E959FB4F71831092F8054A
:103E50001092F705E0919203F0919303309739F4B3
:103E60008FEF9FEF909393038093920309C08FEF9E
:103E7000EF3FF80729F0848195810196958384832B
:103E80008091F9058F3F41F54230510529F5809128
:103E9000A4079091A50701969093A5078093A40786
:103EA000409724F01092A5071092A407E091940384
:103EB000F0919503309739F48FEF9FEF909395032E
:103EC0008093940309C08FEFEF3FF80729F08481B6
:103ED000958101969583848387B78B7F87BF1EBCAE
:103EE00010929F0710929E0708952230310509F421
:103EF00092C0662309F08FC0733039F581E080935A
:103F0000090681E090E090930806809307061092DE
:103F100006061092F8051092F705E0919203F091D1
:103F20009303309739F48FEF9FEF9093930380932F
:103F3000920308958FEFEF3FF80709F46CC0848176
:103F400095810196958384830895272F30E0C901D8
:103F500087709070079731F470930A0681E0809320
:103F6000A3070895237130702031310509F053C043
:103F70008091A1079091A2079DBD8CBD81E08EBD6F
:103F800086B7846086BF87B7846087BF4091A407E7
:103F90005091A5079A012F5F3F4F2031310514F052
:103FA00020E030E08091640490916504281739077F
:103FB00079F484E090E090939F0780939E0783E1DB
:103FC00080939C0780919A00806280939A00089564
:103FD00081E090E090939F0780939E0789E190E0B5
:103FE000489FF001499FF00D589FF00D1124E959A9
:103FF000FB4F1182108210929C071092F905872FB7
:104000000E944A1B089510929F0710929E0787B73F
:104010008B7F87BF1EBC08958036910511F08FEF0E
:10402000089580E008951092D7071092D60708955A
:1040300008958091D00782958F700895877082953A
:10404000807F8093D00708950E94BF42892F80957A
:10405000881F8827881F08951092D7071092D607C7
:104060008DE091E061E570E240E050E020E032E078
:104070000E94407286E191E06AE172E240E050E025
:1040800020E032E00E94407280E090E00E94B21C8A
:104090000E94103980E68093D00708950E94971DF2
:1040A0000895DF93CF93CDB7DEB769970FB6F89435
:1040B000DEBF0FBECDBF82E30E94826C43E0E42EE0
:1040C000F12CEC0EFD1ECE010A969E01255F3F4F9E
:1040D0006E010894C11CD11C4C015901C6010E94FB
:1040E000971DC6010E945B28888587FF2DC0F701B8
:1040F0000381148145814F7041509681278144236B
:1041000011F0B50105C0822F8F73F7018783B401C9
:10411000892F90E083709070880F991F880F991FE6
:104120002295269526952370282BC8010E94D25EE1
:104130008823A1F2C8010E94B44AC8010E942E3D02
:10414000C8010E94B44ACACF80E00E94091CC6CFB1
:104150000E945D1D0895FC01329625813091D007A3
:10416000232B258360E00E94AB1D08951F93DF93EE
:10417000CF93CDB7DEB769970FB6F894DEBF0FBE09
:10418000CDBFFB01142FDE0113962CEB2B8314966D
:104190009C938E931397842F8F5F8F7080681596F2
:1041A0008C93159716961C92169780E817968C9309
:1041B0001797442341F09E01255F3F4FC90150E00E
:1041C0000E94B28005C080818F73806817968C939F
:1041D000185F1983CE0101960E94AB2069960FB635
:1041E000F894DEBF0FBECDBFCF91DF911F91089530
:1041F000DF93CF93CDB7DEB769970FB6F894DEBFE4
:104200000FBECDBF682F80EB8B838091D1078E834B
:104210008091D4078F8318862091D907621751F0B7
:10422000462F50E0CA0101978F70907030E08217DE
:10423000930751F4862F90E08F709070880F991F2C
:10424000880F991F826C08C04F705070440F551F23
:10425000440F551F842F836C898787E08983CE01A3
:1042600001960E94AB2069960FB6F894DEBF0FBE90
:10427000CDBFCF91DF910895DF93CF93CDB7DEB758
:1042800069970FB6F894DEBF0FBECDBF90EB9B834E
:104290008E836F83188681E8898787E08983CE01C2
:1042A00001960E94AB2069960FB6F894DEBF0FBE50
:1042B000CDBFCF91DF9108950F93CF93DF93982FC8
:1042C000FA01022F222311F480E029C0C8EAD7E0C6
:1042D00080EB8093A8079093AB076093AC07822F85
:1042E00081508F708093AD079091D307990F990FEC
:1042F00090648081892B80839E012A5F3F4FC90192
:10430000BA01402F50E00E94B2800A5F0093A607D6
:104310008CE38093D207CE0102970E94AB20DF91FD
:10432000CF910F910895AC01262F1092D5078EE101
:104330008093CF078CE38093D20782E090E0909344
:10434000D7078093D6078091D1076091D4070E9448
:104350005C210895FC01808590E083709070782F37
:104360006627818590E0682B792B23E06030720707
:1043700079F483E08093BF0780E48093C0071092B4
:10438000C10782E18093C2078FEB97E064E02FC002
:10439000CB01807F8050924069F56F70928580E0FC
:1043A000238530E0282B392B82E08093BF07862FAE
:1043B00080648093C00782858093C1078385809342
:1043C000C207E3ECF7E0862F90E08E0F9F1F09C035
:1043D0002036310511F440E001C04FEF41932F5FCB
:1043E0003F4FE817F907A1F76C5F8FEB97E00E944A
:1043F00093210895CB01807C80589140D1F432857F
:10440000832F90E09695982F88279795879521E0A0
:104410002093BF07262F206C2093C0073093C1073D
:104420009093C2078093C3078FEB97E065E00E94EB
:104430009321089587E30E94826C0EE11CE364E6F9
:1044400070E080E090E00E94FA6E8091D607909133
:10445000D707892BA1F38091CF078823F9F08150EA
:104460008093CF078823D1F48091D507853060F4FD
:104470008F5F8093D5070093CF071093D20786EA0A
:1044800097E00E94AB200AC08091D1076091D407C9
:104490000E943C211092D7071092D6078091D20734
:1044A000882369F281508093D207882341F6809156
:1044B000D1076091D4070E943C211092D707109237
:1044C000D607BDCF1F93182FD901CA01860F971F9A
:1044D0008150904820F040E050E8461B570BFB010C
:1044E000E050F0489A017AEA65E590EA19C0109226
:1044F000FC7F1092F97F709355856093AA82909308
:1045000055851093FC7F8C918093F97F11968C9147
:1045100011978083869BFECF1296215030403196B2
:104520002115310521F7CA011F9108951092FC7FD2
:104530001092F97F3AEA3093558525E52093AA82B7
:1045400090E890935585309355852093AA82809367
:10455000FC7F80E380930080869BFECF08951092BD
:10456000FC7F1092F97F2AEA2093558595E5909378
:10457000AA8280E880935585209355859093AA82DE
:1045800080E180935585869BFECF08951092960317
:104590001092FC7F1092F97F80EF80935585869B67
:1045A000FECF0895E82F80919603882361F481E07F
:1045B000809396031092FC7F1092F97F88E9809394
:1045C0005580869BFECF0FB6F8940F92F0E0E05036
:1045D000F04880810F900FBE0895FB018093FC7F0F
:1045E0001092F87F0FB6F8940F92E050F048408197
:1045F0002091FA7F0F900FBE942F80E030E0282B9F
:10460000392BC90108951F934CEF5FE7FA01108120
:10461000A8EFBFE79C9180831C92FB0160812091F1
:10462000FA7F9C93FA011083962F80E030E0282BCC
:10463000392BC9011F910895DC01CB019D0144274D
:1046400055272093FC7F1092F87F0FB6F8940F92B5
:10465000B695A795979587959F7780509048FC01D0
:1046600040812091FA7F0F900FBE942F80E030E0C0
:10467000282B392BC9010895109296038F9A8E9892
:1046800080E482BB97980000000000000000979A29
:10469000869BFECF1092FC7F08952F923F924F92FF
:1046A0005F926F927F928F929F92AF92BF92CF92C2
:1046B000DF92EF92FF920F931F93DF93CF930F92AE
:1046C000CDB7DEB74A015B0162E70E9436618130F7
:1046D00011F081E087C080E092E00E9496768C0124
:1046E000009721F40E941A5F82E07CC00E94773715
:1046F00080916D00826080936D0085B7806485BF76
:1047000044244A94CC24DD247601C80160E072E0A0
:104710000E9431601C01C101AA2797FDA095BA2F04
:10472000C80ED91EEA1EFB1EC701B6010E94682AE8
:1047300080E0281682E038061CF0E1E0E98305C03D
:10474000121413040CF040C019823801D501C401C1
:104750002FE0B695A795979587952A95D1F7FFE70E
:104760005F2E5822541419F0852D0E949622B40110
:104770007F77A1014F5F5F4F55954795852D930139
:104780000E946222AC019C01220F331F22163306C5
:1047900024F422243324198202C0221A330ACA01C3
:1047A000AA2797FDA095BA2F880E991EAA1EBB1E98
:1047B0002114310421F0620E731E452CC7CF452C05
:1047C000F981F13009F4A1CF0E941A5FC8010E945B
:1047D000907680916D008D7F80936D0085B78F7B83
:1047E00085BF80E00F90CF91DF911F910F91FF90D7
:1047F000EF90DF90CF90BF90AF909F908F907F9081
:104800006F905F904F903F902F900895FF920F937D
:104810001F93082FF62E90E0860F911D8138910589
:1048200014F081E024C00E94773780916D0082608F
:1048300080936D0085B7806485BF602F70E080E055
:1048400090E00E94122510E0812F0E94E12A812F22
:104850008F0D0E9496221F5F0117B0F780916D00A7
:104860008D7F80936D0085B78F7B85BF80E01F9122
:104870000F91FF900895F901A281B3818A179B07D8
:10488000A8F4248135816217730780F4840F911D89
:10489000A817B90758F490E0625E7F4F26173707D4
:1048A00008F091E081E09827892F089580E090E05A
:1048B0000895982F8091E707981718F02FE131E0BD
:1048C0000AC02091ED073091EE0781E3989FC00167
:1048D0001124280F391FC90108951092E907109279
:1048E000E8071092DF0708958091F3079091F4078D
:1048F0000A969093F4078093F3078F3B9105D0F0CD
:104900008FE090E09093F4078093F3078091DD07A8
:104910009091DE078F5F9F4F39F487EF9DEB909367
:10492000DE078093DD0708958FEF9FEF9093DE07FA
:104930008093DD0708958091DF07882319F081E0D7
:1049400090E008958091E8079091E907009711F0B1
:1049500081E090E008958091E8079091E90720E0D8
:10496000892B09F021E0822F0895EF92FF920F9397
:104970001F937C014091EB075091EC074F5F5F4F15
:104980008091F5072DE0829FC0011124480F591F27
:104990006091F1077091F2079B012B5F3F4F8A01F5
:1049A000085F1F4F82EB94E96F5F7F4F4C5F5F4F53
:1049B0000E94DD088091F5079701280F311D809135
:1049C000DC0790E0281739071CF020E030E005C034
:1049D00037FF03C09C01215030402093F5074091E0
:1049E000EB075091EC074F5F5F4F8DE0289FC001B0
:1049F0001124480F591F6091F1077091F2079B0134
:104A00002C5F3F4F8A01095F1F4F80E098EF6E5F78
:104A10007F4F4B5F5F4F0E94DD081F910F91FF900A
:104A2000EF9008950F931F936093E0077093E10751
:104A30008093E2079093E3078CE293E66AE070E0EC
:104A400048E750E026E331E00CE810E00E94DD0882
:104A50001F910F9108950F931F938FEF9FEF6AE0BF
:104A600070E048E750E026E331E00CE810E00E94F7
:104A7000DD081F910F910895CF92DF92EF92FF9280
:104A80000F931F93D82EC62E8091DF07873009F031
:104A900044C0E090DD07F090DE070E9420089C01F2
:104AA0000091F3071091F407C70160E070E0A801DE
:104AB000065F1F4F0E94DD0881E090E06091F307E0
:104AC0000E942C0B8DB79EB70A970FB6F8949EBF25
:104AD0000FBE8DBFEDB7FEB73196ADB7BEB712961C
:104AE0001C921E9211978091DD079091DE079383AF
:104AF00082838DE995E095838483D6821782C08670
:104B000011860E94F90B8DB79EB70A960FB6F894DE
:104B10009EBF0FBE8DBF0E9474241F910F91FF9006
:104B2000EF90DF90CF9008954F925F926F927F92B7
:104B30008F929F92AF92BF92CF92DF92EF92FF92AD
:104B40000F931F93DF93CF93CDB7DEB72C970FB69C
:104B5000F894DEBF0FBECDBF2B013C012D833E83F9
:104B60004F835887E986FA860B871C879F8CD8A0CD
:104B7000B9A08091DF07873009F048C1E090DD07D8
:104B8000F090DE0780912501909126019C838B8314
:104B90009A8389830E9420089C010091F307109159
:104BA000F407C70160E070E0A801065F1F4F0E9494
:104BB000DD0881E090E06091F3070E942C0B8FEFFD
:104BC000D81639F5ADB7BEB718970FB6F894BEBF73
:104BD0000FBEADBFEDB7FEB7319612961C921E9276
:104BE00011978FE190E09383828388E296E095832A
:104BF0008483882D90E0880F991F880F991F875311
:104C00009D4F978386830E94F90B8DB79EB70896B8
:104C1000F6C0DD2059F1ADB7BEB71C970FB6F894BA
:104C2000BEBF0FBEADBFEDB7FEB7319612961C9258
:104C30001E92119780E29DEF9383828386E096E037
:104C40009583848383E0B89EC001112483509D4FD7
:104C500097838683882D90E0880F991F880F991F6E
:104C600087539D4F91878087D286C3C0992009F0D2
:104C700094C0C7FE02C08DE28983A7FE02C08DE208
:104C80008B83ADB7BEB792970FB6F894BEBF0FBE79
:104C9000ADBFEDB7FEB7319612961C921E921197DA
:104CA0008091DD079091DE07938382838FEC95E0FE
:104CB0009583848383E0B89EC001112483509D4F67
:104CC00097838683882D90E0880F991F880F991FFE
:104CD00087539D4F91878087428653866486758669
:104CE000CE010196978786878C2D6AE00E94787E98
:104CF000992787FD909597FF03C0909581959F4FC9
:104D0000918B808B8C2D6AE00E94787E892F992769
:104D100087FD909597FF03C0909581959F4F938B4A
:104D2000828B8D819E81AF81B885848B958BA68B7C
:104D3000B78BCE010396918F808F8A2D6AE00E94F7
:104D4000787E992787FD909597FF03C09095819570
:104D50009F4F938F828F8A2D6AE00E94787E892FE1
:104D6000992787FD909597FF03C0909581959F4F58
:104D7000958F848F89859A85AB85BC85868F978F23
:104D8000A0A3B1A30E94F90BADB7BEB792960FB620
:104D9000F894BEBF0FBEADBF37C08DB79EB70C979E
:104DA0000FB6F8949EBF0FBE8DBFEDB7FEB731961C
:104DB000ADB7BEB712961C921E92119780E098EF85
:104DC0009383828386EB95E09583848383E0B89E0A
:104DD000C001112483509D4F97838683882D90E0D6
:104DE000880F991F880F991F87539D4F9187808740
:104DF000928613860E94F90B8DB79EB70C960FB65C
:104E0000F8949EBF0FBE8DBF0E9474242C960FB6DF
:104E1000F894DEBF0FBECDBFCF91DF911F910F91F0
:104E2000FF90EF90DF90CF90BF90AF909F908F90CA
:104E30007F906F905F904F9008956F927F928F92C6
:104E40009F92AF92BF92CF92DF92EF92FF920F9319
:104E50001F93DF93CF9300D0CDB7DEB75B016C011A
:104E6000942E822E602E7E2C8091DF07873009F0F1
:104E7000BBC0E090DD07F090DE07809125019091A6
:104E800026019A8389830E9420089C010091F307E0
:104E90001091F407C70160E070E0A801065F1F4FA2
:104EA0000E94DD0881E090E06091F3070E942C0BE6
:104EB0007720C1F48DB79EB708970FB6F8949EBFC0
:104EC0000FBE8DBFEDB7FEB73196ADB7BEB7129628
:104ED0001C921E92119780E29DEF938382838CE84F
:104EE00096E06AC0662009F052C097FE02C08DE2CB
:104EF0008983ADB7BEB752970FB6F894BEBF0FBE49
:104F0000ADBFEDB7FEB7319612961C921E92119767
:104F10008091DD079091DE07938382838CE696E093
:104F200095838483882D90E0880F991F880F991F9F
:104F300087539D4F97838683A086B186C286D3868A
:104F4000CE01019695878487892D6AE00E94787E3C
:104F5000992787FD909597FF03C0909581959F4F66
:104F600097878687892D6AE00E94787E892F992706
:104F700087FD909597FF03C0909581959F4F918BEA
:104F8000808B0E94F90B8DB79EB7429626C0ADB7B5
:104F9000BEB718970FB6F894BEBF0FBEADBFEDB742
:104FA000FEB7319612961C921E92119780E098EFF0
:104FB0009383828383E596E095838483882D90E0B4
:104FC000880F991F880F991F87539D4F978386835A
:104FD0000E94F90B8DB79EB708960FB6F8949EBF46
:104FE0000FBE8DBF0E9474240F900F90CF91DF9160
:104FF0001F910F91FF90EF90DF90CF90BF90AF90F7
:105000009F908F907F906F900895EF92FF920F93F3
:105010001F938091DF07873009F048C0E090DD07DB
:10502000F090DE070E9420089C010091F307109188
:10503000F407C70160E070E0A801065F1F4F0E94FF
:10504000DD0881E090E06091F3070E942C0B8DB7A2
:105050009EB70A970FB6F8949EBF0FBE8DBFEDB7EF
:10506000FEB73196ADB7BEB712961C921E9211973D
:105070008091DD079091DE079383828385EA96E035
:105080009583848380911708868317828091130803
:10509000808711860E94F90B8DB79EB70A960FB6CE
:1050A000F8949EBF0FBE8DBF0E9474241F910F9174
:1050B000FF90EF9008954F925F926F927F928F9240
:1050C0009F92AF92BF92CF92DF92EF92FF920F9397
:1050D0001F93DF93CF93CDB7DEB727970FB6F89422
:1050E000DEBF0FBECDBF4C018091DF07843009F0D9
:1050F00057C05401EE24FF24F1E0CF2ED12CE3E081
:105100006E2E712C6C0E7D1E2E010894411C511CBC
:105110002BC0F501828189831A82C30165EC76E098
:10512000A2010E9430766091F3077091F40700911C
:10513000DD071091DE07C601A30120E030E00E94E8
:105140003B0A6C01F1E0EF16F10421F083E0E81670
:10515000F10421F4ECEFFFEFCE0EDF1E0894E11C0A
:10516000F11C0894A11CB11CF4018081992787FDD2
:105170009095E816F9066CF2E090DD07F090DE07F6
:105180000E9420089C010091F3071091F407C701C9
:10519000B601A801065F1F4F0E94DD080E9474241B
:1051A00027960FB6F894DEBF0FBECDBFCF91DF912B
:1051B0001F910F91FF90EF90DF90CF90BF90AF9035
:1051C0009F908F907F906F905F904F9008950F9376
:1051D0001F938AE491E09093E9078093E8078FEFAB
:1051E00095E00E94350B80E590E061E070E047E2D9
:1051F00051E020E038EF0FEF15E00E943B0A8AE40F
:1052000091E0A0E0B0E08093E0079093E107A093E5
:10521000E207B093E3078CE293E66AE070E048E7C8
:1052200050E026E331E00CE810E00E94DD081F9119
:105230000F9108952F923F924F925F926F927F92BB
:105240008F929F92AF92BF92CF92DF92EF92FF9296
:105250000F931F93DF93CF9300D000D0CDB7DEB76D
:105260003C017B01C42E29833A832C010894411C04
:10527000511C5B010894A11CB11CDD244601880E61
:10528000991E1401089421083108CB014D969C8386
:105290008B8380E194E8B201A50191010B811C810F
:1052A0000E94DD0880E090E0B301A7019401850130
:1052B0000E94DD088EE1A82EB12CAE0CBF1C80E050
:1052C00090E0B301A701920185010E94DD0880E012
:1052D00090E0B101A70194010E94DD0880E090E018
:1052E000B3014B815C8194010E94DD08A981BA81E0
:1052F000FD0101900020E9F73197EA1BFB0B03E069
:10530000EE0FFF1F0A95E1F7CE1ADF0AD694C79475
:10531000E8E0F0E0EE0EFF1EC601860D971DB70116
:10532000AD012FE130E000E114E80E943B0A0F904C
:105330000F900F900F90CF91DF911F910F91FF90E1
:10534000EF90DF90CF90BF90AF909F908F907F9025
:105350006F905F904F903F902F9008950F931F9301
:105360008BE490E061E070E048E351E020E030E061
:105370000FEF1FEF0E943B0A88E290E06CEC70E0B8
:1053800044E626E431E00E941A2984E08093DF0796
:105390001F910F9108950F931F938FEF9FEF0E941E
:1053A000350B8BE490E061E070E04CE451E020E0EC
:1053B00030E00FEF1FEF0E943B0A88E290E06CECB8
:1053C00070E044E62DE531E00E941A2986ED90E078
:1053D0006CEC70E044E62AE631E00E941A298FE086
:1053E00090E09093F4078093F3078FEF9FEF9093F3
:1053F000DE078093DD0787E08093DF071F910F9121
:1054000008950F931F9380EE9FEF0E94350B00D0FD
:1054100000D000D0EDB7FEB73196ADB7BEB712964B
:105420001C921E92119700EE1FEF138302838DE0F2
:1054300099E0958384830E94F90BEDB7FEB731960E
:10544000ADB7BEB712961C921E92119713830283BA
:105450008AEE98E0958384830E94F90BEDB7FEB73E
:105460003196ADB7BEB712961C921E921197138358
:10547000028387EC98E0958384830E94F90B8DB7B3
:105480009EB706960FB6F8949EBF0FBE8DBF84E000
:1054900090E060EA70E044E62FE631E00E941A29CD
:1054A00086E390E06CEC70E044E626E731E00E9491
:1054B0001A2986ED90E06CEC70E044E621E831E0DA
:1054C0000E941A2989E08093DF071F910F910895A8
:1054D000AF92BF92CF92DF92EF92FF920F931F9302
:1054E0005B016C01E090E007F090E1070091E207BA
:1054F0001091E30722E231E040E050E00E94597E43
:10550000A80197010E94AC7E89019A01015F1F4F9B
:1055100080EE9FEF6FE070E041E850E0980103E813
:1055200010E00E94DD08C601B50120E038E240E04D
:1055300050E00E94AC7E6115710581059105C1F5B1
:105540008DB79EB70E970FB6F8949EBF0FBE8DBF56
:10555000EDB7FEB731968FE090E0ADB7BEB71296CB
:105560009C938E93119783E690E09383828380E0EF
:1055700098EF958384838FEF9FEF978386838AE9E3
:105580009AE0918780879AE0D694C794B794A794BD
:105590009A95D1F7A286B386C486D5860E94D00B91
:1055A0008DB79EB70E960FB6F8949EBF0FBE8DBFF7
:1055B0001F910F91FF90EF90DF90CF90BF90AF9031
:1055C0000895FF920F931F93F82E2091E0073091DA
:1055D000E1074091E2075091E307682F70E082E213
:1055E00091E0DB01A89FB001A99F700DB89F700DDD
:1055F000112480E090E00E94AC7E89019A01015F55
:105600001F4F80E098EF6FE070E041E850E09801B4
:1056100003E810E00E94DD08EDB7FEB73C970FB637
:10562000F894FEBF0FBEEDBF31968FE090E0ADB7AE
:10563000BEB712969C938E93119783E690E0938366
:10564000828380E098EF958384838FE190E0978355
:1056500086838EEA9AE091878087F28613860E947D
:10566000D00BEDB7FEB73C960FB6F894FEBF0FBE59
:10567000EDBF1F910F91FF9008958091E8079091E1
:10568000E907892B19F18091E8079091E9070197C3
:105690009093E9078093E8078091E8079091E907E4
:1056A000892B69F02091E8073091E9076AE471E0FD
:1056B000621B730B80E090E00E94682A089580E0EE
:1056C0000E94A7351092DF070E94B83E0895CF923E
:1056D000DF92EF92FF920F931F93CF93DF9387EFA9
:1056E0009DEB0E94350B0E94FA712DB73EB72850F2
:1056F00030400FB6F8943EBF0FBE2DBFEDB7FEB7DA
:1057000031960FE110E0ADB7BEB712961C930E9321
:105710001197CFEFDFEFD383C2832FE83AE03583D1
:105720002483978386830E94F90B8DEF9FEDAC0154
:10573000662757FD6095762F6BBFFA014791019759
:10574000AA2797FDA095BA2FABBFFC01879100D087
:10575000EDB7FEB73196ADB7BEB712961C930E9358
:105760001197D383C2832FE73AE03583248346839E
:105770001782808711860E94F90BEDB7FEB731962C
:1057800080E29DEFADB7BEB712969C938E931197B2
:10579000D383C28383E79AE09583848388E891E08A
:1057A0009783868384E991E0918780870E94F90B33
:1057B0000F900F900F900F90EDB7FEB73196ADB7E9
:1057C000BEB712961C930E931197D383C28385E6BE
:1057D0009AE0958384830E94F90B8091FC032DB796
:1057E0003EB72A5F3F4F0FB6F8943EBF0FBE2DBFA6
:1057F000882309F062C10E94091CADB7BEB71C978F
:105800000FB6F894BEBF0FBEADBFEDB7FEB7319671
:1058100020E038EF12963C932E931197D383C283E6
:1058200021E53AE0358324839C0144E036952795B1
:105830004A95E1F72F703070378326839C012F70D3
:10584000307031872087928713860E94F90B8091F0
:10585000F6072DB73EB7245F3F4F0FB6F8943EBF13
:105860000FBE2DBF882389F400D000D000D0EDB743
:10587000FEB73196ADB7BEB712961C921E92119725
:10588000D383C28386E49AE03EC08091F6078130DC
:1058900089F400D000D000D0EDB7FEB73196ADB797
:1058A000BEB712961C921E921197D383C2838EE3C9
:1058B0009AE029C08091F607823089F400D000D0A8
:1058C00000D0EDB7FEB73196ADB7BEB712961C92B9
:1058D0001E921197D383C28385E39AE014C080910E
:1058E000F6078330E9F400D000D000D0EDB7FEB762
:1058F0003196ADB7BEB712961C921E921197D38304
:10590000C28381E39AE0958384830E94F90B2DB7CB
:105910003EB72A5F3F4F0FB6F8943EBF0FBE2DBF74
:105920002091080430910C048DB79EB70A970FB6EA
:10593000F8949EBF0FBE8DBFEDB7FEB73196CFEF87
:10594000DFEFADB7BEB71296DC93CE9311971382FB
:10595000128287E19AE095838483268317823087B9
:1059600011860E94F90B2DB73EB7265F3F4F0FB649
:10597000F8943EBF0FBE2DBF0E94AB1C019789F467
:1059800000D000D000D0EDB7FEB73196ADB7BEB7AE
:1059900012961C921E921197D383C2838CE09AE0D8
:1059A00012C000D000D000D0EDB7FEB7319680E035
:1059B00098EFADB7BEB712969C938E931197D38391
:1059C000C28380E09AE0958384830E94F90B2DB70F
:1059D0003EB72A5F3F4F0FB6F8943EBF0FBE2DBFB4
:1059E0004091050420910304309104045091550422
:1059F0008DB79EB70C970FB6F8949EBF0FBE8DBFA4
:105A0000EDB7FEB73196ADB7BEB712961C921E9297
:105A10001197EE24EA94FE2CF382E28282EE99E062
:105A20009583848346831782318720875287138624
:105A30000E94F90BD09055042DB73EB7245F3F4F1D
:105A40000FB6F8943EBF0FBE2DBF0E9420088C01F8
:105A50000E942608ADB7BEB71C970FB6F894BEBF1C
:105A60000FBEADBFEDB7FEB7319612961C921E92D7
:105A70001197F382E28222EC39E035832483D682C7
:105A800017820F5F1F4F11870087019693878287C8
:105A90000E94F90B2DB73EB7245F3F4F0FB6F89425
:105AA0003EBF0FBE2DBF86ED90E06CEC70E044E68B
:105AB0002AE631E00E941A29BFC0823009F053C0A3
:105AC00000D000D000D0EDB7FEB73196E12C28EF22
:105AD000F22EADB7BEB71296FC92EE921197D38319
