:100000000C9427060C9491060C9491060C9491067E
:100010000C9491060C9491060C9491060C94910604
:100020000C9491060C9491060C9460490C949106E2
:100030000C9491060C9491060C94256F0C94B36E5D
:100040000C9491060C9491060C9491060C949106D4
:100050000C9491060C9491060C9491060C949106C4
:100060000C9491060C9491060C9491060C949106B4
:100070000C9491060C9433310C949F6F0C94107077
:100080000C9491060C9491060C94910608000000C3
:10009000BE922449123EABAAAA2ABECDCCCC4C3E7D
:1000A00000000080BEABAAAAAA3E00000000BF006C
:1000B0000000803F0000000000084178D3BB438768
:1000C000D1133D190E3CC3BD4282AD2B3E68EC827C
:1000D00076BED98FE1A93E4C80EFFFBE01C4FF7F01
:1000E0003F000000000007634236B79BD8A71A39CB
:1000F000685618AEBAAB558C1D3CB7CC5763BD6D76
:10010000EDFD753EF6177231BF000000803F496E6D
:100110006974204E414E4420466C617368004E75F0
:10012000742F4F53202573200000000000000000B2
:1001300000000000000000202020202020002000DF
:1001400000002850500000000000000000000028BF
:1001500028FC2850FC50500000002078A8A06030F7
:1001600028A8F02000000048A8B0502834544800C7
:1001700000000020505078A8A8906C00000040407B
:1001800080000000000000000000040810101010A3
:100190001010080400004020101010101010204013
:1001A0000000000020A87070A820000000000020BF
:1001B0002020F820202000000000000000000000A7
:1001C00000004040800000000000F8000000000037
:1001D00000000000000000000000400000000810C7
:1001E00010102020404040800000007088888888DF
:1001F00088887000000000206020202020207000EF
:1002000000000070888810204080F8000000007016
:1002100088083008088870000000001030505090A6
:1002200078101800000000F88080F008088870003E
:10023000000000709080F08888887000000000F84E
:1002400090102020202020000000007088887088F6
:1002500088887000000000708888887808487000DE
:10026000000000000020000000002000000000004E
:100270000000200000002020000004081020402082
:10028000100804000000000000F80000F800000062
:1002900000004020100804081020400000000070FA
:1002A0008888102020002000000000708898A8A8EE
:1002B000B880780000000020203050507848CC00F2
:1002C000000000F0484870484848F00000000078FE
:1002D0008880808080887000000000F0484848488E
:1002E0004848F000000000F8485070504048F800BE
:1002F000000000F8485070504040E0000000003816
:100300004880809C88483000000000CC48487848ED
:100310004848CC00000000F8202020202020F800D1
:100320000000007C10101010101090E0000000EC95
:10033000485060505048EC00000000E04040404011
:100340004044FC00000000D8D8D8D8A8A8A8A8002D
:10035000000000DC486868585848E8000000007059
:100360008888888888887000000000F048487040BD
:100370004040E0000000007088888888E898701885
:10038000000000F0484870504848EC000000007839
:10039000888060100888F000000000F8A820202065
:1003A00020207000000000CC4848484848483000F1
:1003B000000000CC4848505030202000000000A829
:1003C000A8A8705050505000000000D85050202075
:1003D0005050D800000000D850502020202070003D
:1003E000000000F8901020204048F800000038205D
:1003F00020202020202020380000404040202010D5
:100400001010080000007010101010101010107064
:10041000000020500000000000000000000000006C
:100420000000000000000000FC00200000000000B0
:1004300000000000000000000000304838483C0088
:10044000000000C0404070484848700000000000B4
:1004500000003848404038000000001808083848BC
:1004600048483C0000000000000030487840380058
:100470000000001C202078202020780000000000D0
:1004800000003C4830407844380000C0404070488C
:100490004848EC0000000020000060202020700090
:1004A000000000100000301010101010E00000C01C
:1004B00040405C507048EC00000000E0202020200C
:1004C0002020F800000000000000F0A8A8A8A80064
:1004D000000000000000F0484848EC000000000068
:1004E0000000304848483000000000000000F0489C
:1004F00048487040E000000000003848484838088C
:100500001C0000000000D8604040E0000000000037
:1005100000007840300878000000000020207020A3
:1005200020201800000000000000D84848483C0087
:10053000000000000000EC485030200000000000E7
:100540000000A8A870505000000000000000D85023
:100550002050D800000000000000EC48503020205F
:10056000C000000000007810202078000000181063
:100570001010201010101018001010101010101073
:10058000101010101000602020201020202020606B
:100590000040A41800000000000000000042746E3B
:1005A0003A202564202D3E20256420202020202074
:1005B000202020202000444854257320282573291A
:1005C0003A20626164204352432025782020004471
:1005D0004854257320282573293A205425352E3177
:1005E0006628252B31642E25317529204825352E86
:1005F000316628252B31642E253175292044253577
:100600002E316600444854257320282573293A204A
:100610006E6F20736C617665202D206572726F722B
:100620002025642020004448543F3F20282573297A
:100630003A20556E737570706F72746564205365DF
:100640006E736F722073656C65637465642120201E
:100650000044533138323020282573293A20626112
:10066000642043524320202020004453313832304C
:1006700020282573293A2025362E32662028252B5E
:100680002E3166292000445331383230202825731A
:10069000293A206E6F20736C61766520202000520D
:1006A00043353A20413D25322E326420433D2532E8
:1006B0002E326420202020202020202020200025F1
:1006C0002E32582000514649204845582044756D27
:1006D000703A00466F756E64205052492074616212
:1006E0006C652056657273696F6E2025632E2563D5
:1006F000206174203078257800536F6D65746869C7
:100700006E672077656E742077726F6E6721005375
:1007100075636365737366756C6C7920657261735C
:10072000656420466C617368210045726173696E6F
:100730006720464C4153482E2E2E0053697A653A65
:10074000202575206B627974650044657669636560
:1007500020646F65736EB47420737570706F7274FB
:10076000205146492100466F756E64205052492041
:100770007461626C652056657273696F6E202563C3
:100780002E2563206174203078257800426C6F63D9
:100790006B2045726173652054696D656F757420B7
:1007A0002575206D73004275666665722057726903
:1007B00074652054696D656F757420257520757397
:1007C00000564343204D61782025782E257556002C
:1007D000564343204D696E2025782E2575560053CB
:1007E000697A65202575206B6279746500466F759E
:1007F0006E642051464920496E666F2C20726561F7
:1008000064696E672E2E2E00616674657277617260
:10081000647320746F20726573746F726520612039
:1008200070726F6A6563742E2020202020202020A3
:10083000202020202000596F75206E65656420748B
:100840006F2072656C6F616420612070726F6A65E1
:1008500063742066726F6D207468652053442D6345
:1008600061726400546869732077696C6C207769E1
:10087000706520796F75722070726F6A656374207D
:10088000464C415348206D656D6F727921202020C0
:100890002000202020202020232323232323232360
:1008A00020205720412052204E2049204E20472012
:1008B0002023232323232323232020202020200040
:1008C000522D436F64652025752C202020526573BE
:1008D0006F6C7574696F6E20257520782025750002
:1008E00054465420436F6E74726F6C6C65723D2079
:1008F00025642C205230303D25342E347800454973
:1009000042206F66666C696E6500454942206F6ED5
:100910006C696E6500313830003930207269676863
:1009200074003930206C65667400486F72697A6FA4
:100930006E74616C00506879732E2041646472207B
:1009400025642E25642E2564004275696C6420257B
:1009500073004669726D77617265205625642E2595
:1009600064004E75742F4F5320257320004C6F6127
:1009700064696E672E2E2E202575206B6279746552
:1009800000536563746F722025752065726173650D
:1009900064002E6C636462002E6C636462006F6B93
:1009A000006661696C6564004D6F756E74696E6791
:1009B000205344204361726400756E6B6E6F776ED6
:1009C0002074797065202564006D6F7665206379E9
:1009D000636C696320656C656D656E742064657316
:1009E0006372697074696F6E2072657475726E657A
:1009F000643A202564006D6F7665206C69737465B8
:100A00006E20656C656D656E7420646573637269D4
:100A10007074696F6E2072657475726E65643A20C9
:100A20002564006D6F76652070616765206465736D
:100A30006372697074696F6E2072657475726E6529
:100A4000643A202564006D6F766520616464726588
:100A50007373207461626C652072657475726E6563
:100A6000643A20256400747970653A202564206119
:100A700074202825782920257800546F7563682014
:100A80006D6972726F722028782F79293A20256457
:100A90002F2564006669726D776172652120466F4B
:100AA000756E642025235820627574206578706502
:100AB000637465642025235800546869732070723C
:100AC0006F6A6563742076657273696F6E206973EF
:100AD000206E6F7420737570706F7274656420621D
:100AE000792074686973004D616769632066616984
:100AF0006C65643A20257825782578002530327594
:100B00002E253032752E32302530327500253032A8
:100B1000753A2530327500252A6C6400252A6C75DB
:100B200000252A6400252A750025202A2E2A660021
:100B300025202A2E2A6600252A2E2A6400252A2E00
:100B40002A6400696E6600494E46006E616E004E72
:100B5000414E0000407A10F35A00A0724E1809006E
:100B600010A5D4E80000E87648170000E40B540212
:100B70000000CA9A3B000000E1F50500008096984D
:100B800000000040420F000000A08601000000109D
:100B90002700000000E803000000006400000000DF
:100BA000000A00000000000100000000002C76D8C0
:100BB00088DC674F0823DFC1DFAE59E1B1B796E5A6
:100BC000E3E453C63AE651997696E8E6C28426EB0A
:100BD000898C9B62ED407C6FFCEFBC9C9F40F2BA1D
:100BE000A56FA5F490055A2AF75C936B6CF9676DB5
:100BF000C11BFCE0E40D47FEF520E6B500D0ED900A
:100C00002E0300943577050080841E080000204ED6
:100C10000A000000C80C333333330F986E1283116F
:100C200041EF8D2114893BE65516CFFEE6DB18D146
:100C3000844B381BF77C1D901DA4BBE42420328418
:100C4000725E228100C9F124ECA1E53D270080EC11
:100C500085BF85E388BB8FE387BB88EE82BB80EBD3
:100C600081BB8EE083B982E082B980EF809362001D
:100C70008FE0809361008FE18093650087E080932F
:100C80006400479A1092710080E280937000599A34
:100C9000EBE9F0E080818260808387E689B9809308
:100CA000990011241FBECFEFD0E1DEBFCDBF13E00E
:100CB000A0E0B1E0E0EAFBEF00E00BBF02C007906C
:100CC0000D92AC37B107D9F71DE0ACE7B3E001C036
:100CD0001D92AD36B107E1F78FEF9FE39EBF8DBF49
:100CE0008FEF9FE38D569D408158914050F04FEF1C
:100CF0005EE34D565D4084E49DE06DE67DE00E943C
:100D00005E650E94036D82EF92E061E774E640E069
:100D100050E020E831E00E94736D0E9400000C94C6
:100D2000CE7D0C9400000F931F930E94953280910A
:100D30006200886080936200809161008860809387
:100D4000610080916C00806880936C0080916D00E0
:100D5000817C80936D0080916D00806480936D0034
:100D600085B78F7B85BF0E94C0140E942D6D2DB763
:100D70003EB7285030400FB6F8943EBF0FBE2DBF8F
:100D8000EDB7FEB73196ADB7BEB712961C921E9264
:100D900011970FEF1FEF138302832EE131E03583AC
:100DA0002483978386830E94470C0F900F90EDB7A2
:100DB000FEB7319680EE97E0ADB7BEB712969C9322
:100DC0008E931197138302838EE091E09583848341
:100DD0000E94470C2DB73EB72A5F3F4F0FB6F894DD
:100DE0003EBF0FBE2DBF0E94EA1F0E9435340E94F5
:100DF000EA1C0E942D310E9481360E948A0C0E94BA
:100E00001E218091ED03843019F40E94DF2B03C072
:100E100080E00E94D3398AEF0E94B5676EE170E0EE
:100E200080E090E00E942D6A0E9469190E94051AD4
:100E30000E94B3260E9493450E94F3460E94A13867
:100E4000EDCFE82FF0E0E051F04880810895E62FE3
:100E5000F0E0E051F048808308958093F07F08959A
:100E60008093F17F08958091F17F08959093F97FA9
:100E70008093F17F08952091F17F4091FA7F942F24
:100E800080E030E0282B392BC9010895E1E6F0E03D
:100E9000808182608083E2E6F0E080818D7F8083C4
:100EA0000895E1E6F0E0808182608083E2E6F0E090
:100EB0008081826080830895882321F08091E703F8
:100EC00083BD089513BC08958093F07F7093F97FDC
:100ED0006093F17F08958093F07F2091F17F40919E
:100EE000FA7F942F80E030E0282B392BC901089538
:100EF0008093F07F8091F17F0895FC0180913B0405
:100F000090913C048E179F0720F4E0913B04F091F0
:100F10003C0480913B0490913C048417950720F495
:100F200040913B0450913C048091330490913404EF
:100F30008617970720F460913304709134048091F0
:100F40003304909134048217930720F420913304E2
:100F5000309134048091ED038130C9F582E08093B3
:100F6000F07F1092F97FF093F17F83E08093F07F20
:100F7000F093F97FE093F17F84E08093F07F10920B
:100F8000F97F5093F17F85E08093F07F5093F97F54
:100F90004093F17F86E08093F07F1092F97F709309
:100FA000F17F87E08093F07F7093F97F6093F17F0A
:100FB00088E08093F07F1092F97F3093F17F89E091
:100FC0008093F07F3093F97F2093F17F2EC0809142
:100FD000ED03833061F582E58093F07FF093F97F34
:100FE000E093F17F83E58093F07F5093F97F409306
:100FF000F17F81E28093F07FF093F97FE093F17FBE
:1010000080E58093F07F7093F97F6093F17F81E5B5
:101010008093F07F3093F97F2093F17F80E280937B
:10102000F07F7093F97F6093F17F82E21BC0809123
:10103000ED038430D1F48AE28093F07FF093F17F66
:10104000E093F17F5093F17F4093F17F8BE28093A7
:10105000F07F7093F17F6093F17F3093F17F209365
:10106000F17F8CE28093F07F08958091ED038230D0
:1010700051F5922F8827860F971F24E42093F07F45
:101080009093F97F8093F17F85E48093F07FF093D4
:10109000F97FE093F17F86E48093F07F5093F97FAE
:1010A0004093F17F8EE48093F07F7093F97F60939B
:1010B000F17F8FE48093F07FF093F97FE093F17FED
:1010C00082E28093F07F089570E0382F20E0622B59
:1010D000732B7093F97F6093F17F089520913B0407
:1010E00030913C04C90108952091330430913404B7
:1010F000C90108956F927F928F929F92AF92BF9293
:10110000CF92DF92EF92FF920F931F93682EA42E3F
:1011100070E0882777FD8095982F0E94CF7620E099
:1011200030E04FE753E40E94347620E030E04CE7B3
:1011300052E40E9404780E94A1767B018C01FF2476
:101140008FE3E822FF2495E0EE0CFF1C9A95E1F76F
:10115000BB24CC24B7FCC094DC2CC601B5010E9492
:10116000CF7620E030E04FE753E40E94347620E071
:1011700030E048EF51E40E9404780E94A17670E0CC
:101180006F717070E62AF72A7724882477FC8094A0
:10119000982CC401B3010E94CF7620E030E04FE7E5
:1011A00053E40E94347620E030E048EF51E40E949E
:1011B00004780E94A176362F330F330F330F20E0CF
:1011C000E22AF32AC7011F910F91FF90EF90DF9061
:1011D000CF90BF90AF909F908F907F906F90089529
:1011E000CF92DF92EF92FF920F931F936C01809149
:1011F000ED03882349F100913B0410913C04E090F9
:101200003304F090340480E090E060E070E0A801E6
:1012100097010E947D07D092F97F20E030E0B8016D
:101220006F5F7F4FA7014F5F5F4F08C0C092F17F94
:10123000019684179507D0F32F5F3F4F2617370786
:1012400018F480E090E0F5CF1F910F91FF90EF90A0
:10125000DF90CF900895AF92BF92CF92DF92EF923E
:10126000FF920F931F93CF93DF93A82ED92EB62E04
:10127000C72EF42EE52EE9018091ED038823F9F0C5
:10128000862F972F642F752FA90198010E947D0743
:10129000D092F97F8F2D9E2D9C01A9010DC08B2D21
:1012A0009C2D9C0104C0A092F17F2F5F3F4FC2177D
:1012B000D307C8F74F5F5F4F0417150780F7DF911B
:1012C000CF911F910F91FF90EF90DF90CF90BF9043
:1012D000AF9008954F925F926F927F928F929F92FC
:1012E000AF92BF92CF92DF92EF92FF920F931F9334
:1012F000DF93CF930F92CDB7DEB72C014B013A01AC
:1013000059018091ED03882309F489C0C2010E942C
:101310007D0781E08093F87F8FEFC82E8FE7D82E6E
:10132000CE20DF2080E090E8C80ED91EBFE01695E1
:101330000795F794E794BA95D1F71E2D1F77109370
:10134000FC7F21E030E0B901681979096A0D7B1D45
:1013500080E090E024193509260D371D40E050E06B
:101360000E948C799B01AC01C601822B932B80FDDE
:1013700011C050C0D6018D916D018983109731F451
:101380001F5F1093FC7FC12CA0E8DA2E2150304063
:1013900040405040211531054105510559F73FC0E6
:1013A000DA01C901B695A795979587958F3FEFEF1D
:1013B0009E07E0E0AE07E0E0BE0738F02E5F3F4F4B
:1013C000414050406FEF7FEF22C0BC01A0E0B0E091
:1013D000281B390B4A0B5B0B281B390B4A0B5B0B89
:1013E00016C0F60181918983D60111968C9189836B
:1013F0006F010894C11CD11CC114D10431F41F5FCA
:101400001093FC7FC12CE0E8DE2E61507040611526
:10141000710539F7211531054105510509F60F9080
:10142000CF91DF911F910F91FF90EF90DF90CF90C0
:10143000BF90AF909F908F907F906F905F904F90F4
:1014400008950F931F93FC018B0160E177E20E94E6
:10145000CC79605DD8016C93CF0168EE73E00E9497
:10146000CC79462F405DCF0160EF78ED0E94CC79BA
:10147000CB019B0153E0220F331F5A95E1F7880FF0
:10148000991F280F391F420FD80111964C93CF0195
:1014900064E670E00E94CC79462F405DCF0168E1A0
:1014A0007CEF0E94CC79CB019B01A3E0220F331F7C
:1014B000AA95E1F7880F991F280F391F420FD8010D
:1014C00012964C93CF016AE070E00E94CC79462FCF
:1014D000405DCF016CE97FEF0E94CC79CB019B018D
:1014E00063E0220F331F6A95E1F7880F991F280FD9
:1014F000391F420FD80113964C93CF016AE070E078
:101500000E94CC79805DF801848315821F910F9130
:1015100008953F924F925F926F927F928F929F9227
:10152000AF92BF92CF92DF92EF92FF920F931F93F1
:10153000CF93DF935B016A0129013801EC017BE065
:10154000872E912C8A0C9B1C6CE0362E51C080910A
:10155000ED03882309F448C0AE01495F5F4FCE0117
:10156000B50194010E947D071052139DC001112402
:101570007C010027F7FC0095102F20E030E040E0D0
:1015800050E089E291E0A0E08E0D9F1DA01FB11FE9
:10159000820F931FA41FB51FABBFFC01879167E0AB
:1015A00070E0E82FF0E0CF01062E02C095958795F8
:1015B0000A94E2F780FF05C05092F97F4092F17FD4
:1015C00004C07092F97F6092F17F615070408FEF9C
:1015D0006F3F780741F72F5F3F4F4F4F5F4F2C30E2
:1015E00031054105510569F627960894C11CD11CA7
:1015F000F6011081112309F0AACFCE01DF91CF911E
:101600001F910F91FF90EF90DF90CF90BF90AF9020
:101610009F908F907F906F905F904F903F90089534
:10162000919A909A1D9A089590E087FF02C01D9AA2
:1016300001C01D989098000000000000909A0000E2
:10164000000000009F5F983011F0880FEECF0895E2
:1016500080E020E030E0220F331F909A000000006D
:10166000000090980000000000000C9B02C02F5F5B
:101670003F4F8F5F8C3079F7C9010895919880E9C9
:101680000E94140B909A90980E94280B90933F040C
:1016900080933E0480ED0E94140B909A90980E94D3
:1016A000280B9093F3038093F203919A089580910D
:1016B000E70383BD109232041092310408958091A3
:1016C00031049091320425E08C3D920741F48091E1
:1016D000C307843071F08091E80383BD08958C5D69
:1016E000954038F48091C307843019F08091E70366
:1016F00083BD08959093EF038093EE0360934304BA
:1017000010924404089521E030E03093EF032093D9
:10171000EE0330934404209343040E94F00808959C
:10172000EF92FF920F931F93DF93CF93CDB7DEB766
:101730009E01215F3F4F85EF93E06D857E85A90176
:101740000E942171F82EE92E6091430470914404A7
:101750008091EE039091EF0345EF53E029853A85A0
:101760000B851C850E94890A9093EF038093EE03FA
:1017700020913B0430913C042817390730F481E074
:1017800090E09093EF038093EE0380914304909157
:101790004404893C910530F081E090E0909344044A
:1017A000809343048F2D9E2DCF91DF911F910F9138
:1017B000FF90EF900895EF92FF920F931F93DF93A6
:1017C000CF93CDB7DEB79E01215F3F4F85EF93E00A
:1017D0006D857E85A9010E942171F82EE92E609108
:1017E0004304709144048091EE039091EF0345EF20
:1017F00053E029853A850B851C850E94890A21E0E2
:1018000030E03093EF032093EE03809143049091F6
:1018100044040C969093440480934304893C9105BE
:1018200020F030934404209343048F2D9E2DCF91BC
:10183000DF911F910F91FF90EF900895EF92FF922B
:101840000F931F93DF93CF93CDB7DEB79E012D5E2D
:101850003F4F05EF13E0C80169897A89A9010E9409
:101860006371F82EE92E89859A856B857C85A801A0
:101870002D853E850F8518890E94890A8F2D9E2D02
:10188000CF91DF911F910F91FF90EF900895EF920C
:10189000FF920F931F93DF93CF93CDB7DEB79E01D7
:1018A000215F3F4F85EF93E06D857E85A9010E9402
:1018B0006371F82EE92E6091430470914404809185
:1018C000EE039091EF0345EF53E029853A850B85B0
:1018D0001C850E94890A21E030E03093EF032093B9
:1018E000EE0380914304909144040C969093440439
:1018F00080934304893C910520F030934404209365
:1019000043048F2D9E2DCF91DF911F910F91FF905A
:10191000EF90089581E090E09093EF038093EE03C1
:10192000909344048093430480E091E06FE97CE06D
:1019300040E050E020E032E00E94736D089584E6BC
:101940000E94B5676CE271E080E090E00E942D6A31
:1019500002C00E943E0B0E9BFCCF109242041092DC
:101960003604109235041092320410923104109211
:10197000F103109241041092400491E0292E312C81
:1019800085E0482E512C04E0802E912C18E0612E29
:10199000712CB3E0AB2EB12CA6E4CA2EAFE0DA2E48
:1019A00006E010E0F2E0EF2EF12CC7E0D0E064E1B9
:1019B00070E080E090E00E942D6A0E99EAC00E94DB
:1019C0003E0B8091E70383BD1092320410923104E4
:1019D0008091ED03843009F472C08091F2039091FC
:1019E000F303885C90406FE070E00E94CC797093C4
:1019F000EA036093E90377FF04C01092EA031092B0
:101A0000E90320913304309134048091E9039091EB
:101A1000EA032817390740F4809133049091340485
:101A20009093EA038093E9038091F403882371F093
:101A300080913304909134042091E9033091EA03BA
:101A4000821B930B9093EA038093E9038091ED034B
:101A50009091F00340E050E0833011F441E050E019
:101A6000892F90E020913E0430913F044817590798
:101A7000D1F081E02C37380794F0C601821B930B1C
:101A80006BE070E00E94CC7970934604609345044B
:101A900077FF17C0109246041092450412C0C90186
:101AA0008758914003C0C9018E5591406BE070E0AA
:101AB0000E94CC79709346046093450402C00E9452
:101AC000D41420913B0430913C04809145049091C2
:101AD00046042817390740F480913B0490913C0458
:101AE0009093460480934504809145049091460468
:101AF00090933804809337048091E9039091EA032E
:101B000090933A0480933904809142048823A9F188
:101B100050923604409235042091400430914104A3
:101B20002F5F3F4F30934104209340048091F10395
:101B3000882351F42031310550F081E08093F10386
:101B4000B0923604A09235042132310531F02234AE
:101B5000310519F02336310521F470923604609274
:101B600035042436310569F4109241041092400482
:101B7000909236048092350404C03092360420924C
:101B8000350485E394E00E94803023E020934204F2
:101B90000ECF80914204882321F18150809342042A
:101BA0008823F9F48091F103882329F0D093360437
:101BB000C093350404C0F0923604E092350485E306
:101BC00094E00E948030109336040093350485E33E
:101BD00094E00E9480301092F10310924104109220
:101BE0004004809131049091320425E08C3D9207AD
:101BF00008F0DDCE2091C307243009F4D8CE273079
:101C000009F4D5CE019690933204809331048C5D13
:101C1000954009F0CCCE8091E80383BDC8CE4F92A9
:101C20005F926F927F928F929F92AF92BF92CF926C
:101C3000DF92EF92FF920F931F93FA01D9018FE386
:101C400091E0918380838FEE90E011969C938E9328
:101C500000EFC02E0FE7D02EF601108219EFE12E13
:101C60001FE7F12EF701108201EF1FE7662463944E
:101C7000F801608282E00E947D68B3E05B2EF6018D
:101C8000508288EAF701808384EAF801808382E049
:101C90000E947D68ACE0BA2EF601B082F701108296
:101CA000F801108282E00E947D688DE0F601808359
:101CB00088E0F7018083F801B08282E00E947D68AD
:101CC0008EE0F60180838BE2F7018083F8011082B9
:101CD00082E00E947D688EE1F6018083F701108228
:101CE00080EBF801808382E00E947D68F6016082CB
:101CF00089E2F7018083FFE37F2EF801708282E0A2
:101D00000E947D68E2E0AE2EF601A08276E0B72E5A
:101D1000F701B082F801108282E00E947D6880E1C4
:101D2000F6018083F7011082F801108282E00E94A0
:101D30007D6881E1F601808380E6F701808388E792
:101D4000F801808382E00E947D6865E0862EF601BE
:101D50008082F7011082F801108282E00E947D6883
:101D6000F601B082F7011082F801108282E00E9431
:101D70007D6886E1F60180835FEEB52EF701B082C3
:101D80008CE1F801808382E00E947D6887E1F601A2
:101D90008083F7011082F801508282E00E947D6802
:101DA00047E0942EF6019082F701A08233E3432EA0
:101DB000F801408282E00E947D688BE0F60180831A
:101DC000F7011082F801108282E00E947D688FE0A6
:101DD000F6018083F7011082F801108282E00E94F0
:101DE0007D6881E4F6018083F7011082F80110829A
:101DF00082E00E947D6882E4F6018083F701108210
:101E0000F801108282E00E947D6888E4F6018083F8
:101E1000F7011082F801108282E00E947D6889E457
:101E2000F6018083F7016082F801708282E00E94EF
:101E30007D688AE4F6018083F7011082F801108240
:101E400082E00E947D688BE4F6018083F7011082B6
:101E5000F801108282E00E947D6884E4F6018083AC
:101E6000F701B082F801108282E00E947D6885E46B
:101E7000F6018083F7011082F801108282E00E944F
:101E80007D6886E4F6018083F7016082F801708244
:101E900082E00E947D6880E3F6018083F7019082F2
:101EA000F801908282E00E947D6881E3F6018083E0
:101EB000F701A08224E0B22EF801B08282E00E94F5
:101EC0007D6882E3F6018083F701A082F801B08289
:101ED00082E00E947D68F6014082F7018082F8016D
:101EE000A08282E00E947D6884E3F6018083F7018E
:101EF0008082F801908282E00E947D6885E3F6018D
:101F00008083F701A082F801B08282E00E947D68A0
:101F100086E3F6018083F701A082F801B08282E0B7
:101F20000E947D6887E3F6018083F7018082F801D3
:101F3000A08282E00E947D688AE3F6018083F70137
:101F40005082F801A08282E00E947D688BE3F60156
:101F50008083F7015082F801A08282E00E947D68B0
:101F600083E2F6018083F7011082F801108282E09B
:101F70000E947D6884E2F6018083F7011082F801F7
:101F8000108282E00E947D6885E2F601808380E80D
:101F9000F7018083F801108282E00E947D688FE45F
:101FA000F6018083F7011082F80110828EE4F601B9
:101FB0008083F7011082F80110821F910F91FF902A
:101FC000EF90DF90CF90BF90AF909F908F907F90D9
:101FD0006F905F904F9008952F923F924F925F9233
:101FE0006F927F928F929F92AF92BF92CF92DF9229
:101FF000EF92FF920F931F93FA01D9018FE391E0C3
:10200000918380838FEE90E011969C938E9310EFD6
:10201000C12E1FE7D12E26E4F6012083B9EFEB2E67
:10202000BFE7FB2EF701108201EF1FE784EAF801FA
:10203000808387E4F6018083F701108283E5F8014D
:10204000808388E4F6018083F7011082F801108212
:1020500089E4F6018083F7011082A4E45A2EF80186
:1020600050828AE4F6018083F7011082F4E07F2E2B
:10207000F80170828BE4F6018083F701108287E615
:10208000F80180839CE4F6019083F701108283E3DA
:10209000F80180838DE4F6018083F701108287E7E1
:1020A000F80180838EE4F6018083F701108282E1DB
:1020B000F80180838FE4F6018083F7011082F80134
:1020C000908380E5F6018083F7011082F801208378
:1020D00081E5F6018083F7011082F8015082E2E089
:1020E000AE2EF601A082F7011082F801108283E083
:1020F000F6018083F7011082F8011082F6017082E8
:10210000F7011082F801108285E0F6018083F70163
:1021100010828FEEF801808396E0F6019083F7013C
:102120001082F801108277E0372EF6013082F70135
:102130001082F801108288E0F6018083F701108296
:1021400088248394F801808289E0F6018083F70176
:1021500010828FE3F8018083F6018082F7011082FC
:10216000F801908386E1F6018083F701108288E60A
:10217000F801808383E2F6018083F701108265E92C
:10218000662EF801608284E2F6018083F7011082F6
:10219000F801608285E2F6018083F70110828FEFFB
:1021A000F801808387E2F6018083F7011082F8014D
:1021B000A08288E2F6018083F7011082F801A082F4
:1021C00089E2F6018083F7011082F801A0828AE299
:1021D000F6018083F7011082F801A0825CE2252ECF
:1021E000F6012082F7011082F801A0828DE2F6014B
:1021F0008083F7011082F801A0828AE3F6018083D0
:10220000F7011082F80180828BE3F6018083F701E9
:102210001082F80110824CE3442EF6014082F7014F
:10222000108230EF932EF80190828DE3F6018083C7
:10223000F7011082F801108282E00E947D6885E338
:10224000F6018083F701108298E3F801908386E31A
:10225000F6018083F701108288E7F80180838EE31E
:10226000F6018083F7011082F801908320E4B22EFA
:10227000F601B082F70110829FE0F801908381E4BB
:10228000F6018083F7011082F801908289E1F6015E
:102290008083F701108289E4F801808383E9F601E5
:1022A0008083F7011082F801908382E00E947D68AC
:1022B00080E2F6018083F7011082F801B0828DE19F
:1022C000F6018083F7011082F80130828EE1F60179
:1022D0008083F7011082F80110828FE1F60180837C
:1022E000F7011082F8017082F6015082F701108226
:1022F0008DE4F801808385E4F6018083F701108284
:102300008EE0F801808382E00E947D688CE1F60116
:102310008083F7011082F801708283E00E947D685B
:102320009BE1B92EF601B082F701108288E1F80135
:10233000808382E00E947D68F601B082F7011082FE
:1023400080E1F801808382E00E947D6883E4F601E9
:102350008083F701108280E8F801808383E00E9487
:102360007D6880E9F6018083F70110828FE7F8012C
:10237000808386E2B82EF601B082F7011082F80160
:10238000708282E00E947D68F601B082F7011082BF
:1023900084E2F8018083F601B082F7011082F8012F
:1023A000208282E00E947D68F601B082F7011082EF
:1023B000F801408287E5F6018083F7011082F80179
:1023C000A082F6016082F7011082F8018082F60196
:1023D0008083F7011082F80110821F910F91FF9006
:1023E000EF90DF90CF90BF90AF909F908F907F90B5
:1023F0006F905F904F903F902F9008952F923F9253
:102400004F925F926F927F928F929F92AF92BF9204
:10241000CF92DF92EF92FF920F931F93FA01D901AF
:102420008FE391E0918380838FEE90E011969C93EF
:102430008E93A0EFCA2EAFE7DA2E83EEF6018083EB
:10244000F9EFEF2EFFE7FF2E80E3F701808301EF26
:102450001FE7E8E06E2EF801608287EEF6018083C8
:10246000F701108272E1772EF80170828FEEF6018B
:102470008083F701708261E3362EF8013082F60125
:102480001082F701108288248394F801808282E30D
:102490000E947D68F6018082F7011082F8011082A7
:1024A00052E0B52EF601B08247E0542EF70150827B
:1024B000F801108283E0F601808330E1432EF701BA
:1024C000408228E3222EF801208284E0F6018083F6
:1024D000F7011082F8011082F6016082F701B082E4
:1024E000F801B08289E0F6018083F7011082F801DB
:1024F00010828AE0F6018083F7011082F8011082D1
:102500008CE0F6018083F7011082F80110828DE0E3
:10251000F6018083F7011082F80110828FE0F60146
:102520008083F7011082F8011082F6014082F701E2
:102530001082F801108291E1A92EF601A082F70124
:102540001082F8015082F6017082F7011082F801C2
:10255000108283E1982EF6019082F7011082F80133
:10256000108288EC0E947D68F601408286E1F701C6
:10257000808380E9F8018083F601A082F701B082B0
:1025800087E2F801808382E30E947D68F601708211
:10259000F70110828AE1F801808382E30E947D685E
:1025A000F601908288E1F7018083F801108289E2C8
:1025B000F6018083F70110828AE2F801808382E3CA
:1025C0000E947D6880E2F6018083F7011082F801A5
:1025D000108281E2F6018083F7011082F8011082F7
:1025E00080E3F6018083F7011082F8015082F60142
:1025F000308296E0F701908385E0F801808382E3E2
:10260000F6018083F7018082F801908385E3F6016B
:102610008083F701B082F801908386E3F60180831E
:10262000F7016082F801608287E3F6018083F70199
:102630001082F8015082F6012082F701B082F80181
:10264000808289E3F6018083F7011082F8015082CD
:102650008CE3F6018083F7019083F801B0828DE36B
:10266000F6018083F7016082F801608280E5F6015F
:102670008083F7011082F801108281E5F6018083E2
:10268000F70110828FEEF801808382E5F6018083E6
:10269000F7011082F801108283E5F6018083F701CB
:1026A00080828FE3F801808380E6F601808387EAE9
:1026B000F7018083F801108281E6F6018083F7013B
:1026C0001082F80180828AE6F6018083F701108289
:1026D000F801108280E8F6018083F7011082F8018A
:1026E000108281E8F6018083F7011082F8011082E0
:1026F00082E8F6018083F7011082F801108283E8F6
:10270000F6018083F7011082F801108284E8F60157
:102710008083F7011082F801108285E8F60180833A
:10272000F7011082F801108280E9F6018083F70139
:102730001082F801408282E9F6018083F70110825D
:10274000F801108283E9F6018083F701108283E0AB
:10275000F801808385E9F6018083F7018082F80122
:10276000408287E9F6018083F7011082F801108228
:1027700088E9F6018083F7011082F8011082F601E2
:102780005082F701808283E3F80180831F910F91CB
:10279000FF90EF90DF90CF90BF90AF909F908F9081
:1027A0007F906F905F904F903F902F900895BF92D1
:1027B000CF92DF92EF92FF920F931F93DF93CF930D
:1027C00000D000D00F92CDB7DEB70E94B532809313
:1027D0003D041092ED0382E0B82E03E0C02E11EA12
:1027E000D12EEE24E394B4E0FB2E7CC080916100F6
:1027F00082608093610080916200826080936200B9
:1028000086E00E947D688091610082608093610013
:10281000809162008D7F809362008AE00E947D68D3
:10282000809161008260809361008091620082608B
:102830008093620084E10E947D681092F07F809115
:10284000F17F2091FA7F122F00E090E0802B912BF6
:102850009093EC038093EB038091EB039091EC0356
:10286000892B61F584E60E947D68D092F07F8AE032
:102870000E947D688091F17F89838091F17F8A83B6
:102880008091F17F8B838091F17F8C838091F17FA8
:102890008D838981813079F48A81873561F48B81D8
:1028A000813649F48C81813031F48D818F3F19F468
:1028B000F092ED0317C0E092ED0314C08091EB039A
:1028C0009091EC038552934919F4C092ED030AC02C
:1028D0008091EB039091EC0380708050994811F443
:1028E000B092ED038091ED03882309F47FCF8091AE
:1028F000ED03813051F480913D0460E04BE354E0FE
:1029000023E334E00E94EC0F29C08091ED03833073
:1029100051F480913D0460E04BE354E023E334E064
:102920000E94FE111BC08091ED03843051F4809110
:102930003D0461E04BE354E023E334E00E940B16D6
:102940000DC08091ED03823049F480913D0460E038
:102950004BE354E023E334E00E940F0E82E28093C5
:10296000F07F0F900F900F900F900F90CF91DF910D
:102970001F910F91FF90EF90DF90CF90BF9008953F
:1029800013BC80E887BB8CE685BD889A899A159A26
:102990000E94100B0E94D7138FEF9FEF0E94F00848
:1029A0008091E70383BD08950F931F93809147049F
:1029B000813009F465C0813020F0823009F028C1EF
:1029C000A5C060913E0470913F046E5B7040882703
:1029D00077FD8095982F0E94CF7620E030E040EF81
:1029E00050E40E9434760E949C767093EA036093D0
:1029F000E9038091F403882361F00E947408209118
:102A0000E9033091EA03821B930B9093EA038093CE
:102A1000E9038091E9039091EA0397FF04C01092C3
:102A2000EA031092E9030091E9031091EA030E947E
:102A300074088017910730F40E9474089093EA0399
:102A40008093E9036091F2037091F3036C5D704031
:102A5000882777FD8095982F0E94CF7623E333E374
:102A600043E950E40E9434760E949C7670934604B9
:102A7000609345048091F003882309F0B0C0A3C09F
:102A80006091F2037091F30366587140882777FDD7
:102A90008095982F0E94CF762DEC3CEC4CE351E4CE
:102AA0000E9434760E949C767093EA036093E90357
:102AB0008091F403882361F00E9474082091E90357
:102AC0003091EA03821B930B9093EA038093E9030E
:102AD0008091E9039091EA0397FF04C01092EA0302
:102AE0001092E9030091E9031091EA030E9474082F
:102AF0008017910730F40E9474089093EA03809342
:102B0000E90360913E0470913F0445C060913E042A
:102B100070913F0466587140882777FD8095982F03
:102B20000E94CF762DEC3CEC4CE351E40E943476CD
:102B30000E949C767093EA036093E9038091F4030A
:102B4000882361F00E9474082091E9033091EA0320
:102B5000821B930B9093EA038093E9038091E9032E
:102B60009091EA0397FF04C01092EA031092E903E0
:102B70000091E9031091EA030E94740880179107FD
:102B800030F40E9474089093EA038093E903609103
:102B9000F2037091F3036A5F7040882777FD809598
:102BA000982F0E94CF7623E333E343EF50E40E9453
:102BB00034760E949C76709346046093450480911D
:102BC000F003882361F00E946E0820914504309143
:102BD0004604821B930B9093460480934504809196
:102BE00045049091460497FF04C010924604109249
:102BF000450400914504109146040E946E08801718
:102C0000910730F40E946E08909346048093450427
:102C10001F910F9108951F93162FFA01D90181304A
:102C200009F495C0813020F0823009F0EAC12AC150
:102C3000109247048FE193E0918380838FED91E0C0
:102C400011969C938E9380916D008C6080936D00A3
:102C500082EE0E942D0783E20E94300782E00E94EC
:102C6000300784E00E94300780EE0E942D0781E04B
:102C70000E94300781E00E947D6880EE0E942D074F
:102C800083E00E94300785E00E947D6881E00E9419
:102C90002D0785E00E947D6880916D00837F809381
:102CA0006D0086EE0E942D0783E00E9430078FEFB3
:102CB0000E9430078FEF0E94300780EB0E942D07A3
:102CC00087E20E94300780E00E94300783E00E9484
:102CD00030078FE10E94300781E00E9430078FEDBE
:102CE0000E94300780E00E94300784EB0E942D078D
:102CF00083E00E94300780EA0E94300780E00E9453
:102D000030078EE20E94300780E30E94300780E0A7
:102D10000E9430078FE00E94300780E00E94300759
:102D200086EB0E942D0782E00E9430078DE00E9412
:102D3000300780E00E94300780E10E94300780E188
:102D40000E94300780E00E94300788E08EC08093A8
:102D500047048FED91E0918380838FE091E011969D
:102D60009C938E9380916D008C6080936D0082EEB9
:102D70000E942D0783E20E94300782E00E94300704
:102D800084E00E94300780EE0E942D0781E00E94BF
:102D9000300781E00E947D6880EE0E942D0783E06D
:102DA0000E94300785E00E947D6881E00E942D0727
:102DB00085E00E947D6880916D00837F80936D0027
:102DC00086EE0E942D0783E00E94300783E30E9475
:102DD000300782E30E94300780EB0E942D0780E0DD
:102DE0000E94300780E00E94300781E00E94300797
:102DF0008FED0E94300781E00E9430078FE00E9433
:102E000030078DE20E94300784EB0E942D0782E09C
:102E10000E94300783E10E94300780E00E94300763
:102E20008BE20E94300781E00E94300780E00E9420
:102E3000300788E00E94300780E00E94300786EB70
:102E40000E942D0781E00E94300780E20E94300737
:102E500080E00E9430078CE00E9430078AE00E94E8
:102E6000300780E00E94300784E00E9430078AEB40
:102E70000E942D078FE00E94300788EB0E942D07EB
:102E800087E09DC0809347048FED91E0918380831C
:102E90008FE091E011969C938E9380916D008C60F1
:102EA00080936D0082EE0E942D078DE20E94300714
:102EB00082E00E94300784E00E94300780EE0E948A
:102EC0002D0781E00E94300781E00E947D6880EE3E
:102ED0000E942D0783E00E94300785E00E947D68F4
:102EE00081E00E942D0785E00E947D6880916D0041
:102EF000837F80936D0086EE0E942D0780E00E9404
:102F000030078FEF0E9430078EEB0E94300780EB76
:102F10000E942D0780E20E94300780E00E94300767
:102F200081E00E9430078FED0E94300781E00E940F
:102F300030078FE00E94300780E00E94300785E074
:102F40000E947D6884EB0E942D0782E00E9430077A
:102F500083E10E94300780E00E9430078BE20E94EC
:102F600030078AE00E94300780E00E94300788E046
:102F70000E94300780E00E94300786EB0E942D07F8
:102F800081E00E94300780E20E94300780E00E94CA
:102F900030078CE00E9430078AE00E94300780E012
:102FA0000E94300784E00E9430078AEB0E942D07C0
:102FB00080E00E94300788EB0E942D0780E00E948D
:102FC000300781E00E94300786E30E942D0711231D
:102FD00011F083E001C080E00E94300780EF0E9482
:102FE0002D0783E00E94300785E00E947D6889E21A
:102FF0000E942D0780ED0E942D078DE00E94300772
:1030000005C01182108211961C921E921F91089584
:10301000482F209188073091890789E190E0289F07
:10302000D001299FB00D389FB00D1124A55BBB4F77
:103030008C91873114F080E00895E82FFF27E7FD99
:10304000F095EA0FFB1F42838F5F8C938091DD0523
:1030500084278093DD0581E008958091EA05882327
:1030600039F080917F0780939C001092EA050895C3
:1030700080918107882329F080939C00109281071A
:10308000089580918007882329F080939C001092F6
:10309000800708958091DB059091DC0581309105D2
:1030A00021F0029709F05FC039C04091E6055091C8
:1030B000E7052091DE053091DF0589E190E0489F2A
:1030C000D001499FB00D589FB00D1124A151BA4FA6
:1030D000FD01E20FF31F928190937F0781E08093BF
:1030E000EA0580914A04892780934A04822F8068E8
:1030F00080939C002F5F3F4F3093DF052093DE05C8
:103100008C91992787FD90958217930789F582E026
:1031100090E09093DC058093DB05089580914A044C
:10312000809580937F0781E08093EA058091DE059A
:10313000806480939C0083E090E09093DC05809312
:10314000DB05109284078091E6059091E7050196D2
:103150009093E7058093E605409754F01092E705B9
:103160001092E605089580919A008F7D80939A00D1
:103170000895823010F080E00895E82FF0E0EE0F1F
:10318000FF1FE052FA4F7183608381E0089582301F
:1031900018F0E0E0F0E009C0E82FF0E0EE0FFF1FCC
:1031A000E052FA4F0190F081E02DCF0108950FB663
:1031B000F8940F922091E8053091E9058091E60599
:1031C0009091E705281739070CF4205F281B0F9012
:1031D0000FBE80E0283008F481E00895EF92FF925E
:1031E0000F931F93849B25C01092EC051092EB0562
:1031F00080919A008F7D80939A0080919A008F77BA
:1032000080939A0010929A0087B78B7F87BF1EBC6D
:10321000109283071092820783E090E09093DC0580
:103220008093DB0510928707109284071092EA05BD
:103230004BC08091EB059091EC05892B09F044C0BF
:103240001092800710929B0088E180939A0086E29A
:1032500080939D0080919D0086FF06C0E12CFBE4D9
:10326000FF2E012D112D11C080919B0081FD07C003
:10327000E12CE8E5FE2EE2E00E2F112D06C0E12C38
:103280007CE2F72E71E0072F112D0E941E69A80124
:1032900097010E94DF792F5F3F4F4F4F5F4F569549
:1032A00047953795279521503040209399003093CA
:1032B000980081E090E09093EC058093EB0580917D
:1032C0009A00806880939A001F910F91FF90EF9071
:1032D00008950E94EE188091EB059091EC050895F9
:1032E0009C018130910509F477C08130910548F047
:1032F0008230910509F472C08330910509F083C0D2
:103300007AC095988D9A1092ED051092EE05109264
:1033100087071092EA051092EC051092EB050E94C7
:103320001E690E94CD7620E030E040E150E40E942A
:10333000047820E030E04AE754EC0E94347620E044
:103340003FEF4FE757E40E94CC750E94A17670933F
:103350008607609385070E941E690E94CD7620E053
:1033600030E04AE754EC0E94347620E03FEF4FE72C
:1033700057E40E94CC750E94A1767093E505609396
:10338000E40586E293E061E57BE141E050E00E94E4
:10339000457080E293E061E57BE142E050E00E940D
:1033A00045708CE293E06DE278E140E050E00E94ED
:1033B000457086E091E069ED7AE140E050E020E080
:1033C00032E00E94736D1092810710928307109271
:1033D00082078D9A959A17C081E00EC085E0809390
:1033E000810780919A00806280939A003093EC0567
:1033F0002093EB0508C082E08093810780919A00BA
:10340000806280939A0080E008958091DB0590911E
:10341000DC05039779F4809184078F5F809384079C
:10342000853040F01092DC051092DB058CE793E0CC
:103430000E94276C0895AC01209148043091490402
:1034400080918807909189078217930711F480E093
:10345000089589E190E0289FF001299FF00D389FA1
:10346000F00D1124E55BFB4F2081332727FD3095BC
:103470002E5F3F4FCA01BF01A9010E94E57B0FB635
:10348000F8940F928091480490914904019690938A
:10349000490480934804409724F010924904109204
:1034A00048040F900FBE81E00895CF93DF93EC01A5
:1034B00008C08EE793E040E050E060E070E00E94DA
:1034C0007C6CCE010E941B1A882399F3DF91CF9167
:1034D0000895EF92FF920F93CF93DF937C01062F15
:1034E0006230B8F44091E8055091E905EA0121966F
:1034F000C031D10514F0C0E0D0E00FB6F8940F92BF
:103500008091E6059091E705C817D90721F40F903F
:103510000FBE80E048C00F900FBED701EC91E8319C
:1035200014F08FEF40C089E190E0489F9001499FDF
:10353000300D589F300D11242F503A4FFF27E7FDD3
:10354000F095A7014E5F5F4FC901BA01AF010E941C
:10355000E57B8091E8059091E905E02FF0E0EE0F22
:10356000FF1FE052FA4F20813181A9E1B0E08A9F2C
:10357000F0018B9FF00D9A9FF00D1124E151FA4F4D
:1035800023833483D7018C9180830FB6F8940F92F4
:10359000D093E905C093E8050F900FBE8CE793E048
:1035A0000E94276C81E0DF91CF910F91FF90EF9007
:1035B00008958CE30E94B5678CE793E040E050E00B
:1035C00060E070E00E947C6C4091EB055091EC054E
:1035D0004130510589F78091DB059091DC05892BFD
:1035E00059F72091E6053091E7058091E805909123
:1035F000E9052817390701F31092DF051092DE055F
:1036000010924A041092EA055093DC054093DB05C2
:1036100080919A00806280939A00CECF8091EB05D2
:103620009091EC050197D9F5209188073091890791
:1036300089E190E0289FF001299FF00D389FF00D5F
:103640001124E55BFB4F948180E0238130E0282B3F
:10365000392B558146816091E0057091E10526176F
:103660003707E9F0A091E205B091E3052A173B077F
:10367000B1F0942F80E0452F50E0482B592B8781E3
:1036800087FF04C0CA010E94E21C0895461757072D
:1036900021F080E04A175B0719F481E0089580E08B
:1036A00008959C018130910531F460919B006C710B
:1036B00070919C0006C087B78B7F87BF1EBC70E0EF
:1036C00060E0109284074091820750918307443054
:1036D000510568F44230510508F061C041155105AB
:1036E00009F4C1C04130510509F04BC105C0443057
:1036F000510509F046C134C02130310571F5809182
:103700008507909186079DBD8CBD662329F4872F80
:103710000E940818882339F484E090E0909383078E
:10372000809382070895209188073091890789E165
:1037300090E0289FF001299FF00D389FF00D112493
:10374000E55BFB4F8081863009F023C10E940E1B90
:10375000882309F41EC181E1F1C082E090E00CC031
:103760002130310539F480918507909186079DBD00
:103770008CBD089583E090E0909383078093820747
:103780008091E4059091E5059DBD8CBD81E08EBDE5
:1037900086B7846086BF87B7846087BF089521306D
:1037A000310561F5662381F42091880730918907FE
:1037B00089E190E0289FF001299FF00D389FF00DDE
:1037C0001124E55BFB4F71831092DC051092DB0541
:1037D000E0917C03F0917D03309739F48FEF9FEFF8
:1037E00090937D0380937C0309C08FEFEF3FF80730
:1037F00029F0848195810196958384838091DD05EC
:103800008F3F41F54230510529F58091880790910D
:10381000890701969093890780938807409724F041
:103820001092890710928807E0917E03F0917F0340
:10383000309739F48FEF9FEF90937F0380937E034F
:1038400009C08FEFEF3FF80729F084819581019639
:103850009583848387B78B7F87BF1EBC10928307B5
:103860001092820708952230310509F492C0662330
:1038700009F08FC0733039F581E08093ED0581E068
:1038800090E09093EC058093EB051092EA0510927E
:10389000DC051092DB05E0917C03F0917D0330970D
:1038A00039F48FEF9FEF90937D0380937C0308950D
:1038B0008FEFEF3FF80709F46CC084819581019682
:1038C000958384830895272F30E0C9018770907015
:1038D000079731F47093EE0581E080938707089590
:1038E000237130702031310509F053C08091850774
:1038F000909186079DBD8CBD81E08EBD86B78460AA
:1039000086BF87B7846087BF409188075091890739
:103910009A012F5F3F4F2031310514F020E030E055
:1039200080914804909149042817390779F484E07C
:1039300090E0909383078093820783E180938007D0
:1039400080919A00806280939A00089581E090E0CF
:10395000909383078093820789E190E0489FF0016C
:10396000499FF00D589FF00D1124E55BFB4F11822C
:103970001082109280071092DD05872F0E94081890
:103980000895109283071092820787B78B7F87BFB5
:103990001EBC08958036910511F08FEF089580E0E8
:1039A00008951092BB071092BA0708950895809168
:1039B000B40782958F70089587708295807F809379
:1039C000B40708950E94213E892F8095881F88277B
:1039D000881F08951092BB071092BA078DE091E0FE
:1039E0006FE07DE140E050E020E032E00E94736D46
:1039F00086E191E068EC7EE140E050E020E032E0DA
:103A00000E94736D80E090E00E9470190E941D3446
:103A100080E68093B40708950E94551A0895DF93B5
:103A2000CF93CDB7DEB769970FB6F894DEBF0FBE60
:103A3000CDBF82E30E94B56783E0E82EF12CEC0E47
:103A4000FD1ECE010A969E01255F3F4F6E01089430
:103A5000C11CD11C4C015901C6010E94551AC60156
:103A60000E94DE24888587FF1DC0F7010381148131
:103A700045814F70415011F0B50105C0F7018781B4
:103A80008F738783B401C8010E940B5A882321F3E6
:103A9000C8010E941646C8010E94B538C8010E949C
:103AA0001646DACF80E00E94C718D6CF0E941B1AB4
:103AB0000895FC01329625813091B407232B25838C
:103AC00060E00E94691A08951F93DF93CF93CDB7EA
:103AD000DEB769970FB6F894DEBF0FBECDBFFB010E
:103AE000142FDE0113962CEB2B8314969C938E934C
:103AF0001397842F8F5F8F70806815968C9315971E
:103B000016961C92169780E817968C931797442365
:103B100041F09E01255F3F4FC90150E00E94E57BC7
:103B200005C080818F73806817968C93185F198306
:103B3000CE0101960E94591D69960FB6F894DEBF1A
:103B40000FBECDBFCF91DF911F910895DF93CF932B
:103B5000CDB7DEB769970FB6F894DEBF0FBECDBF05
:103B6000682F80EB8B838091B5078E838091B80797
:103B70008F8318862091BD07621751F0462F50E0C1
:103B8000CA0101978F70907030E08217930751F44B
:103B9000862F90E08F709070880F991F880F991F63
:103BA000826C08C04F705070440F551F440F551F52
:103BB000842F836C898787E08983CE0101960E94D8
:103BC000591D69960FB6F894DEBF0FBECDBFCF91D9
:103BD000DF910895DF93CF93CDB7DEB769970FB626
:103BE000F894DEBF0FBECDBF90EB9B838E836F83B7
:103BF000188681E8898787E08983CE0101960E9433
:103C0000591D69960FB6F894DEBF0FBECDBFCF9198
:103C1000DF9108950F93CF93DF93982FFA01022F2E
:103C2000222311F480E029C0CCE8D7E080EB809318
:103C30008C0790938F0760939007822F81508F702D
:103C4000809391079091B707990F990F90648081A5
:103C5000892B80839E012A5F3F4FC901BA01402F03
:103C600050E00E94E57B0A5F00938A078CE3809313
:103C7000B607CE0102970E94591DDF91CF910F9197
:103C80000895AC01262F1092B9078EE18093B307F7
:103C90008CE38093B60782E090E09093BB0780931B
:103CA000BA078091B5076091B8070E940A1E08956F
:103CB000FC01808590E083709070782F6627818565
:103CC00090E0682B792B23E06030720779F483E071
:103CD0008093A30780E48093A4071092A50782E154
:103CE0008093A60783EA97E064E02FC0CB01807F32
:103CF0008050924069F56F70928580E0238530E0B6
:103D0000282B392B82E08093A307862F8064809331
:103D1000A40782858093A50783858093A607E7EA99
:103D2000F7E0862F90E08E0F9F1F09C020363105E7
:103D300011F440E001C04FEF41932F5F3F4FE81770
:103D4000F907A1F76C5F83EA97E00E94411E08958E
:103D5000CB01807C80589140D1F43285832F90E054
:103D60009695982F88279795879521E02093A3070C
:103D7000262F206C2093A4073093A5079093A607C5
:103D80008093A70783EA97E065E00E94411E0895AB
:103D900087E30E94B5670EE11CE364E670E080E013
:103DA00090E00E942D6A8091BA079091BB07892B01
:103DB000A1F38091B3078823F9F081508093B30772
:103DC0008823D1F48091B907853060F48F5F8093A8
:103DD000B9070093B3071093B6078AE897E00E94EB
:103DE000591D0AC08091B5076091B8070E94EA1D6D
:103DF0001092BB071092BA078091B607882369F228
:103E000081508093B607882341F68091B507609171
:103E1000B8070E94EA1D1092BB071092BA07BDCFE7
:103E20001F93182FD901CA01860F971F8150904800
:103E300020F040E050E8461B570BFB01E050F048F3
:103E40009A017AEA65E590EA19C01092FC7F109217
:103E5000F97F709355856093AA829093558510934E
:103E6000FC7F8C918093F97F11968C9111978083C0
:103E7000869BFECF12962150304031962115310598
:103E800021F7CA011F9108951092FC7F1092F97FCB
:103E90003AEA3093558525E52093AA8290E89093DD
:103EA0005585309355852093AA828093FC7F80E3CB
:103EB00080930080869BFECF08951092FC7F109225
:103EC000F97F2AEA2093558595E59093AA8280E8A8
:103ED00080935585209355859093AA8280E18093A5
:103EE0005585869BFECF0895109280031092FC7F2B
:103EF0001092F97F80EF80935585869BFECF0895C1
:103F0000E82F80918003882361F481E0809380030F
:103F10001092FC7F1092F97F88E980935580869BF0
:103F2000FECF0FB6F8940F92F0E0E050F048808199
:103F30000F900FBE0895FB018093FC7F1092F87FD5
:103F40000FB6F8940F92E050F04840812091FA7F2C
:103F50000F900FBE942F80E030E0282B392BC90141
:103F600008951F934CEF5FE7FA011081A8EFBFE7B8
:103F70009C9180831C92FB0160812091FA7F9C932D
:103F8000FA011083962F80E030E0282B392BC901ED
:103F90001F910895DC01CB019D01442755272093F3
:103FA000FC7F1092F87F0FB6F8940F92B695A79504
:103FB000979587959F7780509048FC01408120918C
:103FC000FA7F0F900FBE942F80E030E0282B392B22
:103FD000C9010895109280038F9A8E9880E482BB65
:103FE00097980000000000000000979A869BFECF83
:103FF0001092FC7F08952F923F924F925F926F92A2
:104000007F928F929F92AF92BF92CF92DF92EF9268
:10401000FF920F931F93DF93CF930F92CDB7DEB72D
:104020004A015B0162E70E94695C813011F081E026
:1040300087C080E092E00E94C9718C01009721F452
:104040000E944D5A82E07CC00E94923280916D00A5
:10405000826080936D0085B7806485BF44244A9454
:10406000CC24DD247601C80160E072E00E94645B2C
:104070001C01C101AA2797FDA095BA2FC80ED91E11
:10408000EA1EFB1EC701B6010E943A2680E02816F0
:1040900082E038061CF0E1E0E98305C01214130445
:1040A0000CF040C019823801D501C4012FE0B6954B
:1040B000A795979587952A95D1F7FFE75F2E582208
:1040C000541419F0852D0E94441FB4017F77A1017B
:1040D0004F5F5F4F55954795852D93010E94101FA7
:1040E000AC019C01220F331F2216330624F4222434
:1040F0003324198202C0221A330ACA01AA2797FD63
:10410000A095BA2F880E991EAA1EBB1E2114310439
:1041100021F0620E731E452CC7CF452CF981F1307A
:1041200009F4A1CF0E944D5AC8010E94C371809129
:104130006D008D7F80936D0085B78F7B85BF80E09C
:104140000F90CF91DF911F910F91FF90EF90DF9033
:10415000CF90BF90AF909F908F907F906F905F9027
:104160004F903F902F900895FF920F931F93082F29
:10417000F62E90E0860F911D8138910514F081E0B4
:1041800024C00E94923280916D00826080936D0005
:1041900085B7806485BF602F70E080E090E00E946A
:1041A000662110E0812F0E94DD26812F8F0D0E9455
:1041B000441F1F5F0117B0F780916D008D7F8093C2
:1041C0006D0085B78F7B85BF80E01F910F91FF90B9
:1041D0000895F901A281B3818A179B07A8F424816D
:1041E00035816217730780F4840F911DA817B907F2
:1041F00058F490E0625E7F4F2617370708F091E091
:1042000081E09827892F089580E090E008958091BB
:10421000D9070895982F8091CB07981718F02FE1B0
:1042200031E00AC02091D1073091D20781E3989FF5
:10423000C0011124280F391FC90108951092CD071C
:104240001092CC071092C30708958091D7079091E0
:10425000D8070A969093D8078093D7078F3B91058C
:10426000D0F08FE090E09093D8078093D7078091AB
:10427000C1079091C2078F5F9F4F39F487EF9DEB85
:104280009093C2078093C10708958FEF9FEF90939B
:10429000C2078093C10708958091C307882319F04E
:1042A00081E090E008958091CC079091CD07009730
:1042B00011F081E090E008958091CC079091CD07B6
:1042C00020E0892B09F021E0822F08950F931F939E
:1042D0006093C4077093C5078093C6079093C70780
:1042E0008CE293E66AE070E048E750E026E331E0D4
:1042F0000CE810E00E942B091F910F9108950F9375
:104300001F938FEF9FEF6AE070E048E750E026E3ED
:1043100031E00CE810E00E942B091F910F910895E5
:10432000EF92FF920F931F937C014091CF07509122
:10433000D0074F5F5F4F8091D9072DE0829FC0016A
:104340001124480F591F6091D5077091D6079B0122
:104350002B5F3F4F8A01085F1F4F82EB94E96F5F2D
:104360007F4F4C5F5F4F0E942B098091D9079701C7
:10437000280F311D8091C00790E0281739071CF0E5
:1043800020E030E005C037FF03C09C0121503040E1
:104390002093D9074091CF075091D0074F5F5F4FCF
:1043A0008DE0289FC0011124480F591F6091D50747
:1043B0007091D6079B012C5F3F4F8A01095F1F4F09
:1043C00080E098EF6E5F7F4F4B5F5F4F0E942B093D
:1043D0001F910F91FF90EF900895CF92DF92EF928F
:1043E000FF920F931F93D82EC62E8091C30787305C
:1043F00009F044C0E090C107F090C2070E946E0827
:104400009C010091D7071091D807C70160E070E0C8
:10441000A801065F1F4F0E942B0981E090E0609188
:10442000D7070E947A0B8DB79EB70A970FB6F894FC
:104430009EBF0FBE8DBFEDB7FEB73196ADB7BEB70D
:1044400012961C921E9211978091C1079091C207FB
:10445000938382838DE995E095838483D682178246
:10446000C08611860E94470C8DB79EB70A960FB67C
:10447000F8949EBF0FBE8DBF0E9425211F910F9102
:10448000FF90EF90DF90CF9008954F925F926F92E0
:104490007F928F929F92AF92BF92CF92DF92EF92D4
:1044A000FF920F931F93DF93CF93CDB7DEB728977B
:1044B0000FB6F894DEBF0FBECDBF2B013C012983A0
:1044C0003A834B835C83ED82FE820F831887BC2C7A
:1044D0009B8CDC8CCD8C8091C307873009F024C184
:1044E000E090C107F090C2070E946E089C01009105
:1044F000D7071091D807C70160E070E0A801065FF8
:104500001F4F0E942B0981E090E06091D7070E9425
:104510007A0B8FEFD81639F5ADB7BEB718970FB62F
:10452000F894BEBF0FBEADBFEDB7FEB73196129681
:104530001C921E9211978FE190E09383828386E212
:1045400096E095838483882D90E0880F991F880FCB
:10455000991F8E549D4F978386830E94470C8DB779
:104560009EB70896DAC0DD2059F1ADB7BEB71C97EB
:104570000FB6F894BEBF0FBEADBFEDB7FEB7319614
:1045800012961C921E92119780E29DEF9383828374
:1045900084E096E09583848383E0C89EC001112463
:1045A0008A519D4F97838683882D90E0880F991FAD
:1045B000880F991F8E549D4F91878087D286A7C000
:1045C000282D30E0992009F078C0ADB7BEB75E97CE
:1045D0000FB6F894BEBF0FBEADBFEDB7FEB73196B4
:1045E00012961C921E9211978091C1079091C2075A
:1045F000938382838FEC95E09583848383E0C89EC8
:10460000C00111248A519D4F97838683220F331F47
:10461000220F331F2E543D4F318720874286538609
:10462000648675868B2D6AE00E94AB79992787FD99
:104630009095978786878B2D6AE00E94AB79892FAA
:10464000992787FD909597FF03C0909581959F4F7F
:10465000918B808B89819A81AB81BC81828B938B7A
:10466000A48BB58B8A2D6AE00E94AB79992787FDD0
:104670009095978B868B8A2D6AE00E94AB79892F63
:10468000992787FD909597FF03C0909581959F4F3F
:10469000918F808F8D819E81AF81B885828F938F1E
:1046A000A48FB58F0E94470CADB7BEB75E960FB60C
:1046B000F894BEBF0FBEADBF35C08DB79EB70C9787
:1046C0000FB6F8949EBF0FBE8DBFEDB7FEB7319603
:1046D000ADB7BEB712961C921E92119780E098EF6C
:1046E0009383828386EB95E09583848383E0C89EE1
:1046F000C00111248A519D4F97838683220F331F57
:10470000220F331F2E543D4F318720879286138608
:104710000E94470C8DB79EB70C960FB6F8949EBFBB
:104720000FBE8DBF0E94252128960FB6F894DEBFDC
:104730000FBECDBFCF91DF911F910F91FF90EF90F2
:10474000DF90CF90BF90AF909F908F907F906F90B1
:104750005F904F9008956F927F928F929F92AF9249
:10476000BF92CF92DF92EF92FF920F931F935B0164
:104770006C01642E822E702E9E2C8091C307873090
:1047800009F0B9C0E090C107F090C2070E946E081E
:104790009C010091D7071091D807C70160E070E035
:1047A000A801065F1F4F0E942B0981E090E06091F5
:1047B000D7070E947A0B992021F58DB79EB70897ED
:1047C0000FB6F8949EBF0FBE8DBFEDB7FEB7319602
:1047D000ADB7BEB712961C921E92119780E29DEF64
:1047E0009383828386E896E095838483882D90E086
:1047F000880F991F880F991F8E549D4F978386832A
:104800006EC0282D30E0772009F04AC08DB79EB7E2
:1048100040970FB6F8949EBF0FBE8DBF0DB71EB761
:104820000F5F1F4FADB7BEB712961C921E92119725
:104830008091C1079091C207F801938382838AE631
:1048400096E095838483220F331F220F331F2E544B
:104850003D4F37832683D8011896AD92BD92CD92F5
:10486000DC921B97662D772767FD7095872F972F12
:104870000E94CF7620E030E040E251E40E9434769E
:10488000F80164877587868797870E94470C8DB7E4
:104890009EB740960FB6F8949EBF0FBE8DBF29C03D
:1048A000ADB7BEB718970FB6F894BEBF0FBEADBF79
:1048B000EDB7FEB7319612961C921E92119780E0CA
:1048C00098EF9383828381E596E095838483220F1A
:1048D000331F220F331F2E543D4F378326830E94F0
:1048E000470CEDB7FEB738960FB6F894FEBF0FBE73
:1048F000EDBF0E9425211F910F91FF90EF90DF9057
:10490000CF90BF90AF909F908F907F906F900895C1
:10491000EF92FF920F931F938091C307873009F0A6
:1049200048C0E090C107F090C2070E946E089C0149
:104930000091D7071091D807C70160E070E0A80187
:10494000065F1F4F0E942B0981E090E06091D7071E
:104950000E947A0B8DB79EB70A970FB6F8949EBF48
:104960000FBE8DBFEDB7FEB73196ADB7BEB712968D
:104970001C921E9211978091C1079091C207938358
:1049800082838FE996E0958384838091FB078683F9
:1049900017828091F707808711860E94470C8DB798
:1049A0009EB70A960FB6F8949EBF0FBE8DBF0E94A9
:1049B00025211F910F91FF90EF9008954F925F92E4
:1049C0006F927F928F929F92AF92BF92CF92DF921F
:1049D000EF92FF920F931F93DF93CF93CDB7DEB784
:1049E00027970FB6F894DEBF0FBECDBF4C01809164
:1049F000C307843009F057C05401EE24FF24E1E0DE
:104A0000CE2ED12C73E0672E712C6C0E7D1E2E01E4
:104A10000894411C511C2BC0F501828189831A82A4
:104A2000C3016FEB76E0A2010E9463716091D7072A
:104A30007091D8070091C1071091C207C601A30168
:104A400020E030E00E94890A6C01F1E0EF16F104E9
:104A500021F083E0E816F10421F4ECEFFFEFCE0E35
:104A6000DF1E0894E11CF11C0894A11CB11CF40188
:104A70008081992787FD9095E816F9066CF2E09001
:104A8000C107F090C2070E946E089C010091D707F1
:104A90001091D807C701B601A801065F1F4F0E94F9
:104AA0002B090E94252127960FB6F894DEBF0FBE72
:104AB000CDBFCF91DF911F910F91FF90EF90DF90CD
:104AC000CF90BF90AF909F908F907F906F905F90AE
:104AD0004F900895CF92DF92EF92FF920F931F9322
:104AE000CF93DF93F901D8019093BF078093BE075E
:104AF0006093C0074093D9073093D6072093D5071A
:104B00001093D0070093CF07F092D407E092D30719
:104B1000D092CA07C092C907215030402E0D3F1DC8
:104B2000015010400C0D1D1D82EA90E1BF01AD0146
:104B30000E942B09C091CF07D091D0072196EE2477
:104B4000FF2445C06091D5077091D607AE014C5F38
:104B50005F4F9B012B5F3F4F8E01085F1F4F82EB22
:104B600094E96F5F7F4F0E942B098091D90790E0F5
:104B7000E816F90699F46091D5077091D607AE0151
:104B80004B5F5F4F9B012C5F3F4F8E01095F1F4FB3
:104B900080E098EF6E5F7F4F0E942B090091D50750
:104BA0001091D607085F1F4FE091BE07F091BF0735
:104BB0008E2D0995AC01C801BE012FEF3FEF02EB2E
:104BC00014E90E94890A2D960894E11CF11C809139
:104BD000C00790E0E816F9068CF48091C90790911F
:104BE000CA072091CF073091D007820F931F9E01F3
:104BF000225F3F4F2817390708F4A4CFDF91CF91E8
:104C00001F910F91FF90EF90DF90CF9008950F9339
:104C10001F938AE491E09093CD078093CC078FEFA8
:104C200095E00E94830B80E590E061E070E045E252
:104C300051E020E038EF0FEF15E00E94890A8AE486
:104C400091E0A0E0B0E08093C4079093C507A093E3
:104C5000C607B093C7078CE293E66AE070E048E7C6
:104C600050E026E331E00CE810E00E942B091F9190
:104C70000F910895AF92BF92CF92DF92EF92FF9281
:104C80000F931F935B016C01E090C407F090C50780
:104C90000091C6071091C70722E231E040E050E0E2
:104CA0000E948C79A80197010E94DF7989019A01FD
:104CB000015F1F4F80EE9FEF6FE070E041E850E032
:104CC000980103E810E00E942B09C601B50120E01D
:104CD00038E240E050E00E94DF79611571058105FE
:104CE0009105C1F58DB79EB70E970FB6F8949EBF8C
:104CF0000FBE8DBFEDB7FEB731968FE090E0ADB738
:104D0000BEB712969C938E93119783E690E093839F
:104D1000828380E098EF958384838FEF9FEF978362
:104D200086838DE699E091878087AAE0D694C79420
:104D3000B794A794AA95D1F7A286B386C486D586E0
:104D40000E941E0C8DB79EB70E960FB6F8949EBFAC
:104D50000FBE8DBF1F910F91FF90EF90DF90CF900E
:104D6000BF90AF9008958091CC079091CD07892B8B
:104D700019F18091CC079091CD0701979093CD07C1
:104D80008093CC078091CC079091CD07892B69F057
:104D90002091CC073091CD076AE471E0621B730B60
:104DA00080E090E00E943A26089580E00E94C230A0
:104DB0001092C3070E943F3A0895FF920F931F93EA
:104DC000F82E2091C4073091C5074091C607509135
:104DD000C707682F70E082E291E0DB01A89FB00175
:104DE000A99F700DB89F700D112480E090E00E9483
:104DF000DF7989019A01015F1F4F80E098EF6FE032
:104E000070E041E850E0980103E810E00E942B09AF
:104E1000EDB7FEB73C970FB6F894FEBF0FBEEDBFDF
:104E200031968FE090E0ADB7BEB712969C938E930B
:104E3000119783E690E09383828380E098EF9583D7
:104E400084838FE190E09783868381E899E091875E
:104E50008087F28613860E941E0CEDB7FEB73C9643
:104E60000FB6F894FEBF0FBEEDBF1F910F91FF90DC
:104E700008952F923F924F925F926F927F928F92FE
:104E80009F92AF92BF92CF92DF92EF92FF920F93D9
:104E90001F93DF93CF9300D000D0CDB7DEB73C0196
:104EA0007B01C42E29833A832C010894411C511C98
:104EB0005B010894A11CB11CDD244601880E991EDB
:104EC0001401089421083108CB014D969C838B83F3
:104ED00080E194E8B201A50191010B811C810E943F
:104EE0002B0980E090E0B301A701940185010E94A5
:104EF0002B098EE1A82EB12CAE0CBF1C80E090E0F7
:104F0000B301A701920185010E942B0980E090E086
:104F1000B101A70194010E942B0980E090E0B30148
:104F20004B815C8194010E942B09A981BA81FD010A
:104F300001900020E9F73197EA1BFB0B03E0EE0F2D
:104F4000FF1F0A95E1F7CE1ADF0AD694C794E8E06E
:104F5000F0E0EE0EFF1EC601860D971DB701AD01F4
:104F60002FE130E000E114E80E94890A0F900F90D1
:104F70000F900F90CF91DF911F910F91FF90EF90C5
:104F8000DF90CF90BF90AF909F908F907F906F9069
:104F90005F904F903F902F900895EF92FF920F9364
:104FA0001F93CF93DF938091D90721E3829FC001A4
:104FB0001124E090D107F090D207E80EF91E8FEF90
:104FC0009FEF0E94830B80E590E061E070E046E394
:104FD00051E020E030E00FEF1FEF0E94890A8AE0E5
:104FE00090E06EE170E04FE351E020E030E00E949D
:104FF000890A8AE090E06DE270E0A70120E030E0ED
:105000000E94890A8DB79EB70E970FB6F8949EBF7F
:105010000FBE8DBFEDB7FEB731968AE090E0ADB719
:10502000BEB712969C938E9311978CE390E0938376
:105030008283158214828FEF9FEF978386838BE3A1
:1050400097E091878087E7018DA59EA5AFA5B8A9B8
:105050002AE0B695A795979587952A95D1F78287E7
:105060009387A487B5870E941E0C8DB79EB70E96B6
:105070000FB6F8949EBF0FBE8DBFC7010E94C63306
:105080008823B1F482E890E06CE370E04AE451E0F8
:1050900020E030E000EE17E00E94890A81E090E015
:1050A00060E50E947A0B0E9435340E941D340CC0CA
:1050B00082E890E06CE370E043E551E020E030E00E
:1050C00000E018EF0E94890A8091D1079091D207E1
:1050D0000E94C3710E94F83286ED90E06CEC70E0A3
:1050E00044E629E531E00E94392783E08093C30735
:1050F000DF91CF911F910F91FF90EF900895CF9284
:10510000DF92EF92FF920F931F9382E08093C30789
:105110008FEF9FEF0E94830B8BE490E061E070E0E3
:105120004EE551E020E030E00FEF1FEF0E94890ACA
:105130001092CB078EE190E060E570E047E751E028
:1051400020E030E00E94890A8EE190E06EE570E098
:1051500043E851E020E030E00E94890A0E94653374
:10516000892B49F48EE190E06CE670E047E951E06C
:1051700020E038EF13C081ED97E00E94F932682FEC
:105180008093CB07882369F48EE190E06CE670E0B1
:1051900047EB51E020E038EF0FEF1FEF0E94890A44
:1051A0002BC08AE091E240E02AE030E004E110E028
:1051B0007CE2E72E71E0F72E50EAC52ED12C0E943A
:1051C0006A2584E090E06CEC70E04DE22CEC31E07C
:1051D0000E9439278CE290E06CEC70E04DE22FECFD
:1051E00031E00E9439278DE690E06CEC70E044E6F7
:1051F00026E331E00E94392786ED90E06CEC70E008
:1052000044E629E531E00E9439271F910F91FF9074
:10521000EF90DF90CF9008950F931F938BE490E071
:1052200061E070E044ED51E02FEF3FEF00E018EF58
:105230000E94890A88E290E06CEC70E044E622EE7D
:1052400031E00E94392785E08093C3071F910F91B9
:1052500008950F931F938FEF9FEF0E94830B8BE4B2
:1052600090E061E070E049EE51E020E030E00FEFC7
:105270001FEF0E94890A88E290E06CEC70E044E63F
:105280002AEF31E00E94392786ED90E06CEC70E067
:1052900044E629E531E00E9439278FE090E09093C1
:1052A000D8078093D7078FEF9FEF9093C207809323
:1052B000C10787E08093C3071F910F9108950F9353
:1052C0001F938FEF9FEF0E94830B8BE490E064E6C7
:1052D00070E047E052E020E030E00FEF1FEF0E9467
:1052E000890A84E090E06CEC70E044E629E132E069
:1052F0000E9439278DE690E06CEC70E044E620E2F5
:1053000032E00E94392786ED90E06CEC70E044E6D4
:1053100029E531E00E94392786E08093C3071F9179
:105320000F9108950F931F938BE490E061E070E07C
:1053300049E252E020E030E00FEF1FEF0E94890ABF
:1053400088E290E06CEC70E044E627E332E00E94F3
:10535000392784E08093C3071F910F9108958FEF41
:105360009FEF0E94830B86ED90E06CEC70E044E6CA
:1053700029E531E00E9439278FE090E09093D8072B
:105380008093D7078FEF9FEF9093C2078093C10759
:105390000E9492290895EF92FF920F931F93CF934B
:1053A000DF938FE190E00E94830B8BE490E061E05B
:1053B00070E04DE352E020EE3FEF0FE110E00E947D
:1053C000890A81E090E06EE10E947A0B00D000D063
:1053D00000D0EDB7FEB73196EE24EA94FE2CADB7BF
:1053E000BEB71296FC92EE92119700E018EF13836D
:1053F000028382E998E0958384830E94470CEDB78D
:10540000FEB73196ADB7BEB71296FC92EE921197E9
:105410001383028384E698E0958384830E94470C7B
:10542000EDB7FEB73196ADB7BEB71296FC92EE92CD
:1054300011971383028386E398E0958384830E9407
:10544000470CEDB7FEB73196ADB7BEB71296FC92DA
:10545000EE9211971383028388E098E0958384830A
:105460000E94470C2DB73EB72A5F3F4F0FB6F89406
:105470003EBF0FBE2DBF80E10E94801F813569F4C1
:1054800081E10E94801F823541F482E10E94801FE9
:10549000893519F481E08093810381E090E06AE529
:1054A0000E947A0B80918103882309F434C100D0D3
:1054B00000D000D0EDB7FEB73196A0EEEA2EAFEFE8
:1054C000FA2EADB7BEB71296FC92EE921197CFE1CD
:1054D000D0E0D383C2838DEE97E0958384830E94CE
:1054E000470C2DB73EB72A5F3F4F0FB6F8943EBF2B
:1054F0000FBE2DBF87E20E94801FADB7BEB71897C1
:105500000FB6F894BEBF0FBEADBFEDB7FEB7319674
:105510001296FC92EE921197D383C2832FED37E05F
:105520003583248390E00A9701E010E0980102C0DF
:10553000220F331F8A95E2F7378326830E94470C98
:105540008DB79EB708960FB6F8949EBF0FBE8DBF5D
:105550008BE10E94801FADB7BEB71A970FB6F894C3
:10556000BEBF0FBEADBFEDB7FEB731961296FC922F
:10557000EE921197D383C28320ED37E035832483E5
:10558000282F22952F702683178290E08F709070BD
:10559000918780870E94470C2DB73EB7265F3F4F0B
:1055A0000FB6F8943EBF0FBE2DBF8CE10E94801F46
:1055B000ADB7BEB71A970FB6F894BEBF0FBEADBF5A
:1055C000EDB7FEB731961296FC92EE921197D38307
:1055D000C28321EC37E035832483282F22952F7056
:1055E0002683178290E08F709070918780870E9449
:1055F000470C2DB73EB7265F3F4F0FB6F8943EBF1E
:105600000FBE2DBF80E20E94801FADB7BEB71897B6
:105610000FB6F894BEBF0FBEADBFEDB7FEB7319663
:105620001296FC92EE921197D383C28326EA37E05A
:1056300035832483980102C0220F331F8A95E2F735
:10564000378326830E94470C8DB79EB708960FB606
:10565000F8949EBF0FBE8DBF81E20E94801FADB740
:10566000BEB718970FB6F894BEBF0FBEADBFEDB76B
:10567000FEB731961296FC92EE921197D383C283B5
:105680002CE837E03583248302C0000F111F8A9570
:10569000E2F7178306830E94470C2DB73EB7285FB9
:1056A0003F4F0FB6F8943EBF0FBE2DBF85E10E945D
:1056B000801F8093C807882309F44EC08D5F0E9425
:1056C000801F182F8091C8078C5F0E94801FADB784
:1056D000BEB71C970FB6F894BEBF0FBEADBFEDB7F7
:1056E000FEB731961296FC92EE921197D383C28345
:1056F00026E637E035832483168317828087118658
:105700008091C807828713860E94470C2DB73EB749
:10571000245F3F4F1CC000D000D000D0EDB7FEB7D3
:10572000319680E098EFADB7BEB712969C938E93FA
:1057300011978FE190E0938382838AE497E09583C9
:1057400084830E94470C2DB73EB72A5F3F4F0FB6A8
:10575000F8943EBF0FBE2DBF0E94741F809181033D
:10576000882389F08DE690E06CEC70E044E621E55A
:1057700032E00E94392784E090E06CEC70E044E66F
:105780002DE532E007C086E490E06CEC70E044E682
:1057900021E532E00E94392786ED90E06CEC70E064
:1057A00044E629E531E00E94392788E08093C30769
:1057B000DF91CF911F910F91FF90EF900895DF92AD
:1057C000EF92FF920F931F93CF93DF9387EF9DEBA1
:1057D0000E94830B0E942D6D2DB73EB7285030409C
:1057E0000FB6F8943EBF0FBE2DBFEDB7FEB7319692
:1057F0000FE110E0ADB7BEB712961C930E93119750
:10580000CFEFDFEFD383C28322E639E035832483F1
:10581000978386830E94470C8DEF9FEDAC0166272E
:1058200057FD6095762F6BBFFA0147910197AA2724
:1058300097FDA095BA2FABBFFC01879100D0EDB7C3
:10584000FEB73196ADB7BEB712961C930E93119763
:10585000D383C28322E539E03583248346831782CC
:10586000808711860E94470C0F900F90EDB7FEB70E
:10587000319680E29DEFADB7BEB712969C938E93A2
:105880001197D383C28389E499E09583848386E664
:1058900092E0978386830E94470C2DB73EB7285F1E
:1058A0003F4F0FB6F8943EBF0FBE2DBF80E00E9461
:1058B000C718ADB7BEB71C970FB6F894BEBF0FBEE2
:1058C000ADBFEDB7FEB7319620E038EF12963C93AE
:1058D0002E931197D383C28325E339E03583248344
:1058E0009C01B4E036952795BA95E1F72F7030709A
:1058F000378326839C012F703070318720879287F1
:1059000013860E94470C8091DA072DB73EB7245FBB
:105910003F4F0FB6F8943EBF0FBE2DBF882389F4CA
:1059200000D000D000D0EDB7FEB73196ADB7BEB70E
:1059300012961C921E921197D383C2838AE299E039
:105940003EC08091DA07813089F400D000D000D0C9
:10595000EDB7FEB73196ADB7BEB712961C921E9248
:105960001197D383C28382E299E029C08091DA073C
:10597000823089F400D000D000D0EDB7FEB7319668
:10598000ADB7BEB712961C921E921197D383C283F5
:1059900089E199E014C08091DA078330E9F400D0FE
:1059A00000D000D0EDB7FEB73196ADB7BEB71296B6
:1059B0001C921E921197D383C28385E199E095834F
:1059C00084830E94470C2DB73EB72A5F3F4F0FB626
:1059D000F8943EBF0FBE2DBF0E946919019799F43C
:1059E00000D000D000D0EDB7FEB73196ADB7BEB74E
:1059F00012961C921E9211978FEF9FEF93838283D2
:105A00008AE099E014C000D000D000D0EDB7FEB716
:105A1000319680E098EFADB7BEB712969C938E9307
:105A200011978FEF9FEF938382838EEF98E095839A
:105A300084830E94470C2DB73EB72A5F3F4F0FB6B5
:105A4000F8943EBF0FBE2DBF4091ED032091EB03B4
:105A50003091EC0350913D048DB79EB70C970FB673
:105A6000F8949EBF0FBE8DBFEDB7FEB73196ADB7B0
:105A7000BEB712961C921E921197EE24EA94FE2C49
:105A8000F382E28280EE98E09583848346831782D6
:105A900031872087528713860E94470CD0903D049F
:105AA0002DB73EB7245F3F4F0FB6F8943EBF0FBEF1
:105AB0002DBF0E946E088C010E947408ADB7BEB75E
:105AC0001C970FB6F894BEBF0FBEADBFEDB7FEB7C3
:105AD000319612961C921E921197F382E28220EC6C
