:100000000C943E060C94A8060C94A8060C94A80622
:100010000C94A8060C94A8060C94A8060C94A806A8
:100020000C94A8060C94A8060C94694C0C94A80691
:100030000C94A8060C94A8060C945D720C94EB71B9
:100040000C94A8060C94A8060C94A8060C94A80678
:100050000C94A8060C94A8060C94A8060C94A80668
:100060000C94A8060C94A8060C94A8060C94A80658
:100070000C94A8060C9432340C94D7720C944873E8
:100080000C94A8060C94A8060C94A806080000007E
:10009000BE922449123EABAAAA2ABECDCCCC4C3E7D
:1000A00000000080BEABAAAAAA3E00000000BF006C
:1000B0000000803F0000000000084178D3BB438768
:1000C000D1133D190E3CC3BD4282AD2B3E68EC827C
:1000D00076BED98FE1A93E4C80EFFFBE01C4FF7F01
:1000E0003F000000000007634236B79BD8A71A39CB
:1000F000685618AEBAAB558C1D3CB7CC5763BD6D76
:10010000EDFD753EF6177231BF000000803F496E6D
:100110006974204E414E4420466C617368004E75F0
:10012000742F4F53202573200000000000000000B2
:1001300000000000000000202020202020002000DF
:1001400000002850500000000000000000000028BF
:1001500028FC2850FC50500000002078A8A06030F7
:1001600028A8F02000000048A8B0502834544800C7
:1001700000000020505078A8A8906C00000040407B
:1001800080000000000000000000040810101010A3
:100190001010080400004020101010101010204013
:1001A0000000000020A87070A820000000000020BF
:1001B0002020F820202000000000000000000000A7
:1001C00000004040800000000000F8000000000037
:1001D00000000000000000000000400000000810C7
:1001E00010102020404040800000007088888888DF
:1001F00088887000000000206020202020207000EF
:1002000000000070888810204080F8000000007016
:1002100088083008088870000000001030505090A6
:1002200078101800000000F88080F008088870003E
:10023000000000709080F08888887000000000F84E
:1002400090102020202020000000007088887088F6
:1002500088887000000000708888887808487000DE
:10026000000000000020000000002000000000004E
:100270000000200000002020000004081020402082
:10028000100804000000000000F80000F800000062
:1002900000004020100804081020400000000070FA
:1002A0008888102020002000000000708898A8A8EE
:1002B000B880780000000020203050507848CC00F2
:1002C000000000F0484870484848F00000000078FE
:1002D0008880808080887000000000F0484848488E
:1002E0004848F000000000F8485070504048F800BE
:1002F000000000F8485070504040E0000000003816
:100300004880809C88483000000000CC48487848ED
:100310004848CC00000000F8202020202020F800D1
:100320000000007C10101010101090E0000000EC95
:10033000485060505048EC00000000E04040404011
:100340004044FC00000000D8D8D8D8A8A8A8A8002D
:10035000000000DC486868585848E8000000007059
:100360008888888888887000000000F048487040BD
:100370004040E0000000007088888888E898701885
:10038000000000F0484870504848EC000000007839
:10039000888060100888F000000000F8A820202065
:1003A00020207000000000CC4848484848483000F1
:1003B000000000CC4848505030202000000000A829
:1003C000A8A8705050505000000000D85050202075
:1003D0005050D800000000D850502020202070003D
:1003E000000000F8901020204048F800000038205D
:1003F00020202020202020380000404040202010D5
:100400001010080000007010101010101010107064
:10041000000020500000000000000000000000006C
:100420000000000000000000FC00200000000000B0
:1004300000000000000000000000304838483C0088
:10044000000000C0404070484848700000000000B4
:1004500000003848404038000000001808083848BC
:1004600048483C0000000000000030487840380058
:100470000000001C202078202020780000000000D0
:1004800000003C4830407844380000C0404070488C
:100490004848EC0000000020000060202020700090
:1004A000000000100000301010101010E00000C01C
:1004B00040405C507048EC00000000E0202020200C
:1004C0002020F800000000000000F0A8A8A8A80064
:1004D000000000000000F0484848EC000000000068
:1004E0000000304848483000000000000000F0489C
:1004F00048487040E000000000003848484838088C
:100500001C0000000000D8604040E0000000000037
:1005100000007840300878000000000020207020A3
:1005200020201800000000000000D84848483C0087
:10053000000000000000EC485030200000000000E7
:100540000000A8A870505000000000000000D85023
:100550002050D800000000000000EC48503020205F
:10056000C000000000007810202078000000181063
:100570001010201010101018001010101010101073
:10058000101010101000602020201020202020606B
:100590000040A41800000000000000000042746E3B
:1005A0003A202564202D3E20256420202020202074
:1005B000202020202000444854257320282573291A
:1005C0003A20626164204352432025782020004471
:1005D0004854257320282573293A205425352E3177
:1005E000662825732531752E253175292048253536
:1005F0002E31662825732531752E25317529204425
:1006000025352E316600444854257320282573294A
:100610003A206E6F20736C617665202D20657272B2
:100620006F722025642020004448543F3F20282535
:1006300073293A20556E737570706F7274656420FB
:1006400053656E736F722073656C656374656421A6
:1006500020200044533138323020282573293A2095
:1006600062616420435243202020200044533138EB
:10067000323020282573293A2025362E326620284C
:1006800025732531752E25317529200044533138C5
:10069000323020282573293A206E6F20736C6176E2
:1006A00065202020005243353A20413D25322E322C
:1006B0006420433D25322E3264202020202020203B
:1006C0002020202000252E32582000514649204865
:1006D00045582044756D703A00466F756E64205021
:1006E0005249207461626C652056657273696F6E41
:1006F0002025632E256320617420307825780053EF
:100700006F6D657468696E672077656E74207772A7
:100710006F6E6721005375636365737366756C6CE8
:10072000792065726173656420466C61736821008D
:1007300045726173696E6720464C4153482E2E2ED8
:100740000053697A653A202575206B6279746500DB
:1007500044657669636520646F65736EB474207355
:100760007570706F7274205146492100466F756E26
:100770006420505249207461626C65205665727322
:10078000696F6E2025632E256320617420307825E3
:100790007800426C6F636B20457261736520546909
:1007A0006D656F7574202575206D730042756666E2
:1007B00065722057726974652054696D656F757430
:1007C00020257520757300564343204D6178202500
:1007D000782E25755600564343204D696E202578A6
:1007E0002E2575560053697A65202575206B627930
:1007F000746500466F756E642051464920496E66E7
:100800006F2C2072656164696E672E2E2E00616602
:10081000746572776172647320746F20726573748B
:100820006F726520612070726F6A6563742E20207C
:10083000202020202020202020202000596F7520FB
:100840006E65656420746F2072656C6F61642061F1
:100850002070726F6A6563742066726F6D207468B1
:10086000652053442D636172640054686973207776
:10087000696C6C207769706520796F757220707271
:100880006F6A65637420464C415348206D656D6FF7
:1008900072792120202020002020202020202323C6
:1008A00023232323232320205720412052204E207E
:1008B00049204E20472020232323232323232320A2
:1008C000202020202000522D436F64652025752CA8
:1008D0002020205265736F6C7574696F6E202575CA
:1008E00020782025750054465420436F6E74726F33
:1008F0006C6C65723D2025642C205230303D2534CF
:100900002E347800454942206F66666C696E65003A
:10091000454942206F6E6C696E6500546F7563685F
:10092000206D6972726F722028782F79293A2025FC
:10093000642F2564003138300039302072696768CF
:1009400074003930206C65667400486F72697A6F84
:100950006E74616C00506879732E2041646472205B
:1009600025642E25642E25640052454C454153458F
:10097000206275696C64004275696C64202573009F
:100980004669726D77617265205625642E25640074
:100990004E75742F4F5320257320004C6F6164698E
:1009A0006E672E2E2E202575206B6279746500539C
:1009B0006563746F722025752065726173656400CC
:1009C0002E6C636462002E6C636462006F6B006661
:1009D00061696C6564004D6F756E74696E67205354
:1009E00044204361726400756E6B6E6F776E207485
:1009F000797065202564006D6F7665206379636C7E
:100A0000696320656C656D656E74206465736372DF
:100A1000697074696F6E2072657475726E65643A80
:100A2000202564006D6F7665206C697374656E2097
:100A3000656C656D656E742064657363726970744E
:100A4000696F6E2072657475726E65643A202564F4
:100A5000006D6F76652070616765206465736372F1
:100A6000697074696F6E2072657475726E65643A30
:100A7000202564006D6F7665206164647265737310
:100A8000207461626C652072657475726E65643A7B
:100A900020256400747970653A20256420617420F3
:100AA0002825782920257800546F756368206D69A2
:100AB00072726F722028782F79293A2025642F25A9
:100AC00064006669726D776172652120466F756E8C
:100AD00064202523582062757420657870656374DE
:100AE00065642025235800546869732070726F6A0A
:100AF0006563742076657273696F6E206973206E0A
:100B00006F7420737570706F7274656420627920E1
:100B100074686973004D61676963206661696C651B
:100B2000643A2025782578257800253032752E25E1
:100B30003032752E32302530327500253032753A1C
:100B40002530327500252A6C6400252A6C75002535
:100B50002A6400252A750025202A2E2A66002520D1
:100B60002A2E2A6600252A2E2A6400252A2E2A6487
:100B700000696E6600494E46006E616E004E414E41
:100B80000000407A10F35A00A0724E18090010A518
:100B9000D4E80000E87648170000E40B5402000097
:100BA000CA9A3B000000E1F505000080969800001D
:100BB0000040420F000000A0860100000010270046
:100BC000000000E803000000006400000000000ACC
:100BD00000000000000100000000002C76D888DC36
:100BE000674F0823DFC1DFAE59E1B1B796E5E3E413
:100BF00053C63AE651997696E8E6C28426EB898C8C
:100C00009B62ED407C6FFCEFBC9C9F40F2BAA56FED
:100C1000A5F490055A2AF75C936B6CF9676DC11BBC
:100C2000FCE0E40D47FEF520E6B500D0ED902E0384
:100C300000943577050080841E080000204E0A00CD
:100C40000000C80C333333330F986E12831141EF19
:100C50008D2114893BE65516CFFEE6DB18D1844B77
:100C6000381BF77C1D901DA4BBE424203284725EE7
:100C7000228100C9F124ECA1E53D270080EC85BF6D
:100C800085E388BB8FE387BB88EE82BB80EB81BBAB
:100C90008EE083B982E082B980EF809362008FE0BA
:100CA000809361008FE18093650087E0809364000A
:100CB000479A1092710080E280937000599AEBE994
:100CC000F0E080818260808387E689B98093990013
:100CD00011241FBECFEFD0E1DEBFCDBF13E0A0E0F7
:100CE000B1E0E0E1F2E001E00BBF02C007900D923D
:100CF000AE37B107D9F71DE0AEE7B3E001C01D92F2
:100D0000A537B107E1F78FEF9FE39EBF8DBF8FEF50
:100D10009FE385579D408158914050F04FEF5EE32F
:100D200045575D408CE49DE065E77DE00E94966854
:100D30000E943B7084EF92E069EA77E640E050E081
:100D400020E831E00E94AB700E9400000C94068104
:100D50000C9400000F931F930E94943580916200C1
:100D60008860809362008091610088608093610058
:100D700080916C00806880936C0080916D00817C14
:100D800080936D0080916D00806480936D0085B7C5
:100D90008F7B85BF0E94190E0E9465702DB73EB7EC
:100DA000285030400FB6F8943EBF0FBE2DBFEDB7B0
:100DB000FEB73196ADB7BEB712961C921E92119730
:100DC0000FEF1FEF138302832EE131E0358324837D
:100DD000978386830E94AE0B0F900F90EDB7FEB7FE
:100DE000319680EE97E0ADB7BEB712969C938E9386
:100DF0001197138302838EE091E0958384830E9490
:100E0000AE0B2DB73EB72A5F3F4F0FB6F8943EBFEB
:100E10000FBE2DBF0E9480220E9434370E94701F97
:100E20000E942C340E948A390E94F10B0E94B42344
:100E30008091F203843019F40E94A32E03C080E055
:100E40000E94DC3C8AEF0E94ED6A6EE170E080E077
:100E500090E00E94656D0E94EF1B0E948B1C0E9417
:100E600077290E949C480E94FC490E94AA3BEDCF32
:100E7000E82FF0E0E051F04880810895E62FF0E09F
:100E8000E051F048808308958093F07F0895809327
:100E9000F17F08958091F17F08959093F97F809379
:100EA000F17F08952091F17F4091FA7F942F80E0A7
:100EB00030E0282B392BC9010895E1E6F0E080816C
:100EC00082608083E2E6F0E080818D7F80830895F8
:100ED000E1E6F0E0808182608083E2E6F0E08081FC
:100EE000826080830895882321F08091EB0383BD85
:100EF000089513BC08958093F07F7093F97F6093F9
:100F0000F17F08958093F07F2091F17F4091FA7FE7
:100F1000942F80E030E0282B392BC901089580936D
:100F2000F07F8091F17F0895FC01A091E903B091D9
:100F3000EA03109779F180914004909141048E1753
:100F40009F0720F4E0914004F09141048091400417
:100F5000909141048417950720F4409140045091EA
:100F6000410480913804909139048617970720F442
:100F7000609138047091390480913804909139045B
:100F80008217930720F42091380430913904CF015F
:100F9000FD010995089570E0382F20E0622B732B36
:100FA0007093F97F6093F17F089520914004309110
:100FB0004104C90108952091380430913904C901D0
:100FC00008956F927F928F929F92AF92BF92CF922D
:100FD000DF92EF92FF920F931F93682EA42E70E082
:100FE000882777FD8095982F0E94077A20E030E0CF
:100FF0004FE753E40E946C7920E030E04CE752E484
:101000000E943C7B0E94D9797B018C01FF248FE3F5
:10101000E822FF2485E0EE0CFF1C8A95E1F7BB2453
:10102000CC24B7FCC094DC2CC601B5010E94077A21
:1010300020E030E04FE753E40E946C7920E030E09C
:1010400048EF51E40E943C7B0E94D97970E06F71B7
:101050007070E62AF72A7724882477FC8094982CED
:10106000C401B3010E94077A20E030E04FE753E467
:101070000E946C7920E030E048EF51E40E943C7B14
:101080000E94D979362F330F330F330F20E0E22A35
:10109000F32AC7011F910F91FF90EF90DF90CF903F
:1010A000BF90AF909F908F907F906F900895CF9258
:1010B000DF92EF92FF920F931F936C018091F203E6
:1010C000882349F10091400410914104E0903804D4
:1010D000F090390480E090E060E070E0A8019701B2
:1010E0000E949407D092F97F20E030E0B8016F5F52
:1010F0007F4FA7014F5F5F4F08C0C092F17F0196FD
:1011000084179507D0F32F5F3F4F2617370718F442
:1011100080E090E0F5CF1F910F91FF90EF90DF906E
:10112000CF900895AF92BF92CF92DF92EF92FF924D
:101130000F931F93CF93DF93A82ED92EB62EC72ED1
:10114000F42EE52EE9018091F2038823F9F0862F31
:10115000972F642F752FA90198010E949407D092B0
:10116000F97F8F2D9E2D9C01A9010DC08B2D9C2DEB
:101170009C0104C0A092F17F2F5F3F4FC217D3079D
:10118000C8F74F5F5F4F0417150780F7DF91CF91C6
:101190001F910F91FF90EF90DF90CF90BF90AF9095
:1011A00008954F925F926F927F928F929F92AF922B
:1011B000BF92CF92DF92EF92FF920F931F93DF9334
:1011C000CF930F92CDB7DEB72C014B013A015901F5
:1011D0008091F203882309F489C0C2010E94940718
:1011E00081E08093F87FFFEFCF2EFFE7DF2ECE2048
:1011F000DF2080E090E8C80ED91EEFE01695079535
:10120000F794E794EA95D1F71E2D1F771093FC7F92
:1012100021E030E0B901681979096A0D7B1D80E091
:1012200090E024193509260D371D40E050E00E945A
:10123000C47C9B01AC01C601822B932B80FD11C0A5
:1012400050C0D6018D916D018983109731F41F5FD5
:101250001093FC7FC12C70E8D72E215030404040C5
:101260005040211531054105510559F73FC0DA01BC
:10127000C901B695A795979587958F3FEFEF9E0784
:10128000E0E0AE07E0E0BE0738F02E5F3F4F4140A0
:1012900050406FEF7FEF22C0BC01A0E0B0E0281B00
:1012A000390B4A0B5B0B281B390B4A0B5B0B16C027
:1012B000F60181918983D60111968C9189836F0102
:1012C0000894C11CD11CC114D10431F41F5F1093C8
:1012D000FC7FC12C90E8D92E6150704061157105DA
:1012E00039F7211531054105510509F60F90CF91C8
:1012F000DF911F910F91FF90EF90DF90CF90BF9003
:10130000AF909F908F907F906F905F904F900895D7
:101310000F931F93FC018B0160E177E20E94047D33
:10132000605DD8016C93CF0168EE73E00E94047D8C
:10133000462F405DCF0160EF78ED0E94047DCB0128
:101340009B01A3E0220F331FAA95E1F7880F991F95
:10135000280F391F420FD80111964C93CF0164E634
:1013600070E00E94047D462F405DCF0168E17CEF74
:101370000E94047DCB019B0163E0220F331F6A951D
:10138000E1F7880F991F280F391F420FD8011296D5
:101390004C93CF016AE070E00E94047D462F405DCF
:1013A000CF016CE97FEF0E94047DCB019B01B3E08C
:1013B000220F331FBA95E1F7880F991F280F391FA5
:1013C000420FD80113964C93CF016AE070E00E945F
:1013D000047D805DF801848315821F910F9108952B
:1013E0003F924F925F926F927F928F929F92AF92B5
:1013F000BF92CF92DF92EF92FF920F931F93CF9302
:10140000DF935B016A0129013801EC011BE0812EA9
:10141000912C860E971EBCE03B2E51C08091F203AA
:10142000882309F448C0AE01495F5F4FCE01B50182
:1014300094010E9494071052139DC00111247C0155
:101440000027F7FC0095102F20E030E040E050E04E
:1014500089E291E0A0E08E0D9F1DA01FB11F820FB9
:10146000931FA41FB51FABBFFC01879167E070E01D
:10147000E82FF0E0CF01062E02C0959587950A94DB
:10148000E2F780FF05C05092F97F4092F17F04C0DF
:101490007092F97F6092F17F615070408FEF6F3FE3
:1014A000780741F72F5F3F4F4F4F5F4F2C3031058B
:1014B0004105510569F627960894C11CD11CF60117
:1014C0001081112309F0AACFCE01DF91CF911F9196
:1014D0000F91FF90EF90DF90CF90BF90AF909F90D3
:1014E0008F907F906F905F904F903F900895919A6A
:1014F000909A1D9A089590E087FF02C01D9A01C03E
:101500001D989098000000000000909A00000000D4
:1015100000009F5F983011F0880FEECF089580E0B3
:1015200020E030E0220F331F909A000000000000FE
:1015300090980000000000000C9B02C02F5F3F4FFE
:101540008F5F8C3079F7C9010895919880E90E94E6
:101550007B0A909A90980E948F0A909346048093F9
:10156000450480ED0E947B0A909A90980E948F0A11
:101570009093F8038093F703919A08958091EB0379
:1015800083BD10923704109236040895809136047A
:101590009091370425E08C3D920741F48091CB0770
:1015A000843071F08091EC0383BD08958C5D95408B
:1015B00038F48091CB07843019F08091EB0383BD20
:1015C00008959093F4038093F30360934A04109278
:1015D0004B04089521E030E03093F4032093F303AB
:1015E00030934B0420934A040E9457080895EF92C9
:1015F000FF920F931F93DF93CF93CDB7DEB79E017A
:10160000215F3F4F8AEF93E06D857E85A9010E949F
:101610005974F82EE92E60914A0470914B04809120
:10162000F3039091F4034AEF53E029853A850B8543
:101630001C850E94F0099093F4038093F30320919A
:101640004004309141042817390730F481E090E0DC
:101650009093F4038093F30380914A0490914B0498
:10166000893C910530F081E090E090934B048093A9
:101670004A048F2D9E2DCF91DF911F910F91FF90E6
:10168000EF900895EF92FF920F931F93DF93CF9304
:10169000CDB7DEB79E01215F3F4F8AEF93E06D85A6
:1016A0007E85A9010E945974F82EE92E60914A04A2
:1016B00070914B048091F3039091F4034AEF53E04F
:1016C00029853A850B851C850E94F00921E030E0D0
:1016D0003093F4032093F30380914A0490914B04D8
:1016E0000C9690934B0480934A04893C910520F01A
:1016F00030934B0420934A048F2D9E2DCF91DF9180
:101700001F910F91FF90EF900895EF92FF920F932A
:101710001F93DF93CF93CDB7DEB79E012D5E3F4F72
:101720000AEF13E0C80169897A89A9010E949B74B4
:10173000F82EE92E89859A856B857C85A8012D85F3
:101740003E850F8518890E94F0098F2D9E2DCF911F
:10175000DF911F910F91FF90EF900895EF92FF920C
:101760000F931F93DF93CF93CDB7DEB79E01215F19
:101770003F4F8AEF93E06D857E85A9010E949B749F
:10178000F82EE92E60914A0470914B048091F30386
:101790009091F4034AEF53E029853A850B851C8527
:1017A0000E94F00921E030E03093F4032093F3032A
:1017B00080914A0490914B040C9690934B04809333
:1017C0004A04893C910520F030934B0420934A044D
:1017D0008F2D9E2DCF91DF911F910F91FF90EF9054
:1017E000089581E090E09093F4038093F303909345
:1017F0004B0480934A0480E091E066E07CE040E0A6
:1018000050E020E032E00E94AB70089584E60E9430
:10181000ED6A6CE271E080E090E00E94656D02C0CC
:101820000E94A50A0E9BFCCF1092490410923B0423
:1018300010923A0410923704109236041092F60374
:101840001092480410924704E3E02E2E71E0472ED8
:10185000512C65E0662E712C54E0852E912C48E0C9
:10186000A42EB12C3324339433E0C32ED12C26E0A4
:10187000E22EF12C02E010E0C7E0D0E064E170E07D
:1018800080E090E00E94656D0E99A4C00E94A50AB8
:101890008091EB0383BD1092370410923604E091DF
:1018A0004C04F0914D0409958091ED039091EE0365
:1018B00097FF05C01092EE031092ED0313C0209124
:1018C000ED033091EE038091380490913904821732
:1018D000930744F480913804909139049093EE0377
:1018E0008093ED038091F903882371F0809138048F
:1018F000909139042091ED033091EE03821B930BFC
:101900009093EE038093ED0320914E0430914F04A9
:1019100080914004909141048217930744F4809190
:1019200040049091410490934F0480934E04809121
:101930004E0490914F0490933D0480933C04809119
:10194000ED039091EE0390933F0480933E048091C9
:1019500049048823A1F170923B0460923A042091DB
:101960004704309148042F5F3F4F30934804209341
:1019700047048091F603882349F42031310548F06B
:101980003092F603D0923B04C0923A0421323105E2
:1019900031F02234310519F02336310521F4B092AB
:1019A0003B04A0923A042436310569F410924804AD
:1019B0001092470490923B0480923A0404C05092E3
:1019C0003B0440923A048AE394E00E947F332092E1
:1019D000490454CF80914904882321F18150809398
:1019E00049048823F9F48091F603882329F0D093E1
:1019F0003B04C0933A0404C010933B0400933A04A0
:101A00008AE394E00E947F33F0923B04E0923A0430
:101A10008AE394E00E947F331092F6031092480408
:101A200010924704809136049091370425E08C3D54
:101A3000920708F023CF2091CB07243009F41ECF62
:101A4000273009F41BCF0196909337048093360416
:101A50008C5D954009F012CF8091EC0383BD0ECFD1
:101A6000BF92CF92DF92EF92FF920F931F93DF937B
:101A7000CF9300D000D00F92CDB7DEB70E94B4351F
:101A8000809342041092F20312E0B12EB3E0CB2E09
:101A9000A1EADA2EEE24E394F4E0FF2E7CC08091DC
:101AA0006100826080936100809162008260809317
:101AB000620086E00E94B56B809161008260809335
:101AC0006100809162008D7F809362008AE00E94B5
:101AD000B56B8091610082608093610080916200AB
:101AE00082608093620084E10E94B56B1092F07F67
:101AF0008091F17F2091FA7F122F00E090E0802BFF
:101B0000912B9093F1038093F0038091F0039091D7
:101B1000F103892B61F584E60E94B56BD092F07FCA
:101B20008AE00E94B56B8091F17F89838091F17F7B
:101B30008A838091F17F8B838091F17F8C83809168
:101B4000F17F8D838981813079F48A81873561F4D1
:101B50008B81813649F48C81813031F48D818F3FC6
:101B600019F4F092F20317C0E092F20314C08091CE
:101B7000F0039091F1038552934919F4C092F20356
:101B80000AC08091F0039091F103807080509948D1
:101B900011F4B092F2038091F203882309F47FCF0D
:101BA0008091F203813019F40E94560E30C080916A
:101BB000F203833019F40E944C1029C08091F20383
:101BC0008430F9F480914204823091F0833028F41B
:101BD000882341F08130D9F408C0833061F084302B
:101BE000B1F40CC00E94A01612C00E94F7170FC0DB
:101BF0000E94E8130CC00E94651909C00E9442159A
:101C000006C08091F203823011F40E94151282E224
:101C10008093F07F0F900F900F900F900F90CF91C7
:101C2000DF911F910F91FF90EF90DF90CF90BF90C9
:101C3000089513BC80E887BB8CE685BD1092EA034B
:101C40001092E90310924D0410924C041092440437
:101C500010924304889A899A159A0E94770A0E94E2
:101C6000300D8FEF9FEF0E9457088091EB0383BDEB
:101C700008958091F7039091F803885C90406FE09D
:101C800070E00E94047D7093EE036093ED038091F9
:101C90004504909146048E5591406BE070E00E949F
:101CA000047D70934F0460934E04089589E39EE091
:101CB00090934D0480934C0486EB9FE09093EA034D
:101CC0008093E9038FE391E0909341048093400473
:101CD0008FEE90E0909339048093380486E464EAB0
:101CE00070E00E947B0787E463E570E00E947B0759
:101CF00088E460E070E00E947B0789E464E470E0BF
:101D00000E947B078AE464E070E00E947B078BE41A
:101D100067E670E00E947B078CE463E370E00E945A
:101D20007B078DE467E770E00E947B078EE462E149
:101D300070E00E947B078FE46CE470E00E947B07F8
:101D400080E566E470E00E947B0781E564E470E072
:101D50000E947B0782E060E070E00E947B0783E0E6
:101D600060E070E00E947B0784E060E070E00E9429
:101D70007B0785E06FEE70E00E947B0786E060E005
:101D800070E00E947B0787E060E070E00E947B07C4
:101D900088E061E070E00E947B0789E06FE370E01B
:101DA0000E947B0781E066E070E00E947B0786E18D
:101DB00068E670E00E947B0783E265E970E00E94BC
:101DC0007B0784E265E970E00E947B0785E26FEFA4
:101DD00070E00E947B0787E262E070E00E947B0770
:101DE00088E262E070E00E947B0789E262E070E0D6
:101DF0000E947B078AE262E070E00E947B078CE22F
:101E000062E070E00E947B078DE262E070E00E9479
:101E10007B078AE361E070E00E947B078BE360E070
:101E200070E00E947B078CE360EF70E00E947B070C
:101E30008DE360E070E00E947B0782E00E94B56B5A
:101E400085E368E370E00E947B0786E368E770E063
:101E50000E947B078EE368E370E00E947B0780E4CA
:101E60006FE070E00E947B0781E460EF70E00E9409
:101E70007B0789E169E470E00E947B0783E96FE0FA
:101E800070E00E947B0782E00E94B56B80E260E414
:101E900070E00E947B078DE167E070E00E947B07A5
:101EA0008EE160E070E00E947B078FE164E070E00B
:101EB0000E947B0784E46DE470E00E947B0785E468
:101EC0006EE070E00E947B0782E00E94B56B8CE1BF
:101ED00064E070E00E947B0783E00E94B56B8BE1B9
:101EE00068E170E00E947B0782E00E94B56B8BE1A5
:101EF00060E170E00E947B0782E00E94B56B83E4A2
:101F000060E870E00E947B0783E00E94B56B80E987
:101F10006FE770E00E947B0786E264E070E00E9459
:101F20007B0782E00E94B56B86E264E270E00E946B
:101F30007B0786E26CE270E00E947B0782E00E94F1
:101F4000B56B86E26CE370E00E947B0787E562E098
:101F500070E00E947B0785E961E070E00E947B07EA
:101F600087E560E070E00E947B070895AF92BF9222
:101F7000CF92DF92EF92FF920F931F93F82E192FBB
:101F8000B62ED72EE42E052FA22EC32E82E0692F67
:101F900070E00E947B0783E06F2D712F0E947B070A
:101FA00084E0602F70E00E947B0785E06E2D702F2B
:101FB0000E947B0786E06D2D70E00E947B0787E022
:101FC0006B2D7D2D0E947B0788E06C2D70E00E94B8
:101FD0007B0789E06A2D7C2D0E947B0782E20E94AC
:101FE00044071F910F91FF90EF90DF90CF90BF902B
:101FF000AF9008958091F7039091F803885C90402A
:102000006FE070E00E94047D7093EE036093ED0337
:102010008091F503882389F58091450490914604C9
:102020008C579140DCF0209145043091460486E4C1
:102030009FE0821B930B6BE070E00E94047D709325
:102040004F0460934E0480914E0490914F0497FF8B
:1020500022C010924F0410924E04089580914504BE
:1020600090914604875891406BE070E00E94047D97
:1020700070934F0460934E040895809145049091AD
:1020800046048E5591406BE070E00E94047D709391
:102090004F0460934E0408958AEF9FE090934D049F
:1020A00080934C0487E891E19093EA038093E903DD
:1020B0008FE391E090934104809340048FEE90E091
:1020C000909339048093380483EE68E070E30E94B3
:1020D0007B0787EE62E170E00E947B078FEE61E391
:1020E00072E10E947B0780E061E070E00E947B0764
:1020F00082E30E94B56B81E060E070E00E947B07A4
:1021000082E060E077E00E947B0783E068E370E1B3
:102110000E947B0784E060E070E00E947B0788E01B
:1021200062E072E00E947B0789E060E070E00E945C
:102130007B078AE060E070E00E947B078CE060E053
:1021400070E00E947B078DE060E070E00E947B07FA
:102150008FE060E070E00E947B0780E160E070E06B
:102160000E947B0781E167E070E00E947B0782E1CB
:1021700060E070E00E947B0783E160E070E00E9415
:102180007B0788EC0E94B56B80E160E976E10E94F4
:102190007B0781E167E272E00E947B0782E30E9495
:1021A000B56B82E16AE170E00E947B0782E30E94E6
:1021B000B56B83E160E078E10E947B0789E26AE227
:1021C00070E00E947B0782E30E94B56B80E260E0D2
:1021D00070E00E947B0781E260E070E00E947B0774
:1021E00080E367E070E00E947B0781E365E076E0D2
:1021F0000E947B0782E366E071E00E947B0785E333
:1022000066E072E00E947B0786E368E078E00E9467
:102210007B0787E367E070E00E947B0788E361E06B
:1022200072E00E947B0789E367E070E00E947B0711
:102230008CE362E076E00E947B078DE368E078E063
:102240000E947B0780E560E070E00E947B0781E5EB
:102250006FEE70E00E947B0782E560E070E00E9414
:102260007B0783E56FE371E00E947B0780E660E017
:1022700077EA0E947B0781E661E070E00E947B07BD
:102280008AE660E070E00E947B0780E860E070E032
:102290000E947B0781E860E070E00E947B0782E893
:1022A00060E070E00E947B0783E860E070E00E94DD
:1022B0007B0784E860E070E00E947B0785E860E0CF
:1022C00070E00E947B0780E960E170E00E947B077C
:1022D00082E960E070E00E947B0783E963E070E0E0
:1022E0000E947B0785E960E171E00E947B0787E936
:1022F00060E070E00E947B0788E960E070E00E9487
:102300007B0787E063E371E00E947B070895AF924B
:10231000BF92CF92DF92EF92FF920F931F937C01B7
:102320006B018A01590182E5B7010E947B0783E5B1
:10233000B8010E947B0781E2B7010E947B0780E51C
:10234000B6010E947B0781E5B5010E947B0780E210
:10235000B6010E947B0782E20E9444071F910F9101
:10236000FF90EF90DF90CF90BF90AF900895809155
:10237000F7039091F803885C90406FE070E00E9452
:10238000047D7093EE036093ED038091F503882341
:1023900089F180914504909146048C579140DCF07E
:1023A000209145043091460486E49FE0821B930B04
:1023B0006BE070E00E94047D70934F0460934E04C4
:1023C00080914E0490914F0497FF22C010924F04C9
:1023D00010924E04089580914504909146048758C8
:1023E00091406BE070E00E94047D70934F04609315
:1023F0004E04089580914504909146048E55914075
:102400006BE070E00E94047D70934F0460934E0473
:102410000895882321F081E06FE379E603C081E02D
:102420006FE379E20E947B07089587EB91E1909337
:102430004D0480934C0486E793E19093EA038093E4
:10244000E90389E092E190934404809343048FE38D
:1024500091E090934104809340048FEE90E090933C
:1024600039048093380480E061E070E00E947B07CB
:1024700082E00E94B56B83E064EA78EA0E947B0701
:1024800082E00E94B56B8CE060E070E00E947B0708
:1024900082E00E94B56B8DE06CE078E00E947B07E3
:1024A00082E00E94B56B8EE060E07BE20E947B07D9
:1024B00082E00E94B56B8EE160EB70E00E947B07CA
:1024C00082E00E94B56B81E06FE379E20E947B07B6
:1024D00082E00E94B56B82E060E076E00E947B07BC
:1024E00082E00E94B56B80E160E070E00E947B07B3
:1024F00082E00E94B56B81E168E770E60E947B078D
:1025000082E00E94B56B85E060E070E00E947B078E
:1025100082E00E94B56B86E060E070E00E947B077D
:1025200082E00E94B56B86E16CE17FEE0E947B0742
:1025300082E00E94B56B87E163E070E00E947B0758
:1025400082E00E94B56B87E063E372E00E947B0744
:1025500082E00E94B56B8BE060E070E00E947B0738
:1025600082E00E94B56B8FE060E070E00E947B0724
:1025700082E00E94B56B81E460E070E00E947B071E
:1025800082E00E94B56B82E460E070E00E947B070D
:1025900082E00E94B56B88E460E070E00E947B07F7
:1025A00082E00E94B56B89E46FE371E00E947B07D3
:1025B00082E00E94B56B8AE460E070E00E947B07D5
:1025C00082E00E94B56B8BE460E070E00E947B07C4
:1025D00082E00E94B56B84E460E07FEE0E947B079E
:1025E00082E00E94B56B85E460E070E00E947B07AA
:1025F00082E00E94B56B86E46FE371E00E947B0786
:1026000082E00E94B56B80E367E077E00E947B0781
:1026100082E00E94B56B81E364E072E00E947B0778
:1026200082E00E94B56B82E364E072E00E947B0767
:1026300082E00E94B56B83E362E075E00E947B0755
:1026400082E00E94B56B84E367E075E00E947B073F
:1026500082E00E94B56B85E364E072E00E947B0734
:1026600082E00E94B56B86E364E072E00E947B0723
:1026700082E00E94B56B87E362E075E00E947B0711
:1026800082E00E94B56B8AE362E073E00E947B0700
:1026900082E00E94B56B8BE362E073E00E947B07EF
:1026A00082E00E94B56B83E260E070E00E947B07ED
:1026B00082E00E94B56B84E260E070E00E947B07DC
:1026C00082E00E94B56B85E260E070E80E947B07C3
:1026D00082E00E94B56B8FE460E070E00E947B07AF
:1026E0008EE460E070E00E947B070895CF92DF9255
:1026F000EF92FF920F931F936C018B017A01722F5F
:1027000060E0600F711F84E40E947B0785E4B601DE
:102710000E947B0786E4B7010E947B078EE4B80124
:102720000E947B078FE4B6010E947B0782E20E9431
:1027300044071F910F91FF90EF90DF90CF90089585
:102740001F93182F86E30E944407112311F080E0A5
:1027500001C083E00E9447071F910895AF92BF9286
:10276000CF92DF92EF92FF920F931F93F82E192FC3
:10277000B62ED72EE42E052FA22EC32E8AE20E945B
:102780004407812F0E9447078F2D0E944707802F03
:102790000E9447078E2D0E9447078BE20E94440744
:1027A0008D2D0E9447078B2D0E9447078C2D0E947C
:1027B00047078A2D0E9447078CE20E9444071F9119
:1027C0000F91FF90EF90DF90CF90BF90AF90089562
:1027D0000F931F938DEB94E190934D0480934C04E1
:1027E0008EEA93E19093EA038093E90380EA93E110
:1027F00090934404809343048FED91E090934104BF
:10280000809340048FE091E09093390480933804E2
:102810000DE610E0F80180818C60808382EE0E94DA
:10282000440783E20E94470782E00E94470784E052
:102830000E94470784E00E94470780EE0E944407F9
:1028400081E00E94470781E00E94B56B80EE0E9404
:10285000440783E00E94470785E00E94B56B81E052
:102860000E94440785E00E94B56BF8018081837F58
:10287000808386EE0E94440781E00E94470783E33D
:102880000E94470782E30E94470780EB0E944407AB
:1028900080E20E94470780E00E94470781E00E9493
:1028A00047078FED0E94470781E00E9447078FE0AE
:1028B0000E94470780E00E94470785E00E94B56BB1
:1028C00084EB0E94440782E00E94470783E10E9454
:1028D000470780E00E9447078BE20E9447078AE093
:1028E0000E94470780E00E94470788E00E94470750
:1028F00080E00E94470786EB0E94440781E00E9427
:10290000470780E20E94470780E00E9447078CE06B
:102910000E9447078AE00E94470780E00E9447071D
:1029200084E00E9447078AEB0E94440780E00E94EF
:10293000470788EB0E94440780E00E94470781E038
:102940000E94470786E30E94440783E00E944707EE
:1029500080EF0E94440783E00E94470785E00E94C1
:10296000B56B89E20E94440780ED0E9444078DE028
:102970000E9447071F910F9108956091450470913F
:1029800046046E5A7140882777FD8095982F0E94E3
:10299000077A26E636E646E351E40E946C790E9407
:1029A000D4797093EE036093ED036091F703709117
:1029B000F8036A5F7040882777FD8095982F0E9402
:1029C000077A23E333E343EF50E40E946C790E94DB
:1029D000D47970934F0460934E048091F50388235B
:1029E00061F00E94D50720914E0430914F04821B64
:1029F000930B90934F0480934E0480914E049091DA
:102A00004F0497FF04C010924F0410924E04089593
:102A1000AF92BF92CF92DF92EF92FF920F931F93EC
:102A2000F82E192FB62ED72EE42E052FA22EC32E48
:102A30008AE20E944407812F0E9447078F2D0E943F
:102A40004707802F0E9447078E2D0E9447078BE281
:102A50000E9444078D2D0E9447078B2D0E94470737
:102A60008C2D0E9447078A2D0E9447078CE20E9406
:102A700044071F910F91FF90EF90DF90CF90BF9090
:102A8000AF9008958DE096E190934D0480934C04AF
:102A900088E095E19093EA038093E9038FED91E05C
:102AA00090934104809340048FE091E09093390427
:102AB0008093380480916D008C6080936D0082EE6D
:102AC0000E94440783E20E94470782E00E94470772
:102AD00084E00E94470780EE0E94440781E00E9444
:102AE000470781E00E94B56B80EE0E94440783E0B7
:102AF0000E94470785E00E94B56B81E00E94440771
:102B000085E00E94B56B80916D00837F80936D009E
:102B100086EE0E94440783E00E94470783E30E94F9
:102B2000470782E30E94470780EB0E94440780E04A
:102B30000E94470780E00E94470781E00E94470704
:102B40008FED0E94470781E00E9447078FE00E94B7
:102B500047078DE20E94470784EB0E94440782E00A
:102B60000E94470783E10E94470780E00E944707D1
:102B70008BE20E94470781E00E94470780E00E94A5
:102B8000470788E00E94470780E00E94470786EBDE
:102B90000E94440781E00E94470780E20E944707A5
:102BA00080E00E9447078CE00E9447078AE00E946D
:102BB000470780E00E94470784E00E9447078AEBAE
:102BC0000E9444078FE00E94470788EB0E94440759
:102BD00087E00E94470781E00E94470786E30E9442
:102BE00044078091EF03882311F083E001C080E067
:102BF0000E94470780EF0E94440783E00E94470736
:102C000085E00E94B56B89E20E94440780ED0E9436
:102C100044078DE00E94470708956091F703709183
:102C2000F80364557140882777FD8095982F0E949E
:102C3000077A2DEC3CEC44E451E40E946C790E944C
:102C4000D4797093EE036093ED0360914504709125
:102C500046046A5A7040882777FD8095982F0E9415
:102C6000077A26E636E646EF50E40E946C790E9429
:102C7000D47970934F0460934E048091F5038823B8
:102C800061F00E94D50720914E0430914F04821BC1
:102C9000930B90934F0480934E0480914E04909137
:102CA0004F0497FF04C010924F0410924E040895F1
:102CB0001F93182F86E30E944407112311F080E030
:102CC00001C083E00E9447071F910895AF92BF9211
:102CD000CF92DF92EF92FF920F931F93F82E192F4E
:102CE000B62ED72EE42E052FA22EC32E8AE20E94E6
:102CF0004407812F0E9447078F2D0E944707802F8E
:102D00000E9447078E2D0E9447078BE20E944407CE
:102D10008D2D0E9447078B2D0E9447078C2D0E9406
:102D200047078A2D0E9447078CE20E9444071F91A3
:102D30000F91FF90EF90DF90CF90BF90AF900895EC
:102D40000F931F9382E797E190934D0480934C0477
:102D500086E696E19093EA038093E90388E596E19D
:102D600090934404809343048FE193E09093410453
:102D7000809340048FED91E0909339048093380460
:102D80000DE610E0F80180818C60808382EE0E9465
:102D9000440783E20E94470782E00E94470784E0DD
:102DA0000E94470780EE0E94440781E00E94470787
:102DB00081E00E94B56B80EE0E94440783E00E9490
:102DC000470785E00E94B56B81E00E94440785E0DB
:102DD0000E94B56BF8018081837F808386EE0E941C
:102DE000440784E00E94470786E60E94470785E67D
:102DF0000E94470780EB0E94440787E20E94470732
:102E000080E00E94470783E00E9447078FE10E940D
:102E1000470781E00E9447078FED0E94470780E047
:102E20000E94470785E00E94B56B84EB0E9444072F
:102E300084E00E9447078AE10E94470780E00E94E1
:102E400047078EE20E94470780E30E94470780E021
:102E50000E9447078FE00E94470780E00E944707D3
:102E600086EB0E94440782E00E9447078DE00E94A3
:102E7000470780E00E94470780E10E94470780E102
:102E80000E94470780E00E94470788E00E944707AA
:102E90008AEB0E94440780E00E94470788EB0E946B
:102EA000440780E00E94470781E00E94470786E3CD
:102EB0000E94440783E00E94470780EF0E94440776
:102EC00083E00E94470785E00E94B56B89E20E947B
:102ED000440780ED0E9444078DE00E9447071F9140
:102EE0000F9108956091450470914604685C7040AC
:102EF000882777FD8095982F0E94077A2AE939E97B
:102F000049EE50E40E946C790E94D4797093EE03EC
:102F10006093ED036091F7037091F8036C5D70406E
:102F2000882777FD8095982F0E94077A23E333E363
:102F300043E950E40E946C790E94D47970934F0465
:102F400060934E048091F503882361F40E94D507B5
:102F500020914E0430914F04821B930B90934F04A9
:102F600080934E0480914E0490914F0497FF04C0CB
:102F700010924F0410924E040895AF92BF92CF92D8
:102F8000DF92EF92FF920F931F93F82E192FB62E18
:102F9000D72EE42E052FA22EC32E8AE20E944407CC
:102FA000812F0E9447078F2D0E944707802F0E9484
:102FB00047078E2D0E9447078BE20E9444078D2D04
:102FC0000E9447078B2D0E9447078C2D0E944707C0
:102FD0008A2D0E9447078CE20E9444071F910F919F
:102FE000FF90EF90DF90CF90BF90AF90089582EC6C
:102FF00098E190934D0480934C048DEB97E190936E
:10300000EA038093E9038FE193E090934104809376
:1030100040048FED91E090933904809338048091BF
:103020006D008C6080936D0082EE0E94440783E205
:103030000E94470782E00E94470784E00E944707FA
:1030400080EE0E94440781E00E94470781E00E94D1
:10305000B56B80EE0E94440783E00E94470785E03D
:103060000E94B56B81E00E94440785E00E94B56B29
:1030700080916D00837F80936D0086EE0E944407EF
:1030800083E00E9447078FEF0E9447078FEF0E945F
:10309000470780EB0E94440787E20E94470780E0D1
:1030A0000E94470783E00E9447078FE10E9447077D
:1030B00081E00E9447078FED0E94470780E00E9451
:1030C000470784EB0E94440783E00E94470780EA99
:1030D0000E94470780E00E9447078EE20E94470750
:1030E00080E30E94470780E00E9447078FE00E942C
:1030F000470780E00E94470786EB0E94440782E072
:103100000E9447078DE00E94470780E00E94470722
:1031100080E10E94470780E10E94470780E00E940B
:10312000470788E00E9447078AEB0E9444078FE028
:103130000E94470788EB0E94440787E00E944707E8
:1031400081E00E94470786E30E9444078091EF03D5
:10315000882311F083E001C080E00E94470780EFE0
:103160000E94440783E00E94470785E00E94B56BF8
:1031700089E20E94440780ED0E9444078DE00E948E
:103180004707089560914504709146046E5B704056
:10319000882777FD8095982F0E94077A20E030E0FD
:1031A00040EF50E40E946C790E94D4797093EE0352
:1031B0006093ED038091F903882361F40E94DB079B
:1031C0002091ED033091EE03821B930B9093EE035D
:1031D0008093ED036091F7037091F8036C5D70408C
:1031E000882777FD8095982F0E94077A23E333E3A1
:1031F00043E950E40E946C790E94D47970934F04A3
:1032000060934E048091F503882361F40E94D507F2
:1032100020914E0430914F04821B930B90934F04E6
:1032200080934E0480914E0490914F0497FF04C008
:1032300010924F0410924E0408951F93182F86E3A6
:103240000E944407112311F080E001C083E00E9436
:1032500047071F910895AF92BF92CF92DF92EF92EE
:10326000FF920F931F93F82E192FB62ED72EE42E10
:10327000052FA22EC32E8AE20E944407812F0E94AE
:1032800047078F2D0E944707802F0E9447078E2DEA
:103290000E9447078BE20E9444078D2D0E9447073A
:1032A0008B2D0E9447078C2D0E9447078A2D0E9474
:1032B00047078CE20E9444071F910F91FF90EF9007
:1032C000DF90CF90BF90AF9008950F931F9387E347
:1032D0009AE190934D0480934C048BE299E1909392
:1032E000EA038093E9038DE199E19093440480938C
:1032F00043048FE193E090934104809340048FED69
:1033000091E090933904809338040DE610E0F801C1
:1033100080818C60808382EE0E94440783E20E9459
:10332000470782E00E94470784E00E94470780EE3B
:103330000E94440781E00E94470781E00E94B56B2C
:1033400080EE0E94440783E00E94470785E00E94C8
:10335000B56B81E00E94440785E00E94B56BF801DF
:103360008081837F808386EE0E94440784E00E94F0
:10337000470786E60E94470785E60E94470780EBDD
:103380000E94440780E00E94470780E00E944707B0
:1033900083E00E9447078FE10E94470781E00E9477
:1033A00047078FED0E94470780E00E94470785E0AE
:1033B0000E94B56B84EB0E94440784E00E9447079B
:1033C0008AE10E94470780E00E9447078EE20E9440
:1033D000470784E10E94470780E00E94470782ED8B
:1033E0000E94470780E00E94470786EB0E9444073F
:1033F00082E00E9447078DE00E94470780E00E941C
:10340000470787E10E9447078AE00E94470780E05C
:103410000E94470786E10E9447078AEB0E94440703
:1034200085E00E94470788EB0E94440787E00E94DE
:10343000470781E00E94470786E30E94440783E034
:103440000E94470780EF0E94440783E00E944707DD
:1034500085E00E94B56B89E20E94440780ED0E94DE
:1034600044078DE00E9447071F910F9108956091D6
:1034700045047091460468567140882777FD809511
:10348000982F0E94077A26E636E646EE50E40E9420
:103490006C790E94D4797093EE036093ED030E94DF
:1034A000DB072091ED033091EE03821B930B909389
:1034B000EE038093ED036091F7037091F803625877
:1034C0007040882777FD8095982F0E94077A26E61E
:1034D00036E646E950E40E946C790E94D4797093F4
:1034E0004F0460934E048091F503882361F40E9499
:1034F000D50720914E0430914F04821B930B90937B
:103500004F0480934E0480914E0490914F0497FF96
:1035100004C010924F0410924E040895482F209139
:1035200090073091910789E190E0289FD001299F71
:10353000B00D389FB00D1124AD5ABB4F8C9187311F
:1035400014F080E00895E82FFF27E7FDF095EA0FDB
:10355000FB1F42838F5F8C938091E50584278093C6
:10356000E50581E008958091F205882339F0809186
:10357000870780939C001092F20508958091890737
:10358000882329F080939C001092890708958091E8
:103590008807882329F080939C001092880708955B
:1035A0008091E3059091E4058130910521F0029727
:1035B00009F05FC039C04091EE055091EF052091B0
:1035C000E6053091E70589E190E0489FD001499FE9
:1035D000B00D589FB00D1124A950BA4FFD01E20F54
:1035E000F31F92819093870781E08093F205809189
:1035F0005204892780935204822F806880939C0014
:103600002F5F3F4F3093E7052093E6058C91992774
:1036100087FD90958217930789F582E090E090935B
:10362000E4058093E305089580915204809580938A
:10363000870781E08093F2058091E605806480939E
:103640009C0083E090E09093E4058093E305109262
:103650008C078091EE059091EF0501969093EF0510
:103660008093EE05409754F01092EF051092EE050E
:10367000089580919A008F7D80939A0008958230FA
:1036800010F080E00895E82FF0E0EE0FFF1FE85102
:10369000FA4F7183608381E00895823018F0E0E092
:1036A000F0E009C0E82FF0E0EE0FFF1FE851FA4FFD
:1036B0000190F081E02DCF0108950FB6F8940F929C
:1036C0002091F0053091F1058091EE059091EF0584
:1036D000281739070CF4205F281B0F900FBE80E0DD
:1036E000283008F481E00895EF92FF920F931F9322
:1036F000849B25C01092F4051092F30580919A00E6
:103700008F7D80939A0080919A008F7780939A00A2
:1037100010929A0087B78B7F87BF1EBC10928B07D1
:1037200010928A0783E090E09093E4058093E3058C
:1037300010928F0710928C071092F2054BC0809167
:10374000F3059091F405892B09F044C01092880785
:1037500010929B0088E180939A0086E280939D00FE
:1037600080919D0086FF06C0E12CFBE4FF2E012D19
:10377000112D11C080919B0081FD07C0E12CE8E56F
:10378000FE2EE2E00E2F112D06C0E12C7CE2F72E7A
:1037900071E0072F112D0E94566CA80197010E941D
:1037A000177D2F5F3F4F4F4F5F4F5695479537958A
:1037B000279521503040209399003093980081E064
:1037C00090E09093F4058093F30580919A008068CF
:1037D00080939A001F910F91FF90EF9008950E949F
:1037E000741B8091F3059091F40508959C0181303C
:1037F000910509F477C08130910548F08230910538
:1038000009F472C08330910509F083C07AC095989D
:103810008D9A1092F5051092F60510928F0710926E
:10382000F2051092F4051092F3050E94566C0E9466
:10383000057A20E030E040E150E40E943C7B20E04B
:1038400030E04AE754EC0E946C7920E03FEF4FE70C
:1038500057E40E9404790E94D97970938E0760938F
:103860008D070E94566C0E94057A20E030E04AE7FE
:1038700054EC0E946C7920E03FEF4FE757E40E9440
:1038800004790E94D9797093ED056093EC0588E284
:1038900093E067ED7DE141E050E00E947D7382E2BC
:1038A00093E067ED7DE142E050E00E947D738EE29F
:1038B00093E063EB7AE140E050E00E947D7386E0A4
:1038C00091E06FE57DE140E050E020E032E00E94D1
:1038D000AB701092890710928B0710928A078D9A0D
:1038E000959A17C081E00EC085E08093890780918A
:1038F0009A00806280939A003093F4052093F30538
:1039000008C082E08093890780919A00806280934A
:103910009A0080E008958091E3059091E405039773
:1039200079F480918C078F5F80938C07853040F00D
:103930001092E4051092E3058EE793E00E945F6F1A
:103940000895AC012091500430915104809190076A
:10395000909191078217930711F480E0089589E10F
:1039600090E0289FF001299FF00D389FF00D112461
:10397000ED5AFB4F2081332727FD30952E5F3F4FB7
:10398000CA01BF01A9010E941D7F0FB6F8940F92D2
:10399000809150049091510401969093510480932A
:1039A0005004409724F010925104109250040F904C
:1039B0000FBE81E00895CF93DF93EC0108C080E84B
:1039C00093E040E050E060E070E00E94B46FCE0110
:1039D0000E94A11C882399F3DF91CF910895EF9263
:1039E000FF920F93CF93DF937C01062F6230B8F4E0
:1039F0004091F0055091F105EA012196C031D105C1
:103A000014F0C0E0D0E00FB6F8940F928091EE056C
:103A10009091EF05C817D90721F40F900FBE80E0F1
:103A200048C00F900FBED701EC91E83114F08FEF32
:103A300040C089E190E0489F9001499F300D589F18
:103A4000300D112427503A4FFF27E7FDF095A701CD
:103A50004E5F5F4FC901BA01AF010E941D7F809187
:103A6000F0059091F105E02FF0E0EE0FFF1FE85117
:103A7000FA4F20813181A9E1B0E08A9FF0018B9F4C
:103A8000F00D9A9FF00D1124E950FA4F23833483EF
:103A9000D7018C9180830FB6F8940F92D093F105E3
:103AA000C093F0050F900FBE8EE793E00E945F6F0A
:103AB00081E0DF91CF910F91FF90EF9008958CE31B
:103AC0000E94ED6A8EE793E040E050E060E070E035
:103AD0000E94B46F4091F3055091F40541305105B7
:103AE00089F78091E3059091E405892B59F720919E
:103AF000EE053091EF058091F0059091F1052817C2
:103B0000390701F31092E7051092E605109252046E
:103B10001092F2055093E4054093E30580919A00DA
:103B2000806280939A00CECF8091F3059091F40546
:103B30000197D9F5209190073091910789E190E0A4
:103B4000289FF001299FF00D389FF00D1124ED5AA8
:103B5000FB4F948180E0238130E0282B392B558165
:103B600046816091E8057091E90526173707E9F06D
:103B7000A091EA05B091EB052A173B07B1F0942F0D
:103B800080E0452F50E0482B592B878187FF04C0E8
:103B9000CA010E94681F08954617570721F080E068
:103BA0004A175B0719F481E0089580E008959C01AD
:103BB0008130910531F460919B006C7170919C0093
:103BC00006C087B78B7F87BF1EBC70E060E0109295
:103BD0008C0740918A0750918B074430510568F457
:103BE0004230510508F061C04115510509F4C1C0CA
:103BF0004130510509F04BC105C04430510509F071
:103C000046C134C02130310571F580918D07909106
:103C10008E079DBD8CBD662329F4872F0E948E1AC6
:103C2000882339F484E090E090938B0780938A078F
:103C30000895209190073091910789E190E0289FA5
:103C4000F001299FF00D389FF00D1124ED5AFB4F24
:103C50008081863009F023C10E94941D882309F4D5
:103C60001EC181E1F1C082E090E00CC0213031053D
:103C700039F480918D0790918E079DBD8CBD08957C
:103C800083E090E090938B0780938A078091EC0506
:103C90009091ED059DBD8CBD81E08EBD86B78460A1
:103CA00086BF87B7846087BF08952130310561F5ED
:103CB000662381F4209190073091910789E190E08B
:103CC000289FF001299FF00D389FF00D1124ED5A27
:103CD000FB4F71831092E4051092E305E0917E039F
:103CE000F0917F03309739F48FEF9FEF90937F032C
:103CF00080937E0309C08FEFEF3FF80729F084819E
:103D000095810196958384838091E5058F3F41F5E8
:103D10004230510529F580919007909191070196C5
:103D20009093910780939007409724F01092910709
:103D300010929007E0918003F0918103309739F45D
:103D40008FEF9FEF909381038093800309C08FEFE3
:103D5000EF3FF80729F0848195810196958384834C
:103D600087B78B7F87BF1EBC10928B0710928A0784
:103D700008952230310509F492C0662309F08FC0FE
:103D8000733039F581E08093F50581E090E0909300
:103D9000F4058093F3051092F2051092E405109259
:103DA000E305E0917E03F0917F03309739F48FEFC4
:103DB0009FEF90937F0380937E0308958FEFEF3FF3
:103DC000F80709F46CC084819581019695838483FA
:103DD0000895272F30E0C90187709070079731F45C
:103DE0007093F60581E080938F07089523713070FA
:103DF0002031310509F053C080918D0790918E07D5
:103E00009DBD8CBD81E08EBD86B7846086BF87B7BF
:103E1000846087BF40919007509191079A012F5F6E
:103E20003F4F2031310514F020E030E08091500404
:103E3000909151042817390779F484E090E0909329
:103E40008B0780938A0783E18093880780919A008B
:103E5000806280939A00089581E090E090938B07B0
:103E600080938A0789E190E0489FF001499FF00D17
:103E7000589FF00D1124ED5AFB4F118210821092C1
:103E800088071092E505872F0E948E1A08951092D8
:103E90008B0710928A0787B78B7F87BF1EBC089558
:103EA0008036910511F08FEF089580E0089510920B
:103EB000C3071092C207089508958091BC078295A8
:103EC0008F70089587708295807F8093BC070895D6
:103ED0000E942A41892F8095881F8827881F08956E
:103EE0001092C3071092C2078DE091E065E97FE16F
:103EF00040E050E020E032E00E94AB7086E191E0CB
:103F00006EE571E240E050E020E032E00E94AB70EC
:103F100080E090E00E94F61B0E941C3780E68093B0
:103F2000BC0708950E94DB1C0895DF93CF93CDB7A3
:103F3000DEB769970FB6F894DEBF0FBECDBF82E340
:103F40000E94ED6A43E0E42EF12CEC0EFD1ECE0142
:103F50000A969E01255F3F4F6E010894C11CD11C3B
:103F60004C015901C6010E94DB1CC6010E94A22718
:103F7000888587FF2DC0F7010381148145814F702B
:103F8000415096812781442311F0B50105C0822F4D
:103F90008F73F7018783B401892F90E0837090704D
:103FA000880F991F880F991F2295269526952370B3
:103FB000282BC8010E943D5D8823A1F2C8010E9400
:103FC0001F49C8010E94BE3BC8010E941F49CACFB9
:103FD00080E00E944D1BC6CF0E94A11C0895FC01E9
:103FE000329625813091BC07232B258360E00E9407
:103FF000EF1C08951F93DF93CF93CDB7DEB769977A
:104000000FB6F894DEBF0FBECDBFFB01142FDE014B
:1040100013962CEB2B8314969C938E931397842FDB
:104020008F5F8F70806815968C93159716961C92EB
:10403000169780E817968C931797442341F09E01BA
:10404000255F3F4FC90150E00E941D7F05C0808160
:104050008F73806817968C93185F1983CE01019631
:104060000E94EF1F69960FB6F894DEBF0FBECDBF5A
:10407000CF91DF911F910895DF93CF93CDB7DEB736
:1040800069970FB6F894DEBF0FBECDBF682F80EBE7
:104090008B838091BD078E838091C0078F831886A4
:1040A0002091C507621751F0462F50E0CA010197D1
:1040B0008F70907030E08217930751F4862F90E054
:1040C0008F709070880F991F880F991F826C08C09D
:1040D0004F705070440F551F440F551F842F836C31
:1040E000898787E08983CE0101960E94EF1F699638
:1040F0000FB6F894DEBF0FBECDBFCF91DF9108950C
:10410000DF93CF93CDB7DEB769970FB6F894DEBFD4
:104110000FBECDBF90EB9B838E836F83188681E8A3
:10412000898787E08983CE0101960E94EF1F6996F7
:104130000FB6F894DEBF0FBECDBFCF91DF910895CB
:104140000F93CF93DF93982FFA01022F222311F4BC
:1041500080E029C0C4E9D7E080EB80939407909376
:10416000970760939807822F81508F7080939907EB
:104170009091BF07990F990F90648081892B80835C
:104180009E012A5F3F4FC901BA01402F50E00E94B3
:104190001D7F0A5F009392078CE38093BE07CE01D8
:1041A00002970E94EF1FDF91CF910F910895AC010C
:1041B000262F1092C1078EE18093BB078CE380937A
:1041C000BE0782E090E09093C3078093C20780917E
:1041D000BD076091C0070E94A0200895FC01808562
:1041E00090E083709070782F6627818590E0682B2F
:1041F000792B23E06030720779F483E08093AB077A
:1042000080E48093AC071092AD0782E18093AE0703
:104210008BEA97E064E02FC0CB01807F8050924012
:1042200069F56F70928580E0238530E0282B392B6B
:1042300082E08093AB07862F80648093AC078285F1
:104240008093AD0783858093AE07EFEAF7E0862F72
:1042500090E08E0F9F1F09C02036310511F440E019
:1042600001C04FEF41932F5F3F4FE817F907A1F7C8
:104270006C5F8BEA97E00E94D7200895CB01807C89
:1042800080589140D1F43285832F90E09695982FF5
:1042900088279795879521E02093AB07262F206CE0
:1042A0002093AC073093AD079093AE078093AF0790
:1042B0008BEA97E065E00E94D720089587E30E948B
:1042C000ED6A0EE11CE364E670E080E090E00E949D
:1042D000656D8091C2079091C307892BA1F38091EE
:1042E000BB078823F9F081508093BB078823D1F462
:1042F0008091C107853060F48F5F8093C107009380
:10430000BB071093BE0782E997E00E94EF1F0AC027
:104310008091BD076091C0070E9480201092C30762
:104320001092C2078091BE07882369F28150809362
:10433000BE07882341F68091BD076091C0070E94A7
:1043400080201092C3071092C207BDCF1F93182F71
:10435000D901CA01860F971F8150904820F040E094
:1043600050E8461B570BFB01E050F0489A017AEAEF
:1043700065E590EA19C01092FC7F1092F97F709366
:1043800055856093AA82909355851093FC7F8C91FC
:104390008093F97F11968C9111978083869BFECF35
:1043A00012962150304031962115310521F7CA016E
:1043B0001F9108951092FC7F1092F97F3AEA309392
:1043C000558525E52093AA8290E8909355853093F2
:1043D00055852093AA828093FC7F80E380930080A0
:1043E000869BFECF08951092FC7F1092F97F2AEAF7
:1043F0002093558595E59093AA8280E88093558512
:10440000209355859093AA8280E180935585869B61
:10441000FECF0895109282031092FC7F1092F97FD4
:1044200080EF80935585869BFECF0895E82F80917D
:104430008203882361F481E0809382031092FC7FE1
:104440001092F97F88E980935580869BFECF0FB646
:10445000F8940F92F0E0E050F04880810F900FBE8A
:104460000895FB018093FC7F1092F87F0FB6F894BB
:104470000F92E050F04840812091FA7F0F900FBEDC
:10448000942F80E030E0282B392BC90108951F9329
:104490004CEF5FE7FA011081A8EFBFE79C918083A2
:1044A0001C92FB0160812091FA7F9C93FA0110839A
:1044B000962F80E030E0282B392BC9011F910895F9
:1044C000DC01CB019D01442755272093FC7F1092EE
:1044D000F87F0FB6F8940F92B695A79597958795A4
:1044E0009F7780509048FC0140812091FA7F0F9087
:1044F0000FBE942F80E030E0282B392BC90108959E
:10450000109282038F9A8E9880E482BB9798000065
:10451000000000000000979A869BFECF1092FC7F5F
:1045200008952F923F924F925F926F927F928F9257
:104530009F92AF92BF92CF92DF92EF92FF920F9332
:104540001F93DF93CF930F92CDB7DEB74A015B0184
:1045500062E70E94A15F813011F081E087C080E0B6
:1045600092E00E9401758C01009721F40E94855D04
:1045700082E07CC00E94913580916D0082608093C2
:104580006D0085B7806485BF44244A94CC24DD2423
:104590007601C80160E072E00E949C5E1C01C101CE
:1045A000AA2797FDA095BA2FC80ED91EEA1EFB1E9A
:1045B000C701B6010E94FE2880E0281682E0380676
:1045C0001CF0E1E0E98305C0121413040CF040C0B4
:1045D00019823801D501C4012FE0B695A7959795AA
:1045E00087952A95D1F7FFE75F2E5822541419F0CA
:1045F000852D0E94DA21B4017F77A1014F5F5F4FC3
:1046000055954795852D93010E94A621AC019C01EB
:10461000220F331F2216330624F422243324198256
:1046200002C0221A330ACA01AA2797FDA095BA2F01
:10463000880E991EAA1EBB1E2114310421F0620EA1
:10464000731E452CC7CF452CF981F13009F4A1CF59
:104650000E94855DC8010E94FB7480916D008D7F72
:1046600080936D0085B78F7B85BF80E00F90CF91E1
:10467000DF911F910F91FF90EF90DF90CF90BF904F
:10468000AF909F908F907F906F905F904F903F90F2
:104690002F900895FF920F931F93082FF62E90E00E
:1046A000860F911D8138910514F081E024C00E948D
:1046B000913580916D00826080936D0085B7806434
:1046C00085BF602F70E080E090E00E94FC2310E046
:1046D000812F0E94A129812F8F0D0E94DA211F5F57
:1046E0000117B0F780916D008D7F80936D0085B7C5
:1046F0008F7B85BF80E01F910F91FF900895F90196
:10470000A281B3818A179B07A8F42481358162179F
:10471000730780F4840F911DA817B90758F490E02F
:10472000625E7F4F2617370708F091E081E09827F7
:10473000892F089580E090E008958091E107089521
:10474000982F8091D307981718F02FE131E00AC015
:104750002091D9073091DA0781E3989FC001112495
:10476000280F391FC90108951092D5071092D40758
:104770001092CB0708958091DF079091E0070A9689
:104780009093E0078093DF078F3B9105D0F08FE097
:1047900090E09093E0078093DF078091C9079091A4
:1047A000CA078F5F9F4F39F487EF9DEB9093CA073D
:1047B0008093C90708958FEF9FEF9093CA07809366
:1047C000C90708958091CB07882319F081E090E014
:1047D00008958091D4079091D507009711F081E05A
:1047E00090E008958091D4079091D50720E0892B1F
:1047F00009F021E0822F08950F931F936093CC0757
:104800007093CD078093CE079093CF078CE293E609
:104810006AE070E048E750E026E331E00CE810E0A1
:104820000E9492081F910F9108950F931F938FEF8D
:104830009FEF6AE070E048E750E026E331E00CE8E3
:1048400010E00E9492081F910F910895EF92FF923D
:104850000F931F937C014091D7075091D8074F5F6A
:104860005F4F8091E1072DE0829FC0011124480F26
:10487000591F6091DD077091DE079B012B5F3F4F51
:104880008A01085F1F4F82EB94E96F5F7F4F4C5F97
:104890005F4F0E9492088091E1079701280F311D18
:1048A0008091C80790E0281739071CF020E030E01D
:1048B00005C037FF03C09C01215030402093E10721
:1048C0004091D7075091D8074F5F5F4F8DE0289FE9
:1048D000C0011124480F591F6091DD077091DE0758
:1048E0009B012C5F3F4F8A01095F1F4F80E098EFCB
:1048F0006E5F7F4F4B5F5F4F0E9492081F910F9139
:10490000FF90EF900895CF92DF92EF92FF920F9376
:104910001F93D82EC62E8091CB07873009F044C054
:10492000E090C907F090CA070E94D5079C0100914A
:10493000DF071091E007C70160E070E0A801065FA3
:104940001F4F0E94920881E090E06091DF070E9473
:10495000E10A8DB79EB70A970FB6F8949EBF0FBEB7
:104960008DBFEDB7FEB73196ADB7BEB712961C92AC
:104970001E9211978091C9079091CA0793838283F1
:104980008DE995E095838483D6821782C08611864F
:104990000E94AE0B8DB79EB70A960FB6F8949EBFD5
:1049A0000FBE8DBF0E94BB231F910F91FF90EF9010
:1049B000DF90CF9008954F925F926F927F928F9287
:1049C0009F92AF92BF92CF92DF92EF92FF920F939E
:1049D0001F93DF93CF93CDB7DEB72C970FB6F89424
:1049E000DEBF0FBECDBF2B013C012D833E834F8325
:1049F0005887E986FA860B871C879F8CD8A0B9A0B8
:104A00008091CB07873009F048C1E090C907F0904A
:104A1000CA0780912501909126019C838B839A83FC
:104A200089830E94D5079C010091DF071091E00760
:104A3000C70160E070E0A801065F1F4F0E94920866
:104A400081E090E06091DF070E94E10A8FEFD816C5
:104A500039F5ADB7BEB718970FB6F894BEBF0FBE05
:104A6000ADBFEDB7FEB7319612961C921E9211970C
:104A70008FE190E09383828388E296E0958384833C
:104A8000882D90E0880F991F880F991F8C549D4F97
:104A9000978386830E94AE0B8DB79EB70896F6C0AB
:104AA000DD2059F1ADB7BEB71C970FB6F894BEBF65
:104AB0000FBEADBFEDB7FEB7319612961C921E9297
:104AC000119780E29DEF9383828386E096E0958341
:104AD000848383E0B89EC001112488519D4F978341
:104AE0008683882D90E0880F991F880F991F8C541A
:104AF0009D4F91878087D286C3C0992009F094C0CA
:104B0000C7FE02C08DE28983A7FE02C08DE28B83BF
:104B1000ADB7BEB792970FB6F894BEBF0FBEADBF8C
:104B2000EDB7FEB7319612961C921E9211978091A6
:104B3000C9079091CA07938382838FEC95E0958390
:104B4000848383E0B89EC001112488519D4F9783D0
:104B50008683882D90E0880F991F880F991F8C54A9
:104B60009D4F918780874286538664867586CE01E5
:104B70000196978786878C2D6AE00E94E37C9927AF
:104B800087FD909597FF03C0909581959F4F918BDE
:104B9000808B8C2D6AE00E94E37C892F992787FD0A
:104BA000909597FF03C0909581959F4F938B828B33
:104BB0008D819E81AF81B885848B958BA68BB78BB9
:104BC000CE010396918F808F8A2D6AE00E94E37C4C
:104BD000992787FD909597FF03C0909581959F4FEA
:104BE000938F828F8A2D6AE00E94E37C892F992718
:104BF00087FD909597FF03C0909581959F4F958F66
:104C0000848F89859A85AB85BC85868F978FA0A375
:104C1000B1A30E94AE0BADB7BEB792960FB6F89493
:104C2000BEBF0FBEADBF37C08DB79EB70C970FB6D6
:104C3000F8949EBF0FBE8DBFEDB7FEB73196ADB7EE
:104C4000BEB712961C921E92119780E098EF938344
:104C5000828386EB95E09583848383E0B89EC001D0
:104C6000112488519D4F97838683882D90E0880F6B
:104C7000991F880F991F8C549D4F9187808792862A
:104C800013860E94AE0B8DB79EB70C960FB6F894A4
:104C90009EBF0FBE8DBF0E94BB232C960FB6F8940B
:104CA000DEBF0FBECDBFCF91DF911F910F91FF905F
:104CB000EF90DF90CF90BF90AF909F908F907F90BC
:104CC0006F905F904F9008956F927F928F929F9216
:104CD000AF92BF92CF92DF92EF92FF920F931F930A
:104CE000DF93CF9300D0CDB7DEB75B016C01942E7C
:104CF000822E602E7E2C8091CB07873009F0BBC0BE
:104D0000E090C907F090CA07809125019091260193
:104D10009A8389830E94D5079C010091DF07109137
:104D2000E007C70160E070E0A801065F1F4F0E9426
:104D3000920881E090E06091DF070E94E10A77200D
:104D4000C1F48DB79EB708970FB6F8949EBF0FBEFB
:104D50008DBFEDB7FEB73196ADB7BEB712961C92B8
:104D60001E92119780E29DEF938382838CE896E0F8
:104D70006AC0662009F052C097FE02C08DE28983A6
:104D8000ADB7BEB752970FB6F894BEBF0FBEADBF5A
:104D9000EDB7FEB7319612961C921E921197809134
:104DA000C9079091CA07938382838CE696E0958326
:104DB0008483882D90E0880F991F880F991F8C5449
:104DC0009D4F97838683A086B186C286D386CE0107
:104DD000019695878487892D6AE00E94E37C992754
:104DE00087FD909597FF03C0909581959F4F97877A
:104DF0008687892D6AE00E94E37C892F992787FDA9
:104E0000909597FF03C0909581959F4F918B808BD4
:104E10000E94AE0B8DB79EB7429626C0ADB7BEB707
:104E200018970FB6F894BEBF0FBEADBFEDB7FEB773
:104E3000319612961C921E92119780E098EF938300
:104E4000828383E596E095838483882D90E0880FA4
:104E5000991F880F991F8C549D4F978386830E94BA
:104E6000AE0B8DB79EB708960FB6F8949EBF0FBED7
:104E70008DBF0E94BB230F900F90CF91DF911F91A8
:104E80000F91FF90EF90DF90CF90BF90AF909F90E9
:104E90008F907F906F900895EF92FF920F931F93E2
:104EA0008091CB07873009F048C0E090C907F090A7
:104EB000CA070E94D5079C010091DF071091E00707
:104EC000C70160E070E0A801065F1F4F0E949208D2
:104ED00081E090E06091DF070E94E10A8DB79EB704
:104EE0000A970FB6F8949EBF0FBE8DBFEDB7FEB701
:104EF0003196ADB7BEB712961C921E921197809153
:104F0000C9079091CA079383828385EA96E09583C7
:104F1000848380910308868317828091FF078087AE
:104F200011860E94AE0B8DB79EB70A960FB6F89405
:104F30009EBF0FBE8DBF0E94BB231F910F91FF909C
:104F4000EF9008954F925F926F927F928F929F920F
:104F5000AF92BF92CF92DF92EF92FF920F931F9387
:104F6000DF93CF93CDB7DEB727970FB6F894DEBFA8
:104F70000FBECDBF4C018091CB07843009F057C0E4
:104F80005401EE24FF24F1E0CF2ED12CE3E06E2E6D
:104F9000712C6C0E7D1E2E010894411C511C2BC0DF
:104FA000F501828189831A82C30165EC76E0A20152
:104FB0000E949B746091DF077091E0070091C90720
:104FC0001091CA07C601A30120E030E00E94F00959
:104FD0006C01F1E0EF16F10421F083E0E816F10432
:104FE00021F4ECEFFFEFCE0EDF1E0894E11CF11C64
:104FF0000894A11CB11CF4018081992787FD90952C
:10500000E816F9066CF2E090C907F090CA070E9412
:10501000D5079C010091DF071091E007C701B60199
:10502000A801065F1F4F0E9492080E94BB2327968B
:105030000FB6F894DEBF0FBECDBFCF91DF911F91A9
:105040000F91FF90EF90DF90CF90BF90AF909F9027
:105050008F907F906F905F904F900895CF92DF92E6
:10506000EF92FF920F931F93CF93DF93F901D80133
:105070009093C7078093C6076093C8074093E107E2
:105080003093DE072093DD071093D8070093D707EE
:10509000F092DC07E092DB07D092D207C092D107F2
:1050A000215030402E0D3F1D015010400C0D1D1D94
:1050B00082EA90E1BF01AD010E949208C091D7073A
:1050C000D091D8072196EE24FF2445C06091DD07DA
:1050D0007091DE07AE014C5F5F4F9B012B5F3F4F2E
:1050E0008E01085F1F4F82EB94E96F5F7F4F0E9434
:1050F00092088091E10790E0E816F90699F4609132
:10510000DD077091DE07AE014B5F5F4F9B012C5FA7
:105110003F4F8E01095F1F4F80E098EF6E5F7F4F1A
:105120000E9492080091DD071091DE07085F1F4F73
:10513000E091C607F091C7078E2D0995AC01C80113
:10514000BE012FEF3FEF02EB14E90E94F0092D960C
:105150000894E11CF11C8091C80790E0E816F9065C
:105160008CF48091D1079091D2072091D70730918C
:10517000D807820F931F9E01225F3F4F28173907E0
:1051800008F4A4CFDF91CF911F910F91FF90EF9082
:10519000DF90CF9008950F931F938AE491E090934E
:1051A000D5078093D4078FEF95E00E94EA0A80E547
:1051B00090E061E070E047E251E020E038EF0FEF6F
:1051C00015E00E94F0098AE491E0A0E0B0E080934D
:1051D000CC079093CD07A093CE07B093CF078CE276
:1051E00093E66AE070E048E750E026E331E00CE83F
:1051F00010E00E9492081F910F910895AF92BF9204
:10520000CF92DF92EF92FF920F931F935B016C019D
:10521000E090CC07F090CD070091CE071091CF071A
:1052200022E231E040E050E00E94C47CA8019701F6
:105230000E94177D89019A01015F1F4F80EE9FEF49
:105240006FE070E041E850E0980103E810E00E9450
:105250009208C601B50120E038E240E050E00E942B
:10526000177D6115710581059105C1F58DB79EB753
:105270000E970FB6F8949EBF0FBE8DBFEDB7FEB769
:1052800031968FE090E0ADB7BEB712969C938E93A7
:10529000119783E690E09383828380E098EF958373
:1052A00084838FEF9FEF978386838BE999E09187C3
:1052B0008087AAE0D694C794B794A794AA95D1F70B
:1052C000A286B386C486D5860E94850B8DB79EB70D
:1052D0000E960FB6F8949EBF0FBE8DBF1F910F9113
:1052E000FF90EF90DF90CF90BF90AF9008958091A6
:1052F000D4079091D507892B19F18091D40790910B
:10530000D50701979093D5078093D4078091D40750
:105310009091D507892B69F02091D4073091D5075A
:105320006AE471E0621B730B80E090E00E94FE284B
:10533000089580E00E94C1331092CB070E94483D3F
:105340000895FF920F931F93F82E2091CC07309170
:10535000CD074091CE075091CF07682F70E082E2D1
:1053600091E0DB01A89FB001A99F700DB89F700D5F
:10537000112480E090E00E94177D89019A01015F6D
:105380001F4F80E098EF6FE070E041E850E0980137
:1053900003E810E00E949208EDB7FEB73C970FB605
:1053A000F894FEBF0FBEEDBF31968FE090E0ADB731
:1053B000BEB712969C938E93119783E690E09383E9
:1053C000828380E098EF958384838FE190E09783D8
:1053D00086838FEA99E091878087F28613860E9400
:1053E000850BEDB7FEB73C960FB6F894FEBF0FBE27
:1053F000EDBF1F910F91FF9008952F923F924F9212
:105400005F926F927F928F929F92AF92BF92CF9254
:10541000DF92EF92FF920F931F93DF93CF9300D011
:1054200000D0CDB7DEB73C017B01C42E29833A837F
:105430002C010894411C511C5B010894A11CB11C57
:10544000DD244601880E991E1401089421083108B4
:10545000CB014D969C838B8380E194E8B201A5013A
:1054600091010B811C810E94920880E090E0B301C1
:10547000A701940185010E9492088EE1A82EB12C0B
:10548000AE0CBF1C80E090E0B301A7019201850142
:105490000E94920880E090E0B101A70194010E946F
:1054A000920880E090E0B3014B815C8194010E94FE
:1054B0009208A981BA81FD0101900020E9F7319796
:1054C000EA1BFB0B03E0EE0FFF1F0A95E1F7CE1A74
:1054D000DF0AD694C794E8E0F0E0EE0EFF1EC601A6
:1054E000860D971DB701AD012FE130E000E114E812
:1054F0000E94F0090F900F900F900F90CF91DF91C5
:105500001F910F91FF90EF90DF90CF90BF90AF90E1
:105510009F908F907F906F905F904F903F902F90D3
:105520000895EF92FF920F931F93CF93DF93809193
:10553000E10721E3829FC0011124E090D907F09098
:10554000DA07E80EF91E8FEF9FEF0E94EA0A80E566
:1055500090E061E070E048E351E020E030E00FEFE0
:105560001FEF0E94F0098AE090E06EE170E041E4F4
:1055700051E020E030E00E94F0098AE090E06DE226
:1055800070E0A70120E030E00E94F0098DB79EB7DF
:105590000E970FB6F8949EBF0FBE8DBFEDB7FEB746
:1055A00031968AE090E0ADB7BEB712969C938E9389
:1055B00011978CE390E093838283158214828FEF9E
:1055C0009FEF9783868381E497E091878087E70147
:1055D0008DA59EA5AFA5B8A92AE0B695A7959795E4
:1055E00087952A95D1F782879387A487B5870E94EC
:1055F000850B8DB79EB70E960FB6F8949EBF0FBE63
:105600008DBFC7010E94C5368823B1F482E890E0BF
:105610006CE370E04CE451E020E030E000EE17E095
:105620000E94F00981E090E060E50E94E10A0E949A
:1056300034370E941C370CC082E890E06CE370E0C5
:1056400045E551E020E030E000E018EF0E94F0096D
:105650008091D9079091DA070E94FB740E94F73578
:1056600086ED90E06CEC70E044E62BE531E00E94C2
:10567000FD2983E08093CB07DF91CF911F910F919C
:10568000FF90EF900895CF92DF92EF92FF920F93E9
:105690001F9382E08093CB078FEF9FEF0E94EA0A6F
:1056A0008BE490E061E070E040E651E020E030E023
:1056B0000FEF1FEF0E94F0091092D3078EE190E0E8
:1056C00060E570E049E751E020E030E00E94F00939
:1056D0008EE190E06EE570E045E851E020E030E0DA
:1056E0000E94F0090E946436892B49F48EE190E013
:1056F0006CE670E049E951E020E038EF13C089ED35
:1057000097E00E94F835682F8093D307882369F4C7
:105710008EE190E06CE670E049EB51E020E038EF7C
:105720000FEF1FEF0E94F0092BC080EA93E240E0E8
:105730002AE030E004E110E07CE2E72E71E0F72E91
:1057400050EAC52ED12C0E942E2884E090E06CEC0B
:1057500070E04DE22EEC31E00E94FD298CE290E0F9
:105760006CEC70E04DE221ED31E00E94FD298DE608
:1057700090E06CEC70E044E628E331E00E94FD2903
:1057800086ED90E06CEC70E044E62BE531E00E94A1
:10579000FD291F910F91FF90EF90DF90CF9008951A
:1057A0000F931F938BE490E061E070E046ED51E0D1
:1057B0002FEF3FEF00E018EF0E94F00988E290E041
:1057C0006CEC70E044E624EE31E00E94FD2985E0B7
:1057D0008093CB071F910F9108950F931F938FEF25
:1057E0009FEF0E94EA0A8BE490E061E070E04BEEEC
:1057F00051E020E030E00FEF1FEF0E94F00988E257
:1058000090E06CEC70E044E62CEF31E00E94FD2962
:1058100086ED90E06CEC70E044E62BE531E00E9410
:10582000FD298FE090E09093E0078093DF078FEFF2
:105830009FEF9093CA078093C90787E08093CB07B7
:105840001F910F9108950F931F938FEF9FEF0E9469
:10585000EA0A8BE490E064E670E049E052E020E080
:1058600030E00FEF1FEF0E94F00984E090E06CEC55
:1058700070E044E62BE132E00E94FD298DE690E0E5
:105880006CEC70E044E622E232E00E94FD2986EDF5
:1058900090E06CEC70E044E62BE531E00E94FD29DD
:1058A00086E08093CB071F910F9108950F931F936C
:1058B0008BE490E061E070E04BE252E020E030E009
:1058C0000FEF1FEF0E94F00988E290E06CEC70E0AF
:1058D00044E629E332E00E94FD2984E08093CB076F
:1058E0001F910F9108958FEF9FEF0E94EA0A86EDB6
:1058F00090E06CEC70E044E62BE531E00E94FD297D
:105900008FE090E09093E0078093DF078FEF9FEFA9
:105910009093CA078093C9070E94562C0895EF926E
:10592000FF920F931F93CF93DF938FE190E00E943C
:10593000EA0A8BE490E061E070E04FE352E020EE91
:105940003FEF0FE110E00E94F00981E090E06EE18E
:105950000E94E10A00D000D000D0EDB7FEB731962A
:10596000EE24EA94FE2CADB7BEB71296FC92EE92EE
:10597000119700E018EF1383028388E998E095837C
:1059800084830E94AE0BEDB7FEB73196ADB7BEB7BC
:105990001296FC92EE921197138302838AE698E0A6
:1059A000958384830E94AE0BEDB7FEB73196ADB7F9
:1059B000BEB71296FC92EE921197138302838CE38A
:1059C00098E0958384830E94AE0BEDB7FEB73196C5
:1059D000ADB7BEB71296FC92EE9211971383028375
:1059E0008EE098E0958384830E94AE0B2DB73EB77E
:1059F0002A5F3F4F0FB6F8943EBF0FBE2DBF80E128
:105A00000E941622813569F481E10E9416228235B6
:105A100041F482E10E941622893519F481E08093D5
:105A2000830381E090E06AE50E94E10A80918303AC
:105A3000882309F434C100D000D000D0EDB7FEB700
:105A40003196A0EEEA2EAFEFFA2EADB7BEB71296A2
:105A5000FC92EE921197CFE1D0E0D383C28383EF23
:105A600097E0958384830E94AE0B2DB73EB72A5FE3
:105A70003F4F0FB6F8943EBF0FBE2DBF87E20E9486
:105A80001622ADB7BEB718970FB6F894BEBF0FBEBB
:105A9000ADBFEDB7FEB731961296FC92EE9211971C
:105AA000D383C28325EE37E03583248390E00A97C1
:105AB00001E010E0980102C0220F331F8A95E2F73F
:105AC000378326830E94AE0B8DB79EB708960FB61C
:105AD000F8949EBF0FBE8DBF8BE10E941622ADB71A
